:020000040800F2
:10000000381500246D0300082D4C00089D040008DD
:100010009D040008A5090008395D000800000000E3
:100020000000000000000000000000008303000842
:10003000D90B000800000000E3030008974F0008F8
:100040008B0300088B0300088B0300088B03000858
:100050008B0300088B0300088B0300088B03000848
:100060008B0300088B0300088B030008A909000814
:10007000B50900088B0300088B0300088B030008F8
:100080008B0300088B0300088B030008FD0B00089E
:10009000090C00088B0300088B0300088B03000881
:1000A0008B0300088B0300088B0300088B030008F8
:1000B000555200088B0300088B0300088B030008CF
:1000C0008B0300088B0300088B0300088B030008D8
:1000D000B54E0008F15C00088B0300088B03000894
:1000E0008B0300088B030008000000008B0300084E
:1000F0008B0300088B0300088B0300088B030008A8
:100100008B0300088B0300088B0300088B03000897
:100110008B0300088B0300088B0300088B03000887
:100120008B0300088B0300088B0300088B03000877
:100130008B0300088B0300088B0300088B03000867
:1001400000000000000000000000000000000000AF
:100150008B0300088B0300088B0300088B03000847
:100160008B0300088B0300088B0300088B03000837
:100170008B0300088B0300088B03000800000000BD
:100180008B0300088B0300088B0300088B03000817
:100190008B0300088B0300088B0300088B03000807
:1001A0008B0300088B0300088B030008000000008D
:1001B0008B0300088B0300088B0300088B030008E7
:1001C0008B0300088B030008000000000000000003
:1001D00000000000000000008B0300080000000089
:1001E000000000000000000000000000000000000F
:1001F00000000000000000008B0300088B030008D3
:100200008B0300088B030008000000008B0300082C
:100210008B0300088B0300088B0300088B03000886
:100220008B030008000000008B03000800000000A2
:100230008B0300088B030008000000008B030008FC
:100240008B0300088B0300088B0300088B03000856
:100250008B0300088B0300088B0300088B03000846
:100260008B0300088B0300088B0300088B03000836
:100270008B0300088B0300088B03000800000000BC
:100280008B0300088B0300088B0300088B03000816
:10029000000000008B0300088B0300080000000032
:1002A000000000008B0300088B0300088B0300088C
:1002B0008B0300088B0300088B030008150C000853
:1002C0008B0300088B0300088B03000800F002F882
:1002D00000F03CF80AA090E8000C82448344AAF1A4
:1002E0000107DA4501D100F031F8AFF2090EBAE8A2
:1002F0000F0013F0010F18BFFB1A43F0010318475A
:100300005884000098840000103A24BF78C878C14F
:10031000FAD8520724BF30C830C144BF04680C600B
:10032000704700000023002400250026103A28BF53
:1003300078C1FBD8520728BF30C148BF0B60704757
:100340001FB508F026F81FBD10B510BD00F0F0FA7B
:100350001146FFF7F5FF00F020FB00F00EFB03B4A1
:10036000FFF7F2FF03BC00F011FB00000A488047D2
:100370000A4880470A480047FEE7FEE7FEE7FEE737
:10038000FEE7FEE7FEE7FEE7FEE7FEE70548064973
:10039000064A074B70470000E10B00087D5100083A
:1003A000CD020008380B002438150024380D002435
:1003B000380D0024EFF3108072B6704780F3108878
:1003C0007047444A1368012B04D04FF001031360B7
:1003D000414A1060414A116041484FF0805101602C
:1003E0007047EFF3108272B63A48016851B34FF08C
:1003F000000101603848016891B1EFF309811EF0F6
:10040000100F08BF21ED108B21E9F00F4FF0000411
:100410001EF0100F08BF012441F8044D0068016070
:100420002E490968096808C9B1E8F00F002B18BF08
:10043000B1EC108B81F309884EF0100E002B18BF21
:100440002EF0100E82F310884EF0040E70472349F0
:100450000860EFF3148222F0040282F314881E492C
:100460004FF0000008601B494FF0010008601D4874
:100470001D49D0F8002041EA0201016018484FF000
:100480008051016019480068006880F3088861B6EF
:1004900062B6BFF34F8FBFF36F8F70471EF0040F2C
:1004A0000CBFEFF30880EFF3098020E9F00F40F86C
:1004B00004ED40F804ED1EF0040F0CBF80F3088833
:1004C00080F3098800B506F0DFFD5DF804EB4EF01F
:1004D000040E704728000024240000240800002097
:1004E00004ED00E020ED00E00000FFFF08ED00E07B
:1004F00053EA020C00F069802DE9F04B4FF0000642
:10050000002B1FBFB3FA83F503FA05F424FA05F6AE
:100510005E4012BF1643B2FA82F502FA05F4C5F145
:1005200020051EBF22FA05FC44EA0C04203556EAD9
:10053000044C4FEA144418BF641C4FF000084FF0FD
:100540000009904271EB030C39D3002919BFB1FAAD
:1005500081F701FA07F6B0FA80F700FA07F6C7F15B
:1005600020071EBF20FA07FC46EA0C062037B6FB20
:10057000F4FCA7EB0507103F07F01F0BCBF120069B
:100580000CFA0BFB2CFA06F644BFB3460026202FCC
:10059000A4BF5E464FF0000B5BEA060C08BF4FF0AD
:1005A000010B19EB0B09ABFB027C48EB0608C01BE7
:1005B00006FB02CC0BFB03CC71EB0C01C1E70B4635
:1005C000024641464846BDE8F08B13B54FF00000A7
:1005D0004FF00001AFF30080BDE81C40704740EAD7
:1005E000010310B59B070FD1042A0DD310C808C909
:1005F000121F9C42F8D020BA19BA884201D90120B2
:1006000010BD4FF0FF3010BD1AB1D30703D0521CFC
:1006100007E0002010BD10F8013B11F8014B1B1B37
:1006200007D110F8013B11F8014B1B1B01D1921EA1
:10063000F1D1184610BD40EA0103024630B59B07D0
:1006400010D14FF0013400E008C208C91D1B9D43C2
:1006500015EAC41FF8D013F0FF0102F8011B0DD0FA
:100660001B0AF8E711F8013B002B02F8013B05D00B
:1006700011F8013B002B02F8013BF3D130BD10B55E
:10068000431C02E010F8011B71B18107FAD14FF051
:10069000013202C88C1A8C4314EAC211F9D0C01A74
:1006A0000A0603D0C01E10BDC01A10BD0A0401D036
:1006B000801E10BD0902FCD0401E10BD40EA01039F
:1006C00070B59B072ED14FF00136042A2AD308C8F3
:1006D00010C99D1B9D43121F15EAC61517D0D8B22D
:1006E000E1B2401A50EA056110D198B2A1B2401AA5
:1006F00050EA05410AD123F07F4024F07F41401A9F
:1007000050EA052102D1180EA0EB146070BDA3427F
:10071000DBD018BA21BA884201D9012070BD4FF050
:10072000FF3070BD0AB9002070BD10F8013B11F810
:10073000014B63B1A3420AD1521E08D010F8013B0D
:1007400011F8014B1BB1A34201D1521EEDD1181B70
:1007500070BD421E12F8013F002BFBD111F8013B86
:10076000002B02F8013BF9D1704710B5203AC0F0D8
:100770000B80B1E81850203AA0E81850B1E81850A2
:10078000A0E81850BFF4F5AF5FEA027C24BFB1E8DF
:100790001850A0E8185044BF18C918C0BDE8104050
:1007A0005FEA827C24BF51F8043B40F8043B08BF59
:1007B0007047D20728BF31F8023B48BF11F8012B20
:1007C00028BF20F8023B48BF00F8012B70474FF0CC
:1007D000000200B5134694469646203922BFA0E891
:1007E0000C50A0E80C50B1F12001BFF4F7AF09079D
:1007F00028BFA0E80C5048BF0CC05DF804EB89008E
:1008000028BF40F8042B08BF704748BF20F8022BD0
:1008100011F0804F18BF00F8012B704710B5044647
:1008200010F0030F08BF11F0030F40F015804FF0D8
:10083000013E121FC0F20E8051F8043BA3EB0E0CD8
:100840002CEA030C1CEACE1C08BF40F8043BF0D095
:10085000A1F1040102F10402521E08DB11F8013B70
:10086000002B00F8013BF7D1114600F03AF8204682
:1008700010BD00004FF0013C50F8042B51F8043B30
:100880009A4215D1A2EB0C03934313EACC130BD17C
:1008900050F8042B51F8043B9A4209D1A2EB0C0307
:1008A000934313EACC13E7D04FF00000704700BF2A
:1008B000D01A01BAB1FA81F101F0180122FA01F05F
:1008C000CB40C1F12001DBB2C0B2C01A2CFA01F357
:1008D000D11A914311EAC311E6D1704770477047AE
:1008E00070474FF000020429C0F0128010F0030C92
:1008F0003FF46FAFCCF1040CBCF1020F18BF00F84D
:10090000012BA8BF20F8022BA1EB0C01FFF761BF60
:100910005FEAC17C24BF00F8012B00F8012B48BF1F
:1009200000F8012B7047000000487047D8140020E1
:100930007546FFF7F9FFAE4605006946534620F0BD
:100940000700854618B020B5FFF720FDBDE8204020
:100950004FF000064FF000074FF000084FF0000B7B
:1009600021F00701AC46ACE8C009ACE8C009ACE82E
:10097000C009ACE8C0098D46704710B50446AFF316
:1009800000802046BDE81040FFF7E9BC014918206F
:10099000ABBEFEE726000200704710B507F0B6FBBD
:1009A000002010BDFEE70000014800F05FBB000022
:1009B000AC020024014800F059BB000024030024CD
:1009C000294A016891423AD0274A1832914236D0DA
:1009D000254A3032914232D0234A483291422ED0B9
:1009E000214A603291422AD01F4A7832914226D061
:1009F0001D4A9032914222D01B4AA83291421ED009
:100A00001A4A91421BD0194A1832914217D0174AFC
:100A10003032914213D0154A483291420FD0134AD6
:100A2000603291420BD0114A7832914207D00F4A7E
:100A30009032914203D00D4AA832914211D1CAB2EC
:100A40001823103AB2FBF3F26FF30901032A02F004
:100A50000703074AD25CC26500D9091D81650846B3
:100A6000704721F0FF01F9E7100002401004024036
:100A70009C83000830B5224A012301689142CAB222
:100A80001BD01F4C1434A14217D01D4C2834A14256
:100A900013D01B4C3C34A1420FD0194C5034A1420E
:100AA0000BD0174C6434A14207D0154C7834A142C6
:100AB00003D0134C8C34A1420CD11421114C083AB0
:100AC000B2FBF1F10F4A803201F01F0504EB810106
:100AD000AB4010E00C4D1824103A0D44B2FBF4F179
:100AE000A82D00D80831094A01F01F0402EB81014A
:100AF000064AA3408032603080E80E0030BD00001E
:100B00000854025800580258F0FBFDBF000802408C
:100B100010B50279531E072B2DD8174C0168A1423E
:100B20001BD0154C1434A14217D0134C2834A142C9
:100B300013D0114C3C34A1420FD00F4C5034A14281
:100B40000BD00D4C6434A14207D00B4C7834A14239
:100B500003D0094C8C34A14203D10849074C4431DD
:100B600002E00749064C443104EB8202C0E91B2134
:100B700001219940416710BD08540258FC580258A1
:100B8000FC08024010B583694FF0C074826A0146C8
:100B9000002053B1B3F5005F15D072B1012A0CD01B
:100BA000022A0AD0032A09D104E01AB1012A06D088
:100BB000022A03D1C96AC90100D5012010BDC96A42
:100BC000A142FAD010BD002AF7D0012AF2D0022AA1
:100BD000F3D0032AF3D010BD704772B6FEE70000D1
:100BE000054805490839026842F0020202600868B7
:100BF0008004FCD5704700000C480258014800F002
:100C00008BBF000044000024014800F085BF0000B5
:100C1000E4000024014800F07FBF000084010024AC
:100C2000F0B503684FF6FC716D4C426BD3F88450FD
:100C30008D4345EA8205C3F88450036853F8845F06
:100C4000068F25F47F0545EA06451D60836B654DDB
:100C50009F180268D2F888308B4343EA8703C2F8B2
:100C60008830026852F8883F868F23F4FE0343EAF7
:100C700006431360066856F8A03FC26B8B4307EB30
:100C8000420243EA82033360076857F8A03FB0F896
:100C9000406023F4FE0343EA06433B60D0E910368C
:100CA00003FB06220368D3F8B0608E4346EA82064F
:100CB000C3F8B0600368B0F84860D3F8B07027F4A8
:100CC000FE0747EA0646C3F8B060D0E9126703683A
:100CD00006FB0722D3F8AC608E4346EA8206C3F8CF
:100CE000AC60D0E91467036806FB0722D3F8F06014
:100CF0008E4346EA8206C3F8F0600368B0F8586095
:100D0000D3F8F07027F47C1747EA0646C3F8F06082
:100D10000368876D53F8C06F02EB47028E4346EAC3
:100D2000820119600168B0F85C20D1F8C03023F46A
:100D30007C1343EA0242C1F8C020016890F86020A9
:100D4000D1F8C03023F07C5343EA0262C1F8C020DE
:100D5000416B04EB8101C166826B01EB8202026789
:100D6000C36B02EBC3024267D0E91034634302EB6A
:100D700083028267D0E91234634302EB8302C267C5
:100D8000D0E91434634302EB8302C0F88020836D02
:100D900002EBC303C0F88430C46D826E544303EB8E
:100DA0008403C0F88830046E544303EB8402C0F817
:100DB0009020AA420AD9D0F89C20032142F02002B8
:100DC000C0F89C2080F898100120F0BD002200E0BF
:100DD00004C1D0F890308B42FAD80020F0BD00005A
:100DE00000AC0040FCD300402DE9F05F28B190F842
:100DF0003510022904D0802141650120BDE8F09F13
:100E0000904C904B0168183C18338E4ADFF83C92A6
:100E1000A1428D4CDFF838E28E4FDFF83CB2DFF8AC
:100E20003CA28F4D8F4E31D091422FD099422DD080
:100E3000A1422BD0494529D0714527D0B94225D0B0
:100E4000DFF810C20CF1180C61451FD0DFF808C2A2
:100E5000ACF1600C614519D0DFF8FCC1ACF1480C75
:100E6000614513D0DFF8F0C1ACF1300C61450DD015
:100E7000DFF8E4C1ACF1180C614507D0594505D045
:100E8000514503D0A94201D0B1422CD1DFF8B4C101
:100E90004FF0040880F83580ACF1180C61451DD086
:100EA00091421BD0994219D0A14217D0494515D083
:100EB000714513D0B94211D06648183081420DD027
:100EC00065486038814209D063484838814205D07E
:100ED00061483038814201D05F481838086820F0F6
:100EE00001000860ABE0D1F800C02CF00E08DFF87C
:100EF00054C1C1F80080ACF1180C0168614527D0DD
:100F0000914225D0994223D0A14221D049451FD0FA
:100F100071451DD0B9421BD0DFF838C10CF1180C57
:100F2000614515D0DFF830C1ACF1600C61450FD0E0
:100F3000DFF824C1ACF1480C614509D0DFF818C1D5
:100F4000ACF1300C614503D0DFF80CC1ACF1180CEA
:100F5000D1F800C02CF0010CC1F800C0DFF8E4802B
:100F60004FF0010C0168A8F11808414546D09142A4
:100F700044D0994242D0A14240D049453ED071452B
:100F80003CD0B9423AD0334A1832914236D0324A34
:100F9000603A914232D0304A483A91422ED02E4A9D
:100FA000303A91422AD02C4A183A914226D05945DB
:100FB00024D0514522D0A94220D0B1421ED02A4A85
:100FC00091421BD0284A1432914217D0264A283227
:100FD000914213D0244A3C3291420FD0224A5032DF
:100FE00091420BD0204A6432914207D01E4A783297
:100FF000914203D01C4A8C32914218D1016E0A688A
:1010000022F480720A6090F85C20816D02F01F0269
:101010000CFA02F24A60D0E919124A60C16E31B18D
:101020000A6822F480720A60D0E91C124A60002229
:10103000016D80F835C080F8342001B18847002068
:10104000DCE6000028000240580002407000024028
:1010500088000240A0000240700402408804024060
:10106000A0040240B8040240085402582DE9FC5F75
:101070000446F74E0020DFF8D88300904FF4165254
:10108000F44808F11808A56DDFF8C493DFF8C0A391
:10109000016809F1300920680AF1480AB1FBF2F150
:1010A000B04201912F68D5F800C0DFF8ACB335D05D
:1010B0004146884232D0484530D050452ED0584520
:1010C0002CD0E5491831884228D0E3493031884294
:1010D00024D0E1494831884220D0E04988421DD0DF
:1010E000DE491831884219D0DC493031884215D0A8
:1010F000DA494831884211D0DFF860E30EF1600E22
:1011000070450BD0D54A7832904207D0D34B9033FC
:10111000984203D0D149A83188427DD194F85C200F
:10112000082102F01F0201FA02F23A424AD0B0420C
:1011300032D0404530D048452ED050452CD058456F
:101140002AD0C54A1832904226D0C34A3032904243
:1011500022D0C14A483290421ED0C04A90421BD091
:10116000BE4A1832904217D0BC4A3032904213D057
:10117000BA4A483290420FD0B84A603290420BD0FF
:10118000B64A7832904207D0B44A9032904203D0A7
:10119000B24AA832904203D1026802F0040202E08F
:1011A000026802F008026AB1026822F004020260DA
:1011B00094F85C0000F01F008140A960606D40F071
:1011C0000100606594F85C00012100F01F0081407F
:1011D000394240D02068B04234D0404532D04845F2
:1011E00030D050452ED058452CD09B4A18329042D2
:1011F00028D0994A3032904224D0974A48329042BF
:1012000020D0964A90421DD0944A1832904219D06C
:10121000924A3032904200E0AFE113D08F4A483218
:1012200090420FD08D4A603290420BD08B4A783278
:10123000904207D0894A9032904203D0874AA83220
:1012400090427DD1406910F0800F04D0A960606D9C
:1012500040F00200606594F85C00042100F01F007B
:10126000814039423ED02068B04232D0404530D033
:1012700048452ED050452CD058452AD0764A1832B1
:10128000904226D0744A3032904222D0724A48327C
:1012900090421ED0714A90421BD0704A1832904240
:1012A00017D06E4A3032904213D06C4A4832904286
:1012B0000FD06A4A603290420BD0684A783290422E
:1012C00007D0664A9032904203D0644AA8329042D6
:1012D0004ED1006810F0020F04D0A960606D40F09C
:1012E0000400606594F85C00102100F01F0081404C
:1012F000394258D02068B04234D0404532D04845B9
:1013000030D050452ED058452CD0534A18329042F8
:1013100028D0514A3032904224D04F4A483290422D
:1013200020D04E4A90421DD04C4A1832904219D0DB
:101330004A4A3032904215D0484A4832904200E042
:1013400014E00FD0454A603290420BD0434A7832C5
:10135000904207D0414A9032904203D03F4AA8328F
:10136000904207D1006800F0080006E0006872E7CC
:101370000068B7E7006800F00400A0B1A960206829
:101380000168490304D50068000308D5A16C07E093
:101390000168C90503D4016821F008010160216CCE
:1013A00009B12046884794F85C00202100F01F0016
:1013B0008140394279D02068B04232D0404530D0A7
:1013C00048452ED050452CD058452AD0224A1832B4
:1013D000904226D0204A3032904222D01E4A4832D3
:1013E00090421ED01D4A90421BD01C4A1832904297
:1013F00017D01A4A3032904213D0184A48329042DD
:101400000FD0164A603290420BD0144A7832904284
:1014100007D0124A9032904203D0104AA83290422C
:1014200003D1006800F0100002E0006800F0020044
:10143000B0B3A96094F835000428206801680FD083
:1014400049037ED5006800032BD4616C2AE00000BC
:10145000100002400C000024700002401004024002
:1014600021F0160101602068416921F0800141618D
:10147000206C08B9A06C20B12068016821F0080137
:10148000016094F85C303F21012003F01F0300222B
:101490009940A96084F8350084F83420216D65E016
:1014A00003E0E16B09B120468847606D00287DD0DC
:1014B000606DC00759D02068042184F83510B0420F
:1014C0002BD0404529D0484527D0504525D05845F8
:1014D00023D09D49884220D09B49183188421CD096
:1014E00099493031884218D09849884215D0974997
:1014F0001831884211D09549303188420DD0934936
:101500004831884209D091496031884205D08F49DD
:101510007831884201D08D499031016821F0010174
:10152000016020680099019A491C0091914202D8FB
:101530000168C907F6D10068C00710D003200FE08A
:10154000FFE70168C905ACD403680121002223F03C
:101550001003036084F8351084F83420A1E70120DB
:1015600084F83500002084F83400E16C00291DD097
:1015700002B02046BDE8F05F0847754988421DD09B
:1015800073491431884219D071492831884215D0E5
:101590006F493C31884211D06D49503188420DD09D
:1015A0006B496431884209D0694900E084E07831B0
:1015B000884203D066498C3188427DD194F85C80A2
:1015C0000427016808F01F0807FA08F717EA0C0F4C
:1015D000009746D04F0744D500980F04686003D5A4
:1015E000C8033CD4A16CC1E7880638D42068B04257
:1015F0002DD055496039884229D0484527D05045DB
:1016000025D0584523D05049884220D04E49183122
:1016100088421CD04C493031884218D04B4988420E
:1016200015D04A491831884211D048493031884292
:101630000DD046494831884209D0704507D09042C4
:1016400005D0984203D04149A831884203D10168AE
:1016500021F0080102E0016821F004010160216C21
:1016600084E7022707FA08F717EA0C0F00974ED015
:101670008F074CD500980F04686003D5C80344D485
:10168000616C73E7880640D42068B0422FD02E49A1
:10169000603988422BD0484529D0504527D058453D
:1016A00025D02949884222D02749183188421ED0A6
:1016B00025493031884200E044E018D0234988426F
:1016C00015D022491831884211D020493031884242
:1016D0000DD01E494831884209D0704507D090424C
:1016E00005D0984203D01949A831884203D1016836
:1016F00021F0140102E0016821F00A0101600121DA
:1017000084F83510002084F83400E16B2EE70822BD
:1017100002FA08F212EA0C0F14D0090712D5016878
:1017200021F00E01016094F85C100120002201F00C
:101730001F0100FA01F16960606584F8350084F8E2
:10174000342012E7BDE8FC9F8800024010040240EC
:10175000085402582DE9F05F044600F04FFE002CBB
:1017600007467DD0E24E022120684FF00308DFF8E3
:1017700084934FF00005DFF880A3B042DFF87CB31C
:1017800034D0DB4A1832904230D048452ED05045F4
:101790002CD058452AD0D94A1832904226D0D74A60
:1017A0003032904222D0D54A483290421ED0D44A9C
:1017B00090421BD0D24A1832904217D0D04A3032D1
:1017C000904213D0CE4A483290420FD0CC4A603279
:1017D00090420BD0CA4A7832904207D0C84A903221
:1017E000904203D0C64AA83290427DD184F8351089
:1017F000B04284F834502ED0BD49183188422AD0E6
:10180000484528D0504526D0584524D0BB491831EA
:10181000884220D0B949303188421CD0B74948317C
:10182000884218D0B649884215D0B5491831884247
:1018300011D0B349303188420DD0B1494831884286
:1018400009D0AF496031884205D0AD49783188422E
:1018500001D0AB499031016821F00101016008E03D
:1018600025E100BF00F0CAFDC01B052801D92021D9
:101870001AE120680068C007F4D1D4E902032168A6
:10188000103418438E4694E88410D4E9033809686C
:101890003A4310439B4A40EA0C00676918431140E1
:1018A000103C40EA0800042F40EA010003D1D4E9CB
:1018B0000B12114308436168A1F12902052A0BD9D3
:1018C000163A032A08D9083A012A05D9083A032A00
:1018D00002D97439032901D840F48010CEF80000F1
:1018E0002068676A406900E020E0042F20F00700CC
:1018F00047EA00070DD1D4E90A01074349B1204660
:10190000FFF740F928B140206065012184F83510C7
:10191000CDE0206847612046FFF752F894F85C203C
:101920003F2102F01F029140816055E0764A9042CB
:101930001BD0754B1433984217D0734B2833984201
:1019400013D0714B3C3398420FD06F4B50339842B9
:101950000BD06D4B6433984207D06B4B7833984271
:1019600003D0694B8C3398427ED184F8351084F8CB
:101970003450664B0168A26801EA030E402A74D015
:10198000802A73D05FF00002D4E90378D4E90531EE
:1019900042EAD70242EAD8085B4AD4E9077C48EA1F
:1019A000D30848EAD10141EAD701524241EA1C1169
:1019B000142341EA0E01016020681044B0FBF3F0EB
:1019C0008000E0652046FEF7FBFF94F85C200121D3
:1019D00002F01F02914041602068B04257D0444954
:1019E0001831884253D0484551D050454FD05845C2
:1019F0004DD042491831884249D04049303188425F
:101A000045D03E494831884241D03D4988423ED088
:101A10003B49183188423AD039493031884236D072
:101A200037494831884232D03549603188422ED01A
:101A30003349783188422AD031499031884226D0C2
:101A40002F49A831884222D02F4988421FD02E49E1
:101A5000143188421BD02C492831884217D02A499A
:101A60003C31884213D002E01DE017E018E026491F
:101A7000503188420BD024496431884207D0224932
:101A80007831884203D020498C31884229D12046C0
:101A9000FEF7F0FFA06880280CD00CE0102273E75E
:101AA0004FF4804270E74021616584F83580012061
:101AB000BDE8F09F6560216E20790860D4E91901C6
:101AC00041606068401E072808D82046FFF720F8CC
:101AD000E06E0560D4E91C01416002E0E56625671F
:101AE00065670120656584F835000020E0E70000A7
:101AF00010000240400002405800024070000240C6
:101B0000100402403F8010FE085402580F00FEFFF0
:101B100070477047704770472DE9FF5FDFF80CB3DF
:101B200004460BF10401DBF8000025680F68AA46A3
:101B30008007D5F85090696DD5F850806E6D2A6D8C
:101B4000D5F854C02B6D00EA8770009009F47049F5
:101B50006F6D286D01EA09010191DAF85410DAF885
:101B60005490DAF8505008F00F0806EA080602967A
:101B700002F0F00203F071536FEA09061F4000F013
:101B800060700CEA020CCDF80CC0F20501EA000905
:101B90000CD4E843C00509D400214FF48073CAF87F
:101BA0005030CBF800102046FFF7B5FF700512D477
:101BB000E84340050FD4206800234FF48068D0F834
:101BC000DC20D0F8E410C0F85080CBF80030114091
:101BD000204600F0FAFADFF858A2009850B12268C7
:101BE000830F00EA0A001065CBF800302046009908
:101BF000FFF78EFF019850B12268830F00EA0A00B8
:101C00001065CBF800302046019900F0E0FA029808
:101C100050B12268830F00EA0A001065CBF800304B
:101C20002046029900F0C9FA039850B12268830F48
:101C300000EA0A001065CBF800302046039900F056
:101C4000BDFA30050CD4E843000509D42368002010
:101C50004FF400621A65CBF80000204600F0B8FA95
:101C6000B00512D4E84380050FD4206800234FF458
:101C70000078D0F8D820D0F8E010C0F85080CBF829
:101C800000301140204600F0A1FA30030CD4E843A4
:101C9000000309D4236800204FF400221A65CBF812
:101CA0000000204600F088FAF0030CD4E843C0039B
:101CB00009D4236800204FF480321A65CBF8000065
:101CC000204600F081FA70030CD4E843400309D4A5
:101CD000226800204FF480231365CBF800002046D3
:101CE00000F071FAB0030FD4E84380030CD42368EA
:101CF00000204FF400321A65CBF80000D4F89C00A5
:101D000040F08000C4F89C00B9F1000F0BD02268AD
:101D10004FEA997309EA0A001065CBF8003049468A
:101D20002046FFF7F7FE5FB12268BB0F07EA0A0003
:101D30001065CBF80030D4F89C003843C4F89C0000
:101D40003C492068884268D1606881468068800785
:101D500063D0D9F82060D9F82410D9F82080D9F8B8
:101D60002400D9F820C0D9F82470D9F82030D9F847
:101D70002450D9F8202003F4FC4306F00F0AD9F8C8
:101D800024601D40D9F824B008F030080CF4C07C61
:101D900002F4F02211EA0A0100EA080807EA0C0737
:101DA00006EA0206D9F820A004D0C9F8201020467F
:101DB00000F006FAB8F1000005D0616808624146FB
:101DC000204600F0FFF96FEA0B0040060ED46FEAE0
:101DD0000A0040060AD460684021C36BC26B0162EE
:101DE0002046190C02F03F0200F0EBF92FB16068B9
:101DF00007623946204600F0E2F935B160680562B5
:101E0000D4F89C002843C4F89C0036B16068066290
:101E1000D4F89C003043C4F89C00D4F89C000028FF
:101E200002D02046FFF775FEBDE8FF9F10A80040D6
:101E3000FFFFCF3F00A000402DE9F04194B08D4955
:101E40004C2204466846FEF790FC64B18A4D206837
:101E5000A84202D100F58070606094F898004FF0BD
:101E6000000820B108E0012014B0BDE8F081204650
:101E700084F8998000F002F92068816921F010014E
:101E8000816100F0BBFA0327064604E000F0B6FAD1
:101E9000801B0A2811D8206880690007F6D42068C2
:101EA000816941F00101816100F0A8FA06460DE068
:101EB00000F0A4FA801B0A2808D9D4F89C0040F04E
:101EC0000100C4F89C0084F89870CCE72068806911
:101ED000C007EDD02068816941F002018161207C5A
:101EE00001282068816937D041F040018161607C20
:101EF00001282068816932D021F480418161A07C71
:101F00000128206881692DD041F4805181612068C9
:101F1000A268816921F4407111438161206881695F
:101F200021F0A40181612068016921F010010161A3
:101F3000E068012819D010B302281BD020688169FD
:101F400041F0800181612068016941F01001016167
:101F5000E06803280ED012E021F04001C6E741F40A
:101F60008041CBE721F48051D0E72068816941F0BE
:101F7000040103E02068816941F020018161207E35
:101F80006FF0FF02D4E90773A68A1102400602EB44
:101F90000727A0F10070384327685B1E184301EB48
:101FA00006463043F861A068B0F5407F11D104F1D6
:101FB0002800A68C6FF00F0C89C801EB0641401E6B
:101FC00002EB0322104322680CEB0713184308436B
:101FD000D060206E30B12068626ED0F8C01011431E
:101FE000C0F8C010D4E917126846D14209D0216860
:101FF000A36E51F8C82F50F8233022F007021A437D
:102000000A60216C49B12168626C51F8BC3F50F8FC
:10201000226023F0070232430A60A16C51B12168AB
:10202000E36C51F8BC2F50F8233022F0700242EAE2
:1020300003120A60216D51B12168626D51F8BC3FF5
:1020400050F8220023F4E06242EA00200860206891
:10205000A84204D16068816821F003018160C4F85E
:1020600094800121C4F89C8084F898102046FEF7E3
:10207000D7FDF9E6B483000800A00040F0B587B0B2
:10208000054614216846FEF7A2FB454E0024434B4B
:1020900002272D684FF0090CDFF808E10C3B31688E
:1020A0003E4A7545404801F1010122D101293160C4
:1020B00007D1116841F480711160116801F48071D9
:1020C0000591196841F008011960196801F00801CB
:1020D000059103210091CDE90174CDE9034C6946D6
:1020E00000F078F800220621132000F025FA1320D2
:1020F00026E0DFF8B8E0754526D10129316007D127
:10210000106840F480701060106800F480700590D2
:10211000186840F0020018601868694600F0020074
:10212000059060200090CDE901742148CDE9034C71
:1021300000F050F800220521142000F0FDF91420D1
:1021400000F0ECF907B0F0BDDFF868C06545F9D1E3
:102150000129316007D1116841F480711160116863
:1021600001F480710591196841F00801196019683E
:10217000052201F0080105914FF440510091CDE98D
:102180000174CDE90342694600F024F800229F2043
:10219000114600F0D1F99F20D2E70000EC4402582C
:1021A0000000002000A00040000C025800A40040E5
:1021B0000004025800D400407047704770477047D1
:1021C0007047704770477047704770477047704757
:1021D000704700002DE9F84F03247A4D00234FF09B
:1021E00001094FF0B04B4FF00F0AE4E009FA03F693
:1021F000324078D00F7907F00307012F01D0022F6A
:102200001AD187684FEA430ED1F80CC004FA0EF8D1
:1022100027EA08070CFA0EFC4CEA070CC0F808C0C5
:10222000476891F804C0B743CCF3001C0CFA03FCD8
:102230004CEA070CC0F804C00E79F643B6070BD081
:10224000C6684FEA43088F6804FA08FC26EA0C06C1
:1022500007FA08F73743C7600E7906F00306022E27
:1022600012D1DE080F694FEA437C00EB8606B646C2
:10227000366A4FEADC6C0AFA0CF807FA0CF726EA21
:1022800008063743CEF820700F7906684FEA4308F6
:1022900007F0030704FA08FC07FA08F726EA0C0619
:1022A000374307604E6816F4403F1CD0464E3768EF
:1022B00047F00207376036689F0706F0020600966F
:1022C00023F0030606F1B046B6463F0FD6F8086481
:1022D000DFF8F8800AFA07FC404526EA0C0603D12D
:1022E0004FF0000C3AE065E0DFF8E4C0604502D151
:1022F0004FF0010C32E0DFF8DCC0604502D14FF056
:10230000020C2BE0DFF8D0C0604502D14FF0030C87
:1023100024E0DFF8C8C0604502D14FF0040C1DE096
:10232000DFF8BCC0604502D14FF0050C16E0DFF8C5
:10233000B4C0604502D14FF0060C0FE0DFF8A8C032
:10234000604502D14FF0070C08E0DFF8A0C06045FF
:1023500002D14FF0090C01E04FF00A0C0CFA07FC17
:102360004CEA060CCEF808C44F68DBF80060FF02A8
:1023700026EA020600D516435F46CBF80060D1F886
:1023800004C0DBF804605FEA8C2C26EA020600D564
:1023900016437E606E684F6826EA0206BF0300D5CA
:1023A00016436E602E684F6826EA0206FF0300D5CA
:1023B00016432E605B1C0A6832FA03F67FF416AFF0
:1023C000BDE8F88F80000058F4440258000002581D
:1023D0000004025800080258000C0258001002586D
:1023E0000014025800180258001C02580024025819
:1023F0000AB1816170470904FBE700000148806869
:1024000070470000000000240248816802781144EF
:102410008160704700000024032010B500F0ACF884
:1024200001F07CF80F4A104914681368C4F30322C2
:1024300003F00F038A5CC95C02F01F0201F01F0168
:10244000D0400A4A20FA01F11160094908600F20C2
:1024500000F010F808B1012010BD00F051F8002084
:1024600010BD000018440258288400081000002401
:102470000C00002410B5102804468AB02DD200228A
:1024800001461C2000F058F81C2000F047F81848BE
:1024900004601848016841F001010160006809A961
:1024A00000F001000890684600F0C4FF0598B8B13C
:1024B00001F010F840001049002240F2E733B0FB71
:1024C000F1F10E484FF080440460C0E90332491E28
:1024D000C0E9011201F038FE28B101200AB010BD98
:1024E00000F0F8FFE7E7054801F060FEF6E70000BE
:1024F00004000024E844025840420F007C040024F9
:10250000054808B5016841F002010160006800F06B
:102510000200009008BD0000F4440258002809DBC6
:10252000410900F01F028900012001F1E0219040E3
:10253000C1F80001704700000E4BF0B41B680D4657
:10254000C3F30223C3F10706042E00D90426191D84
:10255000072901D2002300E0DB1E012404FA06F162
:102560009C40491E2940641E994014402143F0BC00
:1025700003F0E3BB0CED00E0064900F0070210B5E4
:102580004FF6FF040868044B204040EA022018433D
:10259000086010BD0CED00E00000FA05134970B5AD
:1025A0000A68D243520705D5096801F00701814244
:1025B00013D118E00A6822F0070202430A60FFF70D
:1025C0001DFF0A4D4FF47A760446083D07E000BF30
:1025D000FFF714FF001BB04201D9012070BD28682D
:1025E000C0438004F4D4002070BD00000C480258A1
:1025F00010B500F04DFF05490968054AC1F3021105
:10260000515C01F01F01C84010BD00002044025879
:1026100028840008494930B5484C0B1D0A68143419
:1026200009681D68246802F00303C5F30012C1F3B2
:102630000531C4F3CC04002914FB02F200EE102A89
:10264000F8EE400A75D03F4A9FED3D1AB7EE000AFA
:102650006BB1DFED3D1A012B01D0022B64D002EEED
:10266000101A1168F8EE422A81EEA22A21E0334CBA
:10267000283C23689B0612D5344B246801EE901A3F
:102680001168C4F3C104F8EE612AE34001EE903A08
:10269000C1F30801F8EE611A81EEA22A0BE001EE07
:1026A000901ADFED2B2A00BFF8EE611A116882EE56
:1026B000A12AC1F3080101EE901A1168F8EE611A1F
:1026C00040EE811A71EE800A62EE200AC1F34621C3
:1026D00001EE101AB8EE411A31EE001AC0EE811A5E
:1026E000BCEEE11A80ED001A1168C1F3064101EE5B
:1026F000101AB8EE411A31EE001AC0EE811ABCEE83
:10270000E11A80ED011A1168C1F3066101EE101A99
:10271000B8EE411A31EE000A80EE801ABCEEC10A12
:1027200080ED020A30BD04E001EE901ADFED092AC7
:10273000BAE70021016041608160F3E72844025854
:1027400000000039384402580024744A0090D00335
:102750000024744C001BB74B494930B5484C0B1D45
:102760000A681C3409681D68246802F00303C5F375
:102770000022C1F30551C4F3CC04002914FB02F27A
:1027800000EE102AF8EE400A75D03F4A9FED3D1A40
:10279000B7EE000A6BB1DFED3D1A012B01D0022B21
:1027A00064D002EE101A1168F8EE422A81EEA22AD5
:1027B00021E0334C283C23689B0612D5344B246817
:1027C00001EE901A1168C4F3C104F8EE612AE340E7
:1027D00001EE903AC1F30801F8EE611A81EEA22AE7
:1027E0000BE001EE901ADFED2B2A00BFF8EE611A24
:1027F000116882EEA12AC1F3080101EE901A116856
:10280000F8EE611A40EE811A71EE800A62EE200A3B
:10281000C1F3462101EE101AB8EE411A31EE001A4A
:10282000C0EE811ABCEEE11A80ED001A1168C1F306
:10283000064101EE101AB8EE411A31EE001AC0EE50
:10284000811ABCEEE11A80ED011A1168C1F306612C
:1028500001EE101AB8EE411A31EE000A80EE801A2D
:10286000BCEEC10A80ED020A30BD04E001EE901A10
:10287000DFED092ABAE70021016041608160F3E7DA
:102880002844025800000039404402580024744A89
:102890000090D0030024744C001BB74B2DE9FE4F71
:1028A0000546DFF800A450F8081B0024FD4FC9437B
:1028B000019005F1280026460AF1240A009008013B
:1028C0001DD4686E50B1B0F5801F0CD0B0F5001F5C
:1028D0000ED0B0F5401F1ED001240FE0386840F440
:1028E0000030386017E00198022102F0C3F903E0DC
:1028F0000098022102F04EFA04000CD026462888E7
:10290000C043C00523D4A86D05281ED2DFE800F01F
:102910000C11161B1B006A6EDAF8001021F440112E
:102920001143CAF80010EAE7386840F40030386014
:1029300009E00198002102F09DF903E000980021D0
:1029400002F028FA0446C4B100E001242646288893
:10295000DFF85083C04308F12C0840052FD4D5F888
:10296000A400B0F5C00F28D010DCB8B1B0F5001F3E
:1029700019D0B0F5800F0FD11AE0AA6DDAF8001067
:1029800021F007011143CAF80010E0E7B0F5000F8D
:1029900013D0B0F5200F10D001240FE0386840F4B8
:1029A0000030386009E00198002102F063F903E08B
:1029B0000098002102F0EEF9044694B126462888DA
:1029C000C043000530D4D5F8A800B0F1407F29D02D
:1029D00011DCC0B1B0F1807F1AD0B0F1007F10D10E
:1029E0001BE0D5F8A420D8F8001021F460011143B1
:1029F000C8F80010E3E7B0F1806F13D0B0F1A06F1A
:102A000010D001240FE0386840F40030386009E04D
:102A10000198002102F02EF903E00098002102F055
:102A2000B9F9044694B126462868DFF878B2C04365
:102A30000BF1200B80011FD4E86CD8B110280FD007
:102A4000202812D0302815D0012414E0D5F8A82071
:102A5000D8F8001021F0E0611143C8F80010E3E756
:102A6000386840F40030386004E00198022102F038
:102A700001F9044674B126462888C043C0042BD40B
:102A8000E86DB0F5005F20D00DDCA0B1B0F5805F3F
:102A90000FD115E0EA6CDBF8001021F03001114392
:102AA000CBF80010E8E7B0F5405F13D0B0F5804FE9
:102AB00010D001240FE0386840F40030386009E09D
:102AC0000198002102F0D6F803E00098002102F0FE
:102AD00061F904468CB126462888C043800429D475
:102AE000286EB0F5403F23D010DC08B3B0F5803F2E
:102AF00014D0B0F5003F0FD115E0EA6DDAF8001000
:102B000021F4E0411143CAF80010E5E7B0F5802F49
:102B10000ED0B0F5A02F0BD001240AE001980121BE
:102B200002F0A8F803E00098012102F033F904460E
:102B300094B126462888C04340042AD4D5F8AC0076
:102B4000B0F1405F23D010DC08B3B0F1805F14D047
:102B5000B0F1005F0FD115E02A6EDAF8001021F411
:102B6000E0211143CAF80010E4E7B0F1804F0ED025
:102B7000B0F1A04F0BD001240AE00198012102F02E
:102B800079F803E00098012102F004F9044674B1D9
:102B900026462888C04300041FD4E86ED8B1B0F19F
:102BA000805F0ED0B0F1005F10D0012414E0D5F8A2
:102BB000AC20D8F8001021F0E0411143C8F8001013
:102BC000E7E7386840F40030386004E001980121FC
:102BD00002F050F8044674B126462868C043C0018C
:102BE0001ED4A86CD0B101280ED0022811D0032821
:102BF00014D0012413E0EA6EDAF8001021F04051FD
:102C00001143CAF80010E8E7386840F40030386033
:102C100004E00198022102F02DF804466CB126462A
:102C20002868C043400255D41F48016841F48071B0
:102C30000160FFF7E3FB81460EE0AA6CDBF80010B1
:102C400021F003011143CBF80010E9E7FFF7D6FBB1
:102C5000A0EB090064283BD813480068C005F5D5EF
:102C6000BCBBDFF84090B5F8B01009F14409D9F8C1
:102C7000000001F4407100F44070884211D0D9F88E
:102C80000010D9F8002021F4407142F48032C9F8D4
:102C90000020D9F8002022F48032C9F80020C9F8B9
:102CA000001003E02C44025800480258D5F8B00048
:102CB000B0F5807F19D1FFF7A1FB029011E000BFB2
:102CC000FFF79CFB0299411A41F28830814208D9F2
:102CD000032426462878DFF81494C043C00721D087
:102CE0003CE0D9F800008007EAD5D5F8B010C1F370
:102CF00001200328FE480DD0016821F47C510160B9
:102D0000B5F8B020D9F80010C2F30B021143C9F88E
:102D10000010DFE7F74A036802EA111223F47C513E
:102D20001143ECE7A86F182816D005DCA0B10828DD
:102D300008D0102804D10AE020280DD028280BD074
:102D400001240AE00198012101F094FF03E00098BA
:102D5000012102F01FF8044664B126462878C043DA
:102D600080071ED4686F062819D2DFE800F0160C21
:102D700011161616AA6FD9F8001021F03801114368
:102D8000C9F80010EAE70198012101F073FF03E0A0
:102D90000098012101F0FEFF04467CB100E001240F
:102DA00026462878C04340071FD4D5F8900006284F
:102DB00019D2DFE800F0160C111616166A6FD9F852
:102DC000001021F007011143C9F80010E9E701984C
:102DD000012101F04FFF03E00098012101F0DAFF2B
:102DE0000446A4B100E0012426462878C0438006AA
:102DF0002BD4D5F88C00B0F1405F24D011DC10B397
:102E0000B0F1805F15D0B0F1005F10D116E0D5F8B9
:102E10009020D8F8001021F007011143C8F80010E5
:102E2000E3E7B0F1804F0ED0B0F1A04F0BD00124FA
:102E30000AE00198002101F01DFF03E00098022143
:102E400001F0A8FF044694B126462878C043400606
:102E50002BD4D5F89800B0F5406F24D011DC10B316
:102E6000B0F5806F15D0B0F5006F10D116E0D5F831
:102E70008C20D9F8001021F0E0411143C9F800106E
:102E8000E3E7B0F5805F0ED0B0F5A05F0BD0012472
:102E90000AE00198002101F0EDFE03E00098022114
:102EA00001F078FF044694B126462878C043000616
:102EB0002BD4D5F89C00B0F5C04F24D011DC10B352
:102EC000B0F5005F15D0B0F5804F10D116E0D5F801
:102ED0009820D8F8001021F4E0511143C8F80010F0
:102EE000E3E7B0F5004F0ED0B0F5204F0BD0012432
:102EF0000AE00198002101F0BDFE03E000980221E4
:102F000001F048FF044654B126462878C043000724
:102F10001ED4D5F88000B0F5805F0AD00FE0D5F858
:102F20009C20D8F8001021F460411143C8F800102B
:102F3000EBE70098022101F02DFF00B10126D5F842
:102F40008020D9F8001021F440511143C9F8001035
:102F50002878C043C00613D4D5F89400B0F5807F1C
:102F600005D10098022101F015FF00B10126D5F826
:102F70009420D8F8001021F440711143C8F80010D3
:102F80002868C043000316D4D5F8A00038B1B0F5C6
:102F9000803F09D0B0F5003F0BD001240AE0019832
:102FA000002101F067FE03E00098022101F0F2FE2B
:102FB00004468CB126462868C043400322D4D5F885
:102FC0008400B0F5801F11D0B0F5001F13D0B0F50C
:102FD000401F15D0012414E0D5F8A020D8F8001027
:102FE00021F440311143C8F80010E4E7386840F498
:102FF0000030386004E00098012101F0CBFE044667
:103000005CB126462868C043C0031CD4286D70B14B
:10301000B0F5803F10D0012414E0D5F88420D9F811
:10302000001021F440111143C9F80010EAE7386894
:1030300040F40030386004E00198022101F01AFEEB
:103040000446DCB126462868C043800005D40098B9
:10305000022101F09FFE00B101262868C0438003D1
:103060001BD4E86FB8B1B0F5807F10D0B0F5007F09
:1030700011D0B0F5407F0ED001240DE02A6DDBF8B1
:10308000001021F480311143CBF80010DBE73868E1
:1030900040F4003038607CB326462868C043C00244
:1030A00007D42A6FDAF8001021F000411143CAF862
:1030B00000102868C043800207D4AA6EDAF8001016
:1030C00021F080711143CAF800102868C043400005
:1030D00009D40748016821F4004101600168D5F86E
:1030E000B420114301602868C04306E054440258EC
:1030F00010440258CFFFFF001DE007D46A6DDBF8D3
:10310000001021F040511143CBF800102868C04353
:10311000000208D4D5F88820D9F8001021F4400125
:103120001143C9F8001028790024C04300F00100C1
:10313000204309D00EE0EA6FD9F8001021F4407165
:103140001143C9F80010A8E70198002101F092FD91
:1031500000B106462879C04300F00200204305D1A3
:103160000198012101F086FD00B106462879C0438F
:1031700000F00400204305D10198022101F07AFDFE
:1031800000B106462879C04300F00800204305D16D
:103190000098002101F0FEFD00B106462879C043E9
:1031A00000F01000204305D10098012101F0F2FD4C
:1031B00000B106462879C04300F02000044304D142
:1031C0000098022101F0E6FD00B916B10120BDE82A
:1031D000FE8F0020FBE700002DE9F05F04000F46A2
:1031E0007ED0DFF83882D8F8000000F00F00B84237
:1031F0000CD2D8F8001021F00F013943C8F80010A4
:10320000D8F8000000F00F00B84269D12078844D52
:1032100040070AD52069296801F07001884204D965
:10322000296821F070010143296020787C4E361D09
:1032300000070AD56069316801F07001884204D93D
:10324000316821F07001014331602078C0060AD551
:10325000A069316801F4E061884204D9316821F441
:10326000E061014331602078DFF8B4B180060BF1F2
:10327000080B0CD5E1695846DBF8002002F070021B
:10328000914204D9026822F070020A430260207859
:1032900080070AD5E068296801F00F01884204D947
:1032A000296821F00F01014329602078C0073ED032
:1032B0005B49A2682868183920F4706010432860C0
:1032C0006068022818D0032819D00968012819D08D
:1032D000490700294ADADFF848A1AAF1080A00E004
:1032E00044E0DAF8002022F007020243CAF8002086
:1032F000FFF784F8814612E009688903E9E7096865
:103300008901E6E7C905E4E7FFF778F8A0EB0901D2
:1033100041F28830814202D90320BDE8F09F616804
:10332000DAF8000000F03800B0EBC10FECD12078E3
:1033300080070AD5E068296801F00F01884204D2AD
:10334000296821F00F0101432960D8F80010404698
:1033500001F00F01B9420BD9016821F00F01394387
:103360000160006800F00F00B84201D00120D4E7EE
:10337000207840070AD52069296801F07001884249
:1033800004D2296821F070010143296020780007E8
:103390000AD56069316801F07001884204D2316851
:1033A00021F07001014331602078C0060AD5A06980
:1033B000316801F4E061884204D2316821F4E061AF
:1033C00001433160207880060CD5E1695846DBF86E
:1033D000002002F07002914204D2026822F07002D2
:1033E0000A43026000F09AF80E492A682B68C2F37B
:1033F000032203F00F038A5CC95C02F01F0201F094
:103400001F01D040084A20FA01F111600749086005
:1034100007480068BDE8F05FFFF72CB800200052B5
:103420001844025828840008100000240C000024CE
:103430000400002470B5144C3F220260124A246834
:103440000832131D114D04F00704446016681C1D5A
:1034500006F470668660166806F00F06C66012688D
:1034600002F0700202611A6802F0700242611A688A
:1034700002F4E0628261226802F07002C261286890
:1034800000F00F00086070BD104402580020005288
:1034900030B500F043F80B4A0B490C4B1568146823
:1034A000C5F3032204F00F048A5C095D02F01F02D9
:1034B00001F01F01D040064A20FA01F119601060A6
:1034C000084630BD18440258288400081000002423
:1034D0000C00002400B5FFF7DBFF05490968054A29
:1034E000C1F30211515C01F01F01C84000BD000092
:1034F0001C4402582884000800B5FFF7C9FF05499D
:103500000968054AC1F30221515C01F01F01C8405E
:1035100000BD00001C44025828840008454970B5CD
:1035200045480968434B103B11F0380208D001119F
:10353000082A03D0102A0BD0182A0BD0084670BDD9
:1035400019688906FBD51968C1F3C101C84070BD6F
:103550003A4870BD3749374D18310C1D24350A687B
:10356000096826682D6802F0030406F00102C1F321
:103570000511C5F3CC0515FB02F200EE102AB8EEDA
:10358000400AE9B32F4ADFED2E0AB7EE001A6CB1FC
:10359000DFED2D1A012C01D0022C43D002EE101ABF
:1035A0001068F8EE422A81EEA22A1EE01C68A406EA
:1035B00011D51B6801EE901A1168C3F3C103F8EE30
:1035C000612AD84001EE900AC1F30800F8EE611AB2
:1035D00081EEA22A0BE001EE901ADFED1C2A00BF5B
:1035E000F8EE611A106882EEA12AC0F3080001EE1D
:1035F000900AF8EE611A40EE201A31EE810A00E0DE
:1036000015E022EE000A1068C0F34620401C00EED0
:10361000900AF8EE600A80EE201ABCEEC10A10EEA5
:10362000100A70BD01EE901ADFED092AD8E70020DC
:1036300070BD0000104402580090D00300366E01A7
:1036400000000039304402580024744A0024744CAD
:10365000001BB74B2DE9F05F04007DD0FF4F2078B1
:10366000FE4D1837DFF8F483103DC00748D0D8F876
:103670000000396800F03800102815D0182803D150
:1036800001F0030002280FD06068B0F5803F12D02F
:1036900010B1B0F5A02F18D0286820F48030286031
:1036A000286820F4802009E02868800328D5606815
:1036B0000028D2D024E0286840F480302860606878
:1036C00088B1FEF79BFE064609E0286840F480209A
:1036D0002860F0E7FEF792FE801B64287ED82868F9
:1036E0008003F7D50CE0FEF789FE064605E000BF33
:1036F000FEF784FE801B6428F0D828688003F7D486
:103700002078800756D5D8F80000DFF85093396844
:1037100010F03800A9F10C090ED0182801D1880743
:103720000AD0E068A8B3296821F019010143296093
:10373000FEF764FE064628E02868400702D5E068E8
:1037400000288AD0E168286820F019000843286022
:10375000FEF754FE064606E0D2E000BFFEF74EFE3E
:10376000801B0228BAD828684007F7D5217CD9F8F1
:10377000002022F0FE4242EA0161C9F8001019E07F
:10378000FEF73CFE801B0228A8D828684007F7D522
:10379000ECE7FFE7286820F001002860FEF72EFE26
:1037A000064604E0FEF72AFE801B022896D8286809
:1037B0004007F7D42078C00646D5D8F80000DFF8D7
:1037C0009C92396800F03800A9F10409082812D049
:1037D000182805D101F00300012800E0CEE00AD04E
:1037E000E0690028286820D040F080002860FEF7BB
:1037F00005FE064615E02868C00502D5E069802868
:103800007ED194F82010D9F8002022F07C5242EAB0
:103810000161C9F8001017E0FEF7F0FD801B0228D7
:10382000A0D82868C005F7D5EBE720F08000286015
:10383000FEF7E4FD064604E0FEF7E0FD801B0228EB
:1038400090D82868C005F7D42078000729D5834888
:103850006169643000298146016811D041F001019D
:103860000160FEF7CBFD064605E000BFFEF7C6FD92
:10387000801B022888D8D9F800008007F6D510E010
:1038800021F001010160FEF7B9FD064605E000BF29
:10389000FEF7B4FD801B022870D8D9F8000080071D
:1038A000F6D42078800623D5A0690028286810D097
:1038B00040F480502860FEF7A1FD064605E000BFF9
:1038C000FEF79CFD801B022858D828688004F7D595
:1038D0000EE020F480502860FEF790FD064604E0DC
:1038E000FEF78CFD801B022848D828688004F7D496
:1038F0002078400751D5DFF86891D9F8001000E032
:1039000015E141F48071C9F80010FEF777FD064615
:1039100005E000BFFEF772FD801B64282ED8D9F8A1
:103920000000C005F6D54D4EA068603601280AD0CB
:1039300008B1052813D0306820F0010030603068ED
:1039400020F0040002E0306840F001003060A06820
:1039500041F2883A98B1FEF751FD81460AE030689D
:1039600040F004003060EEE7FEF748FDA0EB0901EF
:10397000514503D830688007F6D50EE072E0FEF7B7
:103980003DFD814606E000BFFEF738FDA0EB0901D2
:10399000514567D830688007F6D4606A00287CD02B
:1039A000DFF8B8A0D8F800100AF1200A4FF6F87B2B
:1039B0000AF10408C1F3C2010329AAF104096DD078
:1039C0000228286820F08070286003D0FEF716FDDA
:1039D000044681E0FEF712FD064604E0FEF70EFD08
:1039E000801B022875D828688001F7D4E26A40F26B
:1039F000F331386854F8283F884340EA02101843EE
:103A00003860217B4FF4FE0C22894FF0FE47208A5C
:103A10004902267D521E401EA1F5007189B2C2F3F3
:103A200008021143761E0CEA00400143484607EAAB
:103A300006621143CAF80010D9F8001021F0010104
:103A4000C9F80010D8F80030266A23EA0B0343EACD
:103A5000C601C8F80010D9F8001004E0104402585C
:103A60000048025835E0A26921F00C011143C9F861
:103A700000100168E26921F0020111430160016850
:103A800041F480310160016841F400310160016856
:103A900041F480210160016801E06CE020E041F028
:103AA00001010160286840F080702860FEF7A6FCE4
:103AB000044604E0FEF7A2FC001B022809D828688F
:103AC0008001F7D557E000BFFEF798FC001B0228E5
:103AD00002D90320BDE8F09F28688001F4D44AE0B1
:103AE00039680128DAF8000021D0A26A01F0030346
:103AF00093421CD1E26AC1F305118A4217D1216BAE
:103B0000C0F30802491E8A4211D1616BC0F34622FC
:103B1000491E91420BD1A16BC0F30642491E91424E
:103B200005D1E16BC0F30660491E814201D001203E
:103B3000D0E7A16C4646D8F80000C0F3CC00814223
:103B400019D0D9F800004D4620F00100C9F8000056
:103B5000FEF754FC4FEA0007FEF750FCB842FBD0DA
:103B6000A26C306820EA0B0040EAC200306028688E
:103B700040F0010028600020ACE770472DE9F047D5
:103B800004460068002103694269876894F88160EF
:103B900000F130095FEA025C03EA02050AD51A0760
:103BA00008D5816941F400618161204600F04FFA37
:103BB000BDE8F08715F0600F08D1680706D5616F82
:103BC00020468847216F20468847012105F04100A3
:103BD000012805D1680703D4216F204688470121B9
:103BE00005F02200022806D1680704D4616F204640
:103BF000BDE8F04708470029DAD128074FF001084F
:103C00005BD52068816941F0080181612068816984
:103C100041F0100181612068816941F40061816196
:103C20002068016921F0080101612068806810F4B2
:103C3000404F20D023E0E0680F2806D92068616E4D
:103C4000006B0860606E001D0FE0072806D9B9F808
:103C50000000616E0880606E801C06E02068616E66
:103C600090F830000870606E401C6066B4F86A001E
:103C7000401EA4F86A00B4F86A000028DBD1204690
:103C800001F01EF984F88180D4F8840018B1204630
:103C9000FFF773FF8CE7052E07D0042E09D0032E03
:103CA00086D1204600F0D4F982E7204600F0D1F911
:103CB0007EE7204600F0CAF97AE715F4587FE9D08C
:103CC00068060AD5D4F8840040F00400C4F88400E3
:103CD0002068816941F040018161A8050AD5D4F8C6
:103CE000840040F00100C4F884002068816941F438
:103CF00000718161E8050AD5D4F8840040F008001D
:103D0000C4F884002068816941F480718161A8064B
:103D10000AD5D4F8840040F08000C4F884002068FC
:103D2000816941F020018161D4F884000028B1D07C
:103D3000206840F26B32C7F381310368032923F016
:103D4000010101602068016921EA0201016102D0DC
:103D500084F881809BE72068104D816821F4404100
:103D60008160E06F50B10565E06FFDF73DF828B167
:103D7000D4F8840040F04000C4F88400A06F00280C
:103D800088D00565A06FFDF72FF800288CD0D4F8F7
:103D9000840040F04000C4F8840009E77D4F00082B
:103DA0002DE9F047040029D0594A4FF00009206856
:103DB000584B594D9042C4F8289006D0984204D0F0
:103DC000A84202D0E1680F2918D8E1684FF0010A33
:103DD000E76B0831C9080AEB57167143904205D0CA
:103DE000984203D0A84201D0082907D8904203D0B6
:103DF000984201D0A84204D1102902D90120BDE87F
:103E0000F08794F8810020B9204684F8809000F073
:103E100085F8022084F881002068016821F0010102
:103E200001602068A1698268B1F1806F02F4F81125
:103E300010D16268B2F5800F01D01AB10AE0A26B0E
:103E400022B107E0A26BB2F1805F03D1026842F4B5
:103E5000805202606068400209D5E068072806D3F6
:103E60002068236D026822F480721A4303E0206800
:103E7000026822F480720260A66AE069E26B25683B
:103E80003043E3680A4310431843A860D4E90D02A5
:103E9000D4E90581636A25691843D4F820C00A4330
:103EA000266810432843A56DD4E90172D4E9123184
:103EB00040EA080040EA0C00384308431043184326
:103EC0002843F060606868B92068816821F4C051B7
:103ED00041F4006181602068816821F4C06141F48F
:103EE000806181602068016D21F0010101656068D9
:103EF000400206D52068626DC16821F0004111437F
:103F0000C160C4F8849084F881A0002077E70000A5
:103F10000030014000380040003C00402DE9F041F5
:103F2000B4B0074614212EA8FCF751FCB82168460E
:103F3000FCF74DFC3F493868884277D18114002056
:103F400017900446CDE900106846FEF7A7FC08B1BB
:103F5000FCF743FE3848016841F480410160006885
:103F600000F48040339034480838016841F004017F
:103F70000160016801F004013391016841F0020120
:103F800001600068022503264FF0050800F00200DA
:103F90000621CDE92E15CDE9328028482EA9CDE99C
:103FA0003046FEF717F92903254830AACDE92E152A
:103FB0002EA982E85001FEF70DF9224E4FF48068D9
:103FC00021492722304631604FF44031C6E90124AF
:103FD000C6E903487461B461C6E907417462FDF73C
:103FE000B9FB08B1FCF7F9FD164D4023164928220C
:103FF0007835FE671831B76302C5D902281F85E8F6
:104000001C012C616C61C5E906412C622D1FFDF776
:10401000A1FB08B1FCF7E1FDBD6700220521AF63FC
:104020002420FEF789FA2420FEF778FA34B0BDE8A0
:10403000F081000000380040E844025800080258AF
:1040400000040258AC020024100002407047704780
:1040500070477047024A136883430B4313607047ED
:1040600004040058401EB0F1807F10B501D3012038
:1040700010BD4FF0E02460610F21601701F05DFE7C
:104080000020A0610721216110BD70477047704773
:10409000F0B590F83C20012A41D0224E012480F84E
:1040A0003C40022280F83D2002681F4D5368B24216
:1040B000D2F808C001D0AA4203D14F6823F470039C
:1040C0003B430F6823F070031F4357600268B242FE
:1040D00019D0B2F1804F16D0144B9A4213D0144B22
:1040E0009A4210D0134B9A420DD0AA420BD0124BD9
:1040F0009A4208D0114B9A4205D0114B9A4202D0F5
:10410000104B9A4204D189682CF0800319439160C6
:10411000002180F83D4080F83C100846F0BD0220A8
:10412000F0BD000000000140000401400004004018
:1041300000080040000C0040001800400040014012
:1041400000E0004000E4004010B5040003D094F803
:104150003D0010B107E0012010BD002084F83C00B4
:10416000204600F022F8022084F83D002068211D3E
:1041700001F076F8012084F8480084F83E0084F8C5
:104180003F0084F8400084F8410084F8420084F83D
:10419000430084F8440084F8450084F8460084F81D
:1041A000470084F83D00002010BD704790F83D1096
:1041B000012901D0012070471A4A022180F83D10E0
:1041C0000168CB6843F00103CB60006890421AD0CD
:1041D000B0F1804F17D01449884214D01349884257
:1041E00011D0134988420ED0124988420BD012498F
:1041F000884208D01149884205D01149884202D02E
:104200001049884207D181680F4A1140062906D01B
:10421000B1F5803F03D0016841F001010160002049
:10422000704700000000014000040040000800400A
:10423000000C004000040140001800400040014014
:1042400000E0004000E400400700010070472DE955
:10425000F041044600680027C6680569A90713D520
:10426000B10711D5FA1E026101212177206880690A
:104270008007204602D0FFF7E9FF04E000F0B4F821
:10428000204600F089F92777680716D5700714D5FE
:10429000226802206FF00401116120772068806994
:1042A00010F4407F204602D0FFF7D0FF04E000F07A
:1042B0009BF8204600F070F92777280715D53007BE
:1042C00013D5226804206FF008011161207720685F
:1042D000C0698007204602D0FFF7B8FF04E000F075
:1042E00083F8204600F058F92777E80616D5F0063F
:1042F00014D5226808206FF0100111612077206822
:10430000C06910F4407F204602D0FFF79FFF04E011
:1043100000F06AF8204600F03FF92777E80708D058
:10432000F00706D021686FF001000861204600F018
:1043300034F9280601D4A80408D5300606D521682A
:104340006FF4025008612046FFF7A0FEE80508D58B
:10435000300606D521686FF4807008612046FFF7AB
:1043600094FE680608D5700606D521686FF04000F7
:104370000861204600F018F9A8060AD5B00608D54D
:1043800021686FF0200008612046BDE8F041FFF78A
:104390007EBEBDE8F081000010B586B00446142151
:1043A0006846FCF714FA0D492068884213D10C487E
:1043B000016841F0020101600068002100F0020084
:1043C000059002200090CDE90101CDE903100548D8
:1043D0006946FDF7FFFE06B010BD00000004004076
:1043E000E044025800040258704770B5044690F843
:1043F0003C0000260D4601280BD0012084F83C002B
:104400000C2A4AD007DC82B1042A20D0082A06D11F
:1044100031E0022070BD102A53D0142A63D0012647
:10442000002084F83C00304670BD206800F088FF12
:104430002068816941F0080181612068816921F06B
:104440000401816120682A698169114311E02068B3
:1044500000F0C8FF2068816941F400618161206833
:10446000816921F48061816120682969826942EA59
:1044700001218161D4E7206801F000F82068C1695A
:1044800041F00801C1612068C16921F00401C161E6
:1044900020682A69C169114311E0206801F03AF8E7
:1044A0002068C16941F40061C1612068C16921F4DB
:1044B0008061C16120682969C26942EA0121C16144
:1044C000AEE7206801F062F82068416D41F0080114
:1044D00041652068416D21F00401416520682A6929
:1044E000416D114311E0206801F08AF82068416DA8
:1044F00041F4006141652068416D21F480614165AE
:1045000020682969426D42EA0121416588E710B5BA
:10451000040003D094F83D0010B107E0012010BD65
:10452000002084F83C00204600F022F8022084F8A5
:104530003D002068211D00F093FE012084F8480012
:1045400084F83E0084F83F0084F8400084F841007D
:1045500084F8420084F8430084F8440084F845005D
:1045600084F8460084F8470084F83D00002010BD20
:1045700008B500680649884208D10648016841F03C
:1045800002010160006800F00200009008BD000018
:1045900000040040E844025870470068B0F1804FC2
:1045A00001D1FDF731BF7047704730B590F88410E6
:1045B000012918D0012280F884202421C0F8881015
:1045C0000022202401680B680D6823F0005325F0B9
:1045D00001050D60426601680B60C0F8884080F8F4
:1045E0008420104630BD022030BD70B5044690F8DE
:1045F000840001281DD0012284F884202420C4F8DE
:10460000880020680568026822F0010202602068C4
:10461000826822F060620A438260204601F02AF834
:104620002268202100201560C4F8881084F88400D6
:1046300070BD022070BD70B5044690F8840001285A
:104640001DD0012284F884202420C4F8880020682A
:104650000568026822F0010202602068826822F088
:1046600060420A438260204601F004F8226820215B
:1046700000201560C4F8881084F8840070BD022002
:1046800070BD10B5040003D0D4F8880010B107E065
:10469000012010BD002084F88400204600F026F898
:1046A0002420C4F888002068016821F0010101601D
:1046B000A06A10B1204600F0FFFF204601F0E0F8AC
:1046C0000128E6D02068416821F4904141602068CB
:1046D000816821F02A0181602068016841F00101B0
:1046E00001602046BDE8104001F04AB810B5B4B0F2
:1046F000044614212EA8FCF76AF8B8216846FCF796
:1047000066F81D492068884233D100201E9001219F
:104710000446CDE900106846FEF7C0F808B1FCF782
:104720005CFA1648016841F010010160006800F071
:104730001000339011481038016841F00101016008
:1047400000682EAB022100F0010033904FF4C060EE
:10475000072283E813000A482EA9CDE93142FDF76C
:1047600039FD002225201146FDF7E6FE2520FDF744
:10477000D5FE34B010BD000000100140F0440258D6
:10478000000002582DE9F8430446D0F88800984606
:1047900016460D46202802D00220BDE8F883A5B1B8
:1047A0009EB10021C4F890102120C4F8880018346C
:1047B000FDF724FE814654F8100CA687E6872027D3
:1047C000183CB0F5805F02D003E00120E5E72069E6
:1047D00010B12E46002510E000260EE08021204674
:1047E00001F03CFAC0B9DEB116F8010B216888620D
:1047F000B4F85600401EA4F85600B4F856004B46D4
:104800004FF00002CDF800800028E7D14FF04001C2
:10481000204601F023FA48B1C4F888700320BCE7B1
:1048200035F8020B2168C0F30800E0E7C4F888708F
:104830000020B2E70D4808B5016841F001010160B0
:1048400000680022062100F0010000900B20FDF717
:1048500073FE0B20FDF762FE002206210C20FDF7FF
:104860006BFEBDE808400C20FDF758BED844025846
:10487000184800212DE9F041154F012681600524DB
:1048800007600423C16013250174082241748174F8
:10489000C0E90536C0E90754C562C0E90C4184632C
:1048A000C0E90936C0E91121C0E90F43C0E913216D
:1048B000C0E91531C0E91712C0E91912FDF7BCFAB9
:1048C000002803D0BDE8F041FCF787B9BDE8F081CE
:1048D00000A00040440000241A48002170B5184E82
:1048E00000F1140C8160052206600124C1600E25D0
:1048F000017440F256364174042381748CE834000C
:104900000262243080E83400C0E9032603620824F0
:104910004261C0E90621C0E909340622C0E90B134F
:104920004163C0E90E13C0E910122438FDF784FA80
:10493000002803D0BDE87040FCF74FB970BD0000FF
:1049400000A40040E40000241B4800212DE9F041B0
:10495000184E00F114078160052206600124C16031
:104960000E25017440F2AD6641740423817487E81A
:10497000340002622430022780E83400C0E90326B4
:104980004261C0E906270322C0E90831C0E90A31C3
:10499000C0E90C31C0E90E12C0E910132438FDF74C
:1049A0004BFA002803D0BDE8F041FCF716B9BDE88A
:1049B000F081000000D40040840100242DE9F0477C
:1049C00086B014216846FBF702FF4448016841F0B5
:1049D00004010160016801F004010591016841F0E2
:1049E00080010160016801F080010591016841F0DA
:1049F00001010160016801F001010591016841F0C8
:104A000002010160016801F002010591016841F0B5
:104A100010010160016801F010010591016841F089
:104A20000801016000684FF4C046DFF8B48000223E
:104A300000F00800314605904046FDF7D9FC012200
:104A400040460921FDF7D4FCDFF8989001220421AB
:104A50004846FDF7CDFCDFF890A04FF4085701223F
:104A600039465046FDF7C4FC0025009601246946EE
:104A70004046CDE901450395FDF7ACFB03266946A9
:104A800009208DE871004046FDF7A4FBCDE9004503
:104A9000694648460294FDF79DFB04206946CDE92E
:104AA0000004CDE902464846FDF794FBCDE90074C9
:104AB000CDE9024669465046FDF78CFBF9014FF4FB
:104AC000A0508DE8230069465046FDF783FB002186
:104AD000E006FFF7BFFA06B0BDE8F087E0440258F1
:104AE0000008025800000258001002582DE9F04159
:104AF000164807264FF08042DFF84CC000215511C0
:104B000005611311C0E90216C0E9072141621712BD
:104B100081629411C162C0E90D21C16301644164E5
:104B20008164C164016541658165C0E90543C0E9EF
:104B300000C7FFF735F9002803D0BDE8F041FCF7C6
:104B40004CB8BDE8F0810000003800402402002489
:104B500030B58BB0002468461C2107940894099452
:104B6000FBF735FE164842F20F721723134D8021D2
:104B7000C0E9024204618161C0E90053FFF7C7FC4C
:104B800008B1FCF72AF80E4807A907940994FFF723
:104B90007FFA08B1FCF721F860206946CDE90004EE
:104BA00007480C2202940494FFF71FFC08B1FCF79D
:104BB00014F80348FFF7F0FB0BB030BD00040040D1
:104BC0009C0300241848002110B5164C0C224FF409
:104BD000E1330460C0E90131C160C0E904128161C0
:104BE000C161016241628162FFF74BFD08B1FBF7D1
:104BF000F4FF0D480021FFF71EFD08B1FBF7EDFFA4
:104C000009480021FFF7F1FC08B1FBF7E6FF064871
:104C1000FFF7CBFC002803D0BDE81040FBF7DDBF59
:104C200010BD000000100140E8030024FEE770B54D
:104C3000AEB0B8216846FBF7CAFD00231824194618
:104C40004FF4004202208DE81C00C82506ABCDE9D8
:104C500003502026059083E84300020768461B9214
:104C60000991FDF71BFE002801D072B6FEE72EB0B9
:104C700070BD00002DE9F047454D044689464FF0D0
:104C8000000A2868C04380070AD0414E283E306899
:104C900020F080603060FDF7B1FB0746B04608E0C9
:104CA0000120BDE8F08700BFFDF7A8FBC01B02286C
:104CB00067D8D8F800000001F6D4206829684FF4BE
:104CC000FE0721F47C313E0241EA00302860207A60
:104CD000A389B4F804C040022D4D2D495B1E227CEF
:104CE000ACF1010C1035091DA0F5007080B2521E08
:104CF000CCF3080C07EA034340EA0C00184306EA29
:104D00000262104328600868626920F0C000104306
:104D100008600A68A06922F0200202430A60281D88
:104D20000A6822F010020A6002684FF6F873E4691C
:104D30009A4342EAC40202600868B9F1000F40F0E9
:104D400010020A6011D00868B9F1010F11D040F4C7
:104D500000100860D8F80000444640F08060C8F8B1
:104D60000000FDF74BFB05460DE0086840F400200D
:104D7000EFE740F48010ECE7FDF740FB401B022812
:104D800001D903208DE720680001F5D5504688E75A
:104D9000284402582DE9F047454D044689464FF016
:104DA000000A2868C04380070AD0414E283E306878
:104DB00020F080503060FDF721FB0746B04608E048
:104DC0000120BDE8F08700BFFDF718FBC01B0228DB
:104DD00067D8D8F800008000F6D4208829684FF4FE
:104DE000FE0721F07C713E0241EA00502860207AE3
:104DF000A389B4F804C040022D4D2D495B1E227CCE
:104E0000ACF1010C1835091DA0F5007080B2521EDE
:104E1000CCF3080C07EA034340EA0C00184306EA07
:104E20000262104328600868626920F44060104301
:104E300008600A68A06922F4007202430A60281D13
:104E40000A6822F480720A6002684FF6F873E46917
:104E50009A4342EAC40202600868B9F1000F40F4C4
:104E600080720A6011D00868B9F1010F11D040F0CA
:104E700080700860D8F80000444640F08050C8F8C0
:104E80000000FDF7BBFA05460DE0086840F480001D
:104E9000EFE740F40000ECE7FDF7B0FA401B022812
:104EA00001D903208DE720688000F5D5504688E7BA
:104EB000284402580148FEF761BE00002402002485
:104EC00010B5026840F26F335169946944F00804E8
:104ED00094610268946944F0100494610268146853
:104EE00024F001041460026814699C431461026890
:104EF000936823F44043936090F88120042A0CD0F7
:104F00008A060AD5D0F8842042F08002C0F88420B6
:104F10000268936943F02003936190F88120032A8B
:104F20000CD04A060AD5D0F8842042F00402C0F81A
:104F300084200268936943F0400393618A050AD58F
:104F4000D0F8842042F00102C0F8842002689369FE
:104F500043F400739361C9050AD5D0F8841041F079
:104F60000801C0F8841001688A6942F480728A617D
:104F70000021A0F86210A0F86A1010BD10B5806B77
:104F800000210122A0F86A10A0F8621080F88120A8
:104F9000FEF7F3FD10BD10B502F09CF902F048FEDB
:104FA000BDE8104002F0A4B930B59DB04C21684670
:104FB000FBF70DFC202113A8FBF709FC0220FDF7ED
:104FC000EDFA1D48016821F44041016001680024A8
:104FD00001F440411B9101688904FCD502200A902C
:104FE00028230990C20301210C25CDE90012CDE947
:104FF0000B03CDE90D10CDE910540F9068461294C3
:10500000FEF728FB08B172B6FEE740201A9008238D
:105010000501CDE9163013ABCDE918053F21032278
:1050200083E8160013A81146FEF7D6F8002801D031
:1050300072B6FEE71DB030BD18480258454870B53D
:10504000444B0168103B444811F0380105D0082951
:1050500008D0102908D0182908D01968C1F3C10157
:10506000C84063E03D4861E03D485FE03949394D63
:1050700018310C1D24350A68096826682D6802F06D
:10508000030406F00102C1F30511C5F3CC0515FBBD
:1050900002F200EE102AB8EE400AC9B3324ADFED40
:1050A000310AB7EE001A1CB1012C13D0022C30D0FB
:1050B0001B6801EE901A1168C3F3C103F8EE612A70
:1050C000D84001EE900AC1F30800F8EE611A81EEB3
:1050D000A22A04E001EE901ADFED242A1DE001EE81
:1050E000900A1068F8EE611A40EE201A31EE810A3B
:1050F00022EE000AC0F34620401C00EE900AF8EEB3
:10510000600A80EE201ABCEEC10A10EE100A0DE013
:105110000BE001EE901ADFED162A1068F8EE611A26
:10512000C0F3080082EEA12AD9E700200949114BFB
:105130000831114A0C680D68C4F3032105F00F040F
:10514000595C1B5DC84003F01F0120FA01F1C2E960
:10515000000170BD104402580090D00300093D00CA
:1051600000366E0100000039304402580024744AB1
:10517000001BB74B288400080C0000242D48F0B514
:105180002D4A016841F470010160106800F00F00C1
:10519000072804D2106820F00F00C01D10602749B6
:1051A0000020264C10340B68254D43F001030B60A2
:1051B00020600B682B400B60136803F00F03072B74
:1051C00004D9136823F00F03DB1D13601B4C1D4A29
:1051D00018341D4B261D371D2060184C1B4D2834DC
:1051E0003060261D3860371D23603B1D35601C1D57
:1051F0003A60251D2E1D1860331D22602860326024
:1052000018600B680D4A0D4C23F48023D4320B60D8
:10521000603420601068C0040BD4136843F2D200DD
:105220000B4943F4805313600860106820F48050E9
:105230001060F0BD88ED00E00020005200440258EC
:105240007FEDF6EA80020101000202020000FF0188
:10525000004000520148FEF7FABF00007C04002421
:105260002DE9F0472C4B4FF0804A2C4D02689842B4
:105270002B4E2C4F2C4C09D0504507D0A84205D0BE
:10528000B04203D0B84201D0A04205D1D1F804C049
:1052900022F070024CEA0202DFF890C0DFF8908042
:1052A0009842DFF8909015D0504513D0A84211D005
:1052B000B0420FD0B8420DD0A0420BD0604509D00B
:1052C000404507D0484505D01B4DA84202D01B4D94
:1052D000A84203D1CD6822F440722A438E684D69FA
:1052E00022F08002C6620E682A439842866207D086
:1052F000A04205D0604503D0404501D0484501D1CA
:10530000096901630368012143F0040303604161FB
:105310000260BDE8F087000000000140000400408A
:1053200000080040000C0040000401400040014023
:10533000004401400048014000E0004000E400401B
:105340002DE9F04FDFF88480214EDFF88890DFF8F8
:1053500088B0026A036AB042DFF880A022F0020C33
:105360001F4F23F001020262426885698B680C6856
:1053700005EA080525F0030543EA0C0344EA0504A1
:1053800007D0484505D0584503D0504501D0B84214
:1053900005D1CD6823F008031D4325F00403B04276
:1053A00007D0484505D0584503D0504501D0B842F4
:1053B00005D122F44076D1E9055235432A434260B3
:1053C0008461496841630362BDE8F08F8FFFFEFF8F
:1053D0000000014000040140004001400044014041
:1053E00000480140F0B5DFF87CE01F4C1F4D026A19
:1053F000036AA04222F0200623F0100303624268F1
:105400008369D1F808C00F6803EA0E0323F4407ED5
:1054100046EA0C134EEA072601D0A84206D1CF680F
:1054200023F0800343EA071323F04003A0420AD08D
:10543000A84208D00E4CA04205D00E4CA04202D08B
:105440000D4CA04207D1D1E9054522F4406242EA61
:10545000840242EA85024260866149688163036290
:10546000F0BD0000FF8FFFFE00000140000401407E
:10547000004001400044014000480140F0B5DFF821
:105480007CE01F4D1F4E026A036AA84222F4007797
:1054900023F4807303624368C269D1F808C002EA4A
:1054A0000E020C6822F0030E47EA0C2244EA0E04B6
:1054B00001D0B04206D1CF6822F4006242EA07224E
:1054C00022F48062A8420AD0B04208D00E4DA84211
:1054D00005D00E4DA84202D00D4DA84207D1D1E90A
:1054E000055623F4405343EA051343EA0613436089
:1054F000C4614968C1630262F0BD00008FFFFEFF16
:10550000000001400004014000400140004401400F
:1055100000480140F0B5046A026A22F48052026237
:105520004268C36924F40054DFF848C08E680D68EF
:1055300003EA0C03104F23F4407344EA0634B842E4
:1055400043EA05230BD00D4DA84208D00C4DA842CC
:1055500005D00C4DA84202D00B4DA84204D14D6994
:1055600022F4804242EA85124260C36149680164C4
:105570000462F0BDFF8FFFFE000001400004014007
:10558000004001400044014000480140F0B5164F82
:10559000164B026A046A984222F4003524F48033E0
:1055A00003624268436D0E890C6803EA070344EA0C
:1055B000030445EA06430BD00D4DA84208D00D4D1B
:1055C000A84205D00C4DA84202D00C4DA84204D1EF
:1055D0004D6922F4803242EA0522426044654968FE
:1055E00081650362F0BD00008FFFFEFF00000140F7
:1055F00000040140004001400044014000480140D7
:10560000F0B5164F164B026A046A984224F48013D0
:10561000036222F400144268436D0E890D6803EAA8
:10562000070344EA065443EA05230BD00D4DA84274
:1056300008D00D4DA84205D00C4DA84202D00C4D0B
:10564000A84204D14D6922F4802242EA85224260B8
:1056500043654968C1650462F0BD0000FF8FFFFE2D
:1056600000000140000401400040014000440140AE
:105670000048014030B5416EB9B101680D4B03F1EE
:1056800008048A688968C2F34262490F5D5C615C04
:105690002D01B5FBF1F1A0F86A10995CA25C09013B
:1056A000B1FBF2F1A0F8681030BD0121A0F86A103A
:1056B000F8E700001884000890F82810090706D5BC
:1056C0000168836B4A6822F400421A434A6090F8EA
:1056D0002810C90706D00168C36A4A6822F400325C
:1056E0001A434A6090F82810890706D50168036BB1
:1056F0004A6822F480321A434A6090F82810490719
:1057000006D50168436B4A6822F480221A434A6036
:1057100090F82810C90606D50168C36B8A6822F480
:1057200080521A438A6090F82810890606D50168CD
:10573000036C8A6822F400521A438A6090F8281099
:10574000490611D50168436C4A6822F480121A4355
:105750004A60416CB1F5801F06D10168836C4A68CC
:1057600022F4C0021A434A6090F82810090606D5B0
:105770000168C26C486820F40020104348607047FC
:105780002DE9F84300250446C0F89050FCF736FE9A
:105790008046206820266FF07E470068000713D5FA
:1057A0000022434631042046009700F057FA58B1D2
:1057B000216851E8000F20F0800041E80002002A33
:1057C000F6D1C4F8886021E020680068400722D53F
:1057D000002243464FF480012046009700F03EFA35
:1057E000C8B1206850E8001F21F4907140E8001211
:1057F000002AF6D12068083050E8001F21F001018E
:1058000040E80012002AF5D1C4F88C60032084F827
:105810008450BDE8F883C4F88860C4F88C60E566FD
:105820002567002084F88450F3E7000010B5026873
:1058300052E8001F21F4907142E80013002BF6D1CA
:105840000E4B0268083252E8001F194042E800146B
:10585000002CF6D1C16E012908D1026852E8001F60
:1058600021F0100142E80013002BF6D10021202284
:10587000C0F88C20C166416710BD0000FEFFFFEF3D
:105880002DE9F04304468068E24E87B0E24B216880
:10589000D4E90427D4F81CC010430A68002547EA5D
:1058A0000C073843324002430A602068E2684168CE
:1058B00021F44051114341602268A1699A4201D00C
:1058C000206A01439668DFF854C3D54FD54806EAED
:1058D0000C060E4396602168666ACA6A22F00F02BF
:1058E0003243CA622268BA420ED1006800F0380022
:1058F00018286FD07ADCB8B308286CD010286BD188
:105900008BE0282868D18EE0C7498A4209D1006817
:1059100000F0070006285FD2DFE800F0507D7F81AD
:105920008385C2498A4209D1006800F00700062831
:105930007BD2DFE800F0437072747678BC498A420B
:1059400009D1006800F0070006286ED2DFE800F0F9
:1059500036636567696BB7498A420BD1006800F00E
:105960000700062861D200E043E0DFE800F027549A
:1059700056585A5CB0498A4206D1006800F0380097
:1059800018284CD0B7DD31E0AC498A4209D1006813
:1059900000F00700062848D2DFE800F0103D3F4144
:1059A0004345A7498A420BD1006800F0070006284A
:1059B0003BD2DFE800F0033032343638002035E0E7
:1059C000A0498A4209D1006800F03800182826D082
:1059D00091DD0BE023E01EE027E09B498A420AD1DB
:1059E000006800F03800182819D084DD202888D1FC
:1059F0001CE001201AE09A4217D18A48001D006875
:105A000000F00700062810D2DFE800F003050709C0
:105A10000B0D02200AE0042008E0082006E0102018
:105A200004E0202002E0402000E080208749DFF8E9
:105A300020829A42874A4FF400434FEA21174FF0E1
:105A400000064ED110281AD006DC022809D00428FE
:105A50000BD008287ED10DE020283ED0402879D1F7
:105A60003DE0FCF7C5FD014610E06846FCF7D2FDBD
:105A700001990BE003A8FCF76FFE049906E010689B
:105A8000800605D51068C0F3C100C140002970D060
:105A9000606A676838F8102007EB4703B1FBF2F043
:105AA000834257D8B0EB073F54D800230846194625
:105AB000FAF71EFD02467808130E120243EA01218E
:105AC00010183A4671410023FAF712FD624AA0F518
:105AD000407191423ED821688FE03946D8E7194697
