:020000040800F2
:10000000500E00208903000839630008B904000875
:10001000B9040008B71D0008FD73000800000000C7
:100020000000000000000000000000009F03000826
:10003000E91F000800000000FF030008A366000895
:10004000A7030008A7030008A7030008A7030008E8
:10005000A7030008A7030008A7030008A7030008D8
:10006000A7030008A7030008A7030008B91D00089C
:10007000C51D0008A7030008A7030008A703000880
:10008000A7030008A7030008A70300086D200008C5
:10009000D9200008A7030008A7030008A703000849
:1000A000A7030008A7030008A7030008A703000888
:1000B00061690008A7030008A7030008A703000858
:1000C000A7030008A7030008A7030008A703000868
:1000D000C1650008A7030008A7030008A7030008DC
:1000E000A7030008A703000800000000A7030008FA
:1000F000A7030008A7030008A7030008A703000838
:10010000A7030008A7030008A7030008A703000827
:10011000A7030008A7030008A7030008A703000817
:10012000A7030008A7030008A7030008A703000807
:10013000A7030008A7030008A7030008A7030008F7
:1001400000000000000000000000000000000000AF
:10015000A7030008A7030008A7030008A7030008D7
:10016000A7030008A7030008A7030008A7030008C7
:10017000A7030008A7030008A70300080000000069
:10018000A7030008A7030008A7030008A7030008A7
:10019000A7030008A7030008A7030008A703000897
:1001A000A7030008A7030008A70300080000000039
:1001B000A7030008A7030008A7030008A703000877
:1001C000A7030008A70300080000000000000000CB
:1001D0000000000000000000A7030008000000006D
:1001E000000000000000000000000000000000000F
:1001F0000000000000000000A7030008A70300089B
:10020000A7030008A703000800000000A7030008D8
:10021000A7030008A7030008A7030008A703000816
:10022000A703000800000000A7030008000000006A
:10023000A7030008A703000800000000A7030008A8
:10024000A7030008A7030008A7030008A7030008E6
:10025000A7030008A7030008A7030008A7030008D6
:10026000A7030008A7030008A7030008A7030008C6
:10027000A7030008A7030008A70300080000000068
:10028000A7030008A7030008A7030008A7030008A6
:1002900000000000A7030008A703000800000000FA
:1002A00000000000A7030008A7030008A703000838
:1002B000A7030008A7030008A7030008E52000081B
:1002C000A7030008A7030008A703000800F002F82E
:1002D00000F04AF80AA090E8000C82448344AAF196
:1002E0000107DA4501D100F03FF8AFF2090EBAE894
:1002F0000F0013F0010F18BFFB1A43F0010318475A
:100300005C9F00009C9F0000103A24BF78C878C111
:10031000FAD8520724BF30C830C144BF04680C600B
:10032000704700000023002400250026103A28BF53
:1003300078C1FBD8520728BF30C148BF0B60704757
:100340001FB509F09DFC00F0C3FA04000020002155
:1003500009F062FC401C60600020002109F072FC82
:10036000E0601FBD10B510BD00F0EEFB1146FFF7B9
:10037000E7FF01F01BFD00F097FE03B4FFF7F2FF6B
:1003800003BC00F00DFF00000A4880470A48804780
:100390000A480047FEE7FEE7FEE7FEE7FEE7FEE766
:1003A000FEE7FEE7FEE7FEE705480649064A074B7B
:1003B00070470000F11F000889680008CD0200089E
:1003C00050040020500E002050060020500600204F
:1003D000EFF3108072B6704780F310887047444A7C
:1003E0001368012B04D04FF001031360414A1060E1
:1003F000414A116041484FF0805101607047EFF36E
:10040000108272B63A48016851B34FF000010160A2
:100410003848016891B1EFF309811EF0100F08BF51
:1004200021ED108B21E9F00F4FF000041EF0100FAA
:1004300008BF012441F8044D006801602E49096895
:10044000096808C9B1E8F00F002B18BFB1EC108B98
:1004500081F309884EF0100E002B18BF2EF0100EFD
:1004600082F310884EF0040E704723490860EFF3C2
:10047000148222F0040282F314881E494FF0000017
:1004800008601B494FF0010008601D481D49D0F865
:10049000002041EA0201016018484FF080510160DC
:1004A00019480068006880F3088861B662B6BFF337
:1004B0004F8FBFF36F8F70471EF0040F0CBFEFF329
:1004C0000880EFF3098020E9F00F40F804ED40F8D0
:1004D00004ED1EF0040F0CBF80F3088880F3098838
:1004E00000B508F0A3FB5DF804EB4EF0040E704776
:1004F0000C000024080000242400002004ED00E08B
:1005000020ED00E00000FFFF08ED00E010B500F076
:10051000DFF9001D10BD00BF0197000053EA020C77
:1005200000F069802DE9F04B4FF00006002B1FBF53
:10053000B3FA83F503FA05F424FA05F65E4012BF18
:100540001643B2FA82F502FA05F4C5F120051EBF82
:1005500022FA05FC44EA0C04203556EA044C4FEA22
:10056000144418BF641C4FF000084FF0000990427B
:1005700071EB030C39D3002919BFB1FA81F701FAE5
:1005800007F6B0FA80F700FA07F6C7F120071EBF9A
:1005900020FA07FC46EA0C062037B6FBF4FCA7EB72
:1005A0000507103F07F01F0BCBF120060CFA0BFBE1
:1005B0002CFA06F644BFB3460026202FA4BF5E46A1
:1005C0004FF0000B5BEA060C08BF4FF0010B19EB74
:1005D0000B09ABFB027C48EB0608C01B06FB02CCF8
:1005E0000BFB03CC71EB0C01C1E70B460246414605
:1005F0004846BDE8F08B13B54FF000004FF0000106
:10060000AFF30080BDE81C40704770B5064600F0AF
:1006100063F90468054630460A22002100F0BEF95D
:100620002C6070BD40EA0103024630B59B0710D133
:100630004FF0013400E008C208C91D1B9D4315EAB4
:10064000C41FF8D013F0FF0102F8011B0DD01B0AE4
:10065000F8E711F8013B002B02F8013B05D011F837
:10066000013B002B02F8013BF3D130BD10B5431C18
:1006700002E010F8011B71B18107FAD14FF001328D
:1006800002C88C1A8C4314EAC211F9D0C01A0A06A7
:1006900003D0C01E10BDC01A10BD0A0401D0801EB8
:1006A00010BD0902FCD0401E10BD40EA010370B528
:1006B0009B072ED14FF00136042A2AD308C810C94F
:1006C0009D1B9D43121F15EAC61517D0D8B2E1B283
:1006D000401A50EA056110D198B2A1B2401A50EA0E
:1006E00005410AD123F07F4024F07F41401A50EAAF
:1006F000052102D1180EA0EB146070BDA342DBD01F
:1007000018BA21BA884201D9012070BD4FF0FF30DC
:1007100070BD0AB9002070BD10F8013B11F8014B03
:1007200063B1A3420AD1521E08D010F8013B11F860
:10073000014B1BB1A34201D1521EEDD1181B70BD5C
:10074000421E12F8013F002BFBD111F8013B002B98
:1007500002F8013BF9D1704710B5203AC0F00B8088
:10076000B1E81850203AA0E81850B1E81850A0E8B5
:100770001850BFF4F5AF5FEA027C24BFB1E818500F
:10078000A0E8185044BF18C918C0BDE810405FEA7F
:10079000827C24BF51F8043B40F8043B08BF7047FB
:1007A000D20728BF31F8023B48BF11F8012B28BF00
:1007B00020F8023B48BF00F8012B70474FF00002C1
:1007C00000B5134694469646203922BFA0E80C5047
:1007D000A0E80C50B1F12001BFF4F7AF090728BF22
:1007E000A0E80C5048BF0CC05DF804EB890028BF9E
:1007F00040F8042B08BF704748BF20F8022B11F0C7
:10080000804F18BF00F8012B704710B5044610F058
:10081000030F08BF11F0030F40F015804FF0013EA9
:10082000121FC0F20E8051F8043BA3EB0E0C2CEA11
:10083000030C1CEACE1C08BF40F8043BF0D0A1F129
:10084000040102F10402521E08DB11F8013B002BE7
:1008500000F8013BF7D1114600F0D8F8204610BD52
:100860004FF0013C50F8042B51F8043B9A4215D14B
:10087000A2EB0C03934313EACC130BD150F8042BD7
:1008800051F8043B9A4209D1A2EB0C03934313EABB
:10089000CC13E7D04FF00000704700BFD01A01BA68
:1008A000B1FA81F101F0180122FA01F0CB40C1F157
:1008B0002001DBB2C0B2C01A2CFA01F3D11A914365
:1008C00011EAC311E6D170477047704770470000C6
:1008D00000487047140E002400487047F40D0024AF
:1008E00010B5FFF7F9FF006810BD10B50446FFF71B
:1008F000F3FF046010BD00000FB4002300B589B001
:100900000CA900910B99CB60214B7B440693214BA2
:100910007B44079304236FF00042CDE901321E4A65
:100920007A446B4608920246002009F011FA09B099
:100930005DF814FB70B506464FF0FF3015460C46C7
:10094000324686B00091CDE901016946002004904D
:1009500004A8FFF7D1FF02460498211825B108B179
:10096000084600E020462860049800280DD0002AA0
:1009700002DD0098884208D03246081B6946009480
:10098000CDE9010404A8FFF7B7FF06B070BD000071
:100990005D01000075010000350100002DE9F04700
:1009A00091460F4680460446002614F8015B2DB19F
:1009B000FFF7ACFD0068405DC007F6D12B2D02D0DB
:1009C0002D2D18D0641E4A463946204600F06DF899
:1009D00027B13968A14201D1C7F800804FF0020465
:1009E00071050BD54042002803DDFFF775FF046059
:1009F000A007BDE8F08746F48066E4E70028F8DA4F
:100A0000FFF76AFF04606FF00040F2E74FF000026A
:100A10000429C0F0128010F0030C3FF4D1AECCF1E9
:100A2000040CBCF1020F18BF00F8012BA8BF20F87E
:100A3000022BA1EB0C01FFF7C3BE5FEAC17C24BF10
:100A400000F8012B00F8012B48BF00F8012B70477C
:100A500000487047F40D002410B50446FFF756FD1A
:100A60000068005D00F0010010BD426842B10168FD
:100A700011F8013B23B1521EC0E90012184670471D
:100A80000121C160881E704742685AB1C36801687D
:100A900043B983688B4205D0491E521CC0E900123D
:100AA000002070474FF0FF3070472DE9F05F82461D
:100AB00015468B4600270AF10104B9460078302814
:100AC00001D09DB113E014F8010B0127782803D061
:100AD000582801D045B10AE00DB1102D07D10027EB
:100AE00014F8010B102502E0082500E00A25002675
:100AF000B0460EE005FB080005FB06F101271FFAD2
:100B000080F801EB1046B6F5803F00D3B94614F8E3
:100B1000010B294600F03DF80028EBDABBF1000F8D
:100B200005D00FB1641E00E05446CBF80040B9F187
:100B3000000F06D0FFF7D0FE02210160C81EBDE8FD
:100B4000F09F48EA0640FAE77546FFF781FFAE4698
:100B500005006946534620F00700854618B020B5C9
:100B6000FFF722FCBDE820404FF000064FF00007E1
:100B70004FF000084FF0000B21F00701AC46ACE845
:100B8000C009ACE8C009ACE8C009ACE8C0098D46B2
:100B900070473A2800D2303820F02002412A01D391
:100BA000A2F13700884201D34FF0FF3070470000B8
:100BB0002DE9FF4F06468BB00878FF2806D0491C68
:100BC0002D2805D000244FF0000908E000200CE09B
:100BD0000124F8E709EB8903491C00EB4309087875
:100BE000FF28F7D114B1C9F1000081461078002523
:100BF0002C46AA4629462D2801D02B2804D1521C68
:100C00002D2813D0002082468B461078FF280FD065
:100C10004FF0000C0A21521CA5FB017804FB018156
:100C200005FB0C11C5194BEB0104EEE70120EAE7C7
:100C3000002108464FF00000BAF1000F02D000EB8F
:100C400080004008C0F38157012F01DD4FF0FF37CE
:100C50000E9955EA040009EB01080BD04FF0020988
:100C600018F5FA7F16DA4FEACA70002F706008DDB7
:100C7000012007E04FEACA70C6E900B00FB0BDE836
:100C8000F08F00203060FFF727FEC0F80090182199
:100C9000084616E0B8F5FA7F18DD002F02DAF748AB
:100CA000784401E0F6487844D0E90010C6E9001025
:100CB00040EACA707060FFF70FFEC0F80090142180
:100CC00008460FB0BDE8F04F08F0DFBF002108462E
:100CD0004FF00000B8F10001099002DAC7F10002FC
:100CE00000E03A4601DAC8F1000106A800F0E6F992
:100CF00006AB93E8070003AB83E8070044F23E002D
:100D00005BEA04010090584604D144F21E012C46CF
:100D10005D460091210C0904014306D10099240489
:100D200044EA15442D041039009104F07F41014339
:100D300006D10099240244EA15642D020839009175
:100D400004F07041014306D10099240144EA15746E
:100D50002D01091F009104F04041014306D1009983
:100D6000A40044EA9574AD00891E009104F000418E
:100D7000084304D100986D196441401E00904FF063
:100D800001033A466846B8F1000FCDE9014503A9D1
:100D900002DD00F0D4FE01E000F0A7FEBAF1000F82
:100DA00004460D4601D084F00044002108464FF06F
:100DB0000000099940F2FF77484010F00C0F07D16E
:100DC00024F00040284303D0C4F30A50B84212D1A3
:100DD000FFF782FDC0F80090C4F30A50B8420AD170
:100DE000A8487844D0E90010C6E9001004F000419A
:100DF0000843706042E7C6E900543FE72DE9FF4F22
:100E00001F464FF0000A4FF0FF38454691B0D7E932
:100E10000146CDF83CA0FFF75BFDC0680168405C6F
:100E20001090B96912986D1C8847396A81468847C5
:100E30000028F6D1B9F1FF3F0AD0002E24F4D06487
:100E400011DDB9F12B0F08D0B9F12D0F0BD102E054
:100E5000404615B013E744F48064B96912986D1CDC
:100E60008847761E8146600504A901D52D2000E043
:100E70002B20002E01F1010B0DF130088DF8100030
:100E80003FDDB9F1690F08D0B9F1490F05D0B9F1CB
:100E90006E0F02D0B9F14E0F1CD13B4601A8009550
:100EA00080E85002DDE912126FF0020008F054FFF2
:100EB000C11CCED10EE0B96912986D1C88478146DD
:100EC0001398761E44F4007405600F98401C002EA1
:100ED0000F9016DDB9F1300FEDD0B9F1780F02D0D7
:100EE000B9F1580F0DD10F9801280AD13B46CDE931
:100EF0000054DDE91212001F029608F02BFFC11CFE
:100F0000A7D1109989453ED144F0800406E0139999
:100F1000681CAAF1010A44F400740860B9696D1CE8
:100F20001298761E884730288146F0D02BE0109921
:100F3000894505D1200603D4761E44F0800418E0CC
:100F4000484606F099FB08B3761E0DF123018B4548
:100F500044F4007408D2A9F130000BF8010B20060C
:100F600007D5AAF1010003E0200602D40AF101002E
:100F70008246A00502D51399681C0860B9691298C9
:100F80006D1C88478146002ED1DC53E0002E51DDD8
:100F9000B9F1650F02D0B9F1450F4BD1A00549D584
:100FA000B9696D1C1298761E24F440748847002E8F
:100FB00081460CDD2B2804D0B9F12D0F07D144F464
:100FC0008074B96912986D1C8847761E8146E005C9
:100FD00001D52D2100E02B2108F8011BCDF8008060
:100FE00021E0761E0DF13901884544F400740CD2DD
:100FF000A9F1300010F0FF0088F8000002D100993C
:10100000884509D908F1010806E0E00501D51E4828
:1010100001E042F20F708246B96912986D1C884750
:10102000814613980560002E04DD484606F024FB37
:101030000028D6D1F96912988847FF2053468BF8CB
:10104000000088F8000000200A900B9004AA0CA968
:101050000AA8FFF7ADFDA00502D46FF00100F8E685
:1010600014F0240F12D0E0071CD13868DDE90A1211
:10107000031D3B600068C0E9001213E00096000009
:10108000F2950000B6940000F1D8FFFF0AA9684667
:1010900006F06AFAE00705D13868009A011D396048
:1010A000006802602846D4E610B50446AFF300801D
:1010B0002046BDE81040FFF760B900002DE9F04779
:1010C000814616468AB0354878440DC88DE80D0033
:1010D00032487844801C03AC0DC884E80D0041F60A
:1010E0009B300844372190FBF1F290FBF1F5A5F11C
:1010F000800501FB12041B3C02D56442012000E084
:101100000020DFF898A080460027FA44AAF1BE0A22
:101110000EE0E0070AD03246684607EB470101239C
:101120000AEB810100F0F6FC8DE8070064107F1CDB
:10113000002CEED1194F7F44AE3F19E0E80715D0DF
:1011400007EB04100DF1180A90E80E008AE80E0073
:10115000C068F04201D1981908903246012306A9CF
:1011600003A800F0D7FC03AB83E807006D10641CF4
:10117000002DE3D14FF0010332466946B8F1000F6C
:1011800003A802D000F09CFC01E000F0C3FCC9E918
:101190000001C9F808200AB0BDE8F087FC8E000005
:1011A00001491820ABBEFEE7260002002DE9FF4FE3
:1011B0001F464FF03C0987B04FF00042DDE91410A4
:1011C00001F10108DDF858A002EA40500390002028
:1011D00005908346054604460490B969461E089862
:1011E0008847AAF1010A0290BAF1000F3BDD02988C
:1011F0002E2815D01021FFF7CCFC00282EDB4FF055
:10120000010B0599014317D0B9F1000F0BDB4A46DA
:10121000C11700F0F6F905430C43A9F1040905E0F4
:10122000012004900BE008B145F001050120059074
:10123000049820B9361D02E0049800B1361FB96940
:10124000089808F101088847BBF1000FAAF1010ACC
:101250000290C9D00999C1F80080C5E702987028AA
:1012600008D0502806D0F96908988847BBF1000FCC
:1012700014D04FE0002002900120BBF1000F049039
:1012800009D0B969089808F101088847AAF101094D
:10129000B9F1000F07DCF969089888476FF0010081
:1012A0000BB0BDE8F08F2B2804D02D280CD14FF0C7
:1012B000FF300490B969089808F101088847A9F13E
:1012C0000109B9F1000FE6DD411CE4D00A21FFF766
:1012D00060FC0028DFDB029908F1010801EB8101C5
:1012E00000EB41000290B969089888470A21FFF78E
:1012F00050FC099AA9F10109B9F1000FC2F8008068
:1013000001DD0028E7DAF96908988847049902980E
:1013100000FB016655EA040004D004F040410900D6
:1013200002D006E0039898E0A40044EA9574AD006A
:10133000B61E04F00041080002D16D196441761E0A
:10134000159810F0240F03D04FF00B095C4803E010
:101350004FF028096FF07D008246564507DAAAEB68
:1013600006018944B9F1410F01DD4FF04109012027
:101370000021A9F1010200F044F9024628400B4681
:101380002140084301D0012100E00021501E0291BC
:1013900043F1FF3128402140084301D0012000E003
:1013A00000200299834651EA0B014FD000210846E4
:1013B0004FF00000039900F4400039B100EB8000C9
:1013C0004FF4400100EBD07001EA60008015012865
:1013D00002DD4FF0FF3000E013D0401C36D0029801
:1013E00060B3BBF1000F0CD14A460120002100F090
:1013F00008F928402140084301D0012000E00020E6
:10140000E0B101204A46002100F0FBF803464019F4
:101410000A4661412D1A8C4111D3B9F1400F09DD03
:10142000159810F0240F02D0AAF1340603E0AAF1B7
:10143000170600E0761C00254FF0004406E05B1E16
:1014400042F1FF3220EA030521EA0204CAF1010059
:10145000B04206DA1B49039808430190002000902F
:101460000EE0039AC4F3D321E80A0A43164940EA7E
:1014700044500A433146CDE90002684606F0A0F820
:10148000159810F0240F0BD01598C00715D13868A7
:10149000DDE90012031D3B600068C0E900120CE0AA
:1014A00002A8694606F060F81598C00705D13868AB
:1014B000029A011D3960006802604046F0E60000B3
:1014C00002FCFFFF0000F07F0000F03F2DE9FF4F1E
:1014D00092461D4685B04FF00041DDE9124BDDE933
:1014E00014727F1E01EA4B50414940F0FF4940EA27
:1014F0000108002122F020004928049102D04E2842
:1015000028D04CE03BA0012607C88DE80700A96958
:101510000698641C88477F1E014606D41DF8060005
:1015200018B121F0200181420BD0E9690698884763
:10153000032E34D0082E32D06FF0010009B0BDE880
:10154000F08F761C032E01D0082EE0D1601CCAF863
:101550000000DCE7A9690698641C88477F1E2AD42E
:1015600020F02000412826D1A9690698641C8847EC
:101570007F1E20D420F020004E281CD1A969069897
:10158000641C88477F1E48F4002849F48009CAF883
:10159000004001D4282806D0E969069888475FEA08
:1015A000CB7012D022E0A9690698641C88477F1E80
:1015B00001D4002803DAE96906988847BCE729289E
:1015C000F1D1641CCAF80040E9E71BF0240F07D0F2
:1015D00028680499031D2B600068C0E9001805E025
:1015E0002868021D2A600068C0F800902046A5E720
:1015F0000000F07F494E46494E4954590000000012
:101600007047B2F120030AD5C2F1200301FA02F1BA
:1016100020FA03F300FA02F041EA0301704700FAEE
:1016200003F14FF00000704720F07F4C80EA030088
:1016300023F07F47ACEB070303F57C5300F0004039
:1016400003F1FF032DE980494FEA154B09B44FEA36
:10165000144325EA0B4E24EA03480FF2042606EB56
:10166000132749083E785FEA320203FB0667C7F595
:10167000000707FB06F64FEA54374FEAD64606F155
:10168000020607FB066CCCF1005C4FEA1C472CEA13
:10169000074C07FB06F40CFB06F504EB15464FEA76
:1016A000961634BF00204FF000404FEAD13706FBBA
:1016B00007FC4FEA1C4C0CFB0BF7D21B03FB0CF78F
:1016C00061EB07010CFB0EF7B0EB074072EB174222
:1016D0000CFB08F734BFA2EB0742B2EB074261EB09
:1016E00017414FEA0C444FEA910706FB07FC4FEA0B
:1016F0001C4C0CFB0BF7B0EBC74072EB573203FBF3
:101700000CF734BFA2EBC742B2EBC74261EB5731D3
:101710000CFB0EF7B0EBC70072EB57720CFB08F72F
:1017200034BFA2EBC702B2EBC70261EB5771039F54
:101730004FEA816141EA921104EBCC044FEAD137C0
:101740004FEA826206FB07FC42EA90124FEA806091
:101750004FEA1C4C0CFB0BF7D21B03FB0CF761EBA5
:1017600007010CFB0EF7B0EB074072EB17420CFBC6
:1017700008F734BFA2EB0742B2EB074261EB174117
:101780004FEA8C554FEA910704EB9C2406FB07FCBB
:101790004FEA1C4C0CFB0BF7B0EBC74072EB573217
:1017A00003FB0CF734BFA2EBC742B2EBC74261EBBD
:1017B00057310CFB0EF7B0EBC70072EB57720CFB06
:1017C00008F734BFA2EBC702B2EBC70261EB577157
:1017D00015EB4C254FEA816141EA92114FEA826292
:1017E0004FEAD13742EA901206FB07FC44F10004AD
:1017F0004FEA80604FEA1C4C0CFB0BF7D21B03FB3B
:101800000CF761EB07010CFB0EF7B0EB074072EB36
:1018100017420CFB08F734BFA2EB0742B2EB0742BA
:1018200061EB174115EB1C154FEA813141EA9241FA
:101830004FEA823242EA90424FEA80304FEA0C7619
:1018400044F1000448EA03434EEA0B484FF0000E0F
:10185000B2EB080C71EB030724BF624639464EEB2E
:101860000E0E4FF0000B0018524149414BEB0B0B91
:10187000B2EB080C71EB03077BF1000B24BF62464F
:1018800039464EEB0E0E4FF0000B00185241494105
:101890004BEB0B0BB2EB080C71EB03077BF1000B6E
:1018A00024BF624639464EEB0E0E51EA020718BFBE
:1018B00046F0010616EB0E7655F1000254F10001D8
:1018C00003D5BDE88901BDE80088BDE88901BDE810
:1018D0000048B619524141EB0101A3F101037047E1
:1018E00080807F7E7D7C7B7A79787776767574735D
:1018F000727171706F6E6E6D6C6C6B6A6A6968681C
:10190000676666656464636362616160605F5F5EB1
:101910005E5D5D5C5C5B5B5A5A5959585857575627
:10192000565555555454535352525251515050508C
:101930004F4F4F4E4E4D4D4D4C4C4C4B4B4B4A4ADE
:101940004A49494948484847474747464646454522
:10195000454444444443434343424242424141415B
:1019600046EA0646A3F570534FEA164646EA425643
:101970004FEAD22242EA415210B54FEAD121A3F1F7
:10198000010300F02FF820F0004000F1020C00F0FD
:10199000004701EB00501146BCF5006F40EA07001C
:1019A00000D210BDBAF1000F0AD01CB503B44FF03D
:1019B00004004FF004014FF000000FBCBDE81040E0
:1019C0004FF00001BBF1010FB9BF04484FF0FF31E8
:1019D0000348002140EA070010BD00BFFFFFEF7F72
:1019E0000000F07F002B9C4630D477002BD01CB534
:1019F0004FEA370703B44FF010004FF01001BAF16F
:101A0000000F06D0BCF1000FDCBF40F0080040F032
:101A100008014FF000000FBCBDE810400BF1010BB6
:101A2000BBF1010F08BF5FEA170722BF12F10102E5
:101A300011F101014FF0004143F1000300F00040BB
:101A400043EA00007047F9D35708D0E746EA064654
:101A500013F1400F4FEA16461FDD13F1200FDFBFD1
:101A600016430A46002120335B42BED0C3F1200753
:101A700046EA064602FA07F74FEA164646EA07061E
:101A8000C3F1200722FA03F201FA07F721FA03F162
:101A90004FF0000342EA0702A7E746EA020646EAD9
:101AA00006464FEA164646EA0106BCBF46EA064627
:101AB000360C4FF000034FF000024FF0000194E7A6
:101AC0002DE9804C9A46934670B491E8380007C8D7
:101AD00031EA400C48BF34EA430C03D5FFF7A4FDBC
:101AE000FFF780FFF0BCBDE8008C2DE9804C9A46E2
:101AF000934670B491E8380007C831EA400C48BFFB
:101B000034EA430C03D5FFF78FFDFFF729FFF0BC44
:101B1000BDE8008C2DE9804C9A46934670B491E85C
:101B2000380007C810F0804F08BF13F0804F03D172
:101B300000F01AF8FFF756FFF0BCBDE8008C2DE965
:101B4000804C9A46934670B491E8380007C810F06C
:101B5000804F08BF13F0804F03D100F005F8FFF766
:101B6000FFFEF0BCBDE8008C20F07F4780EA030058
:101B700023F07F4C07EB0C03A3F57C5300F00040EF
:101B8000A3F1FE0392F0000F00F0B38095F0000F78
:101B900000F077802DE901494FEA11404FEA1446E1
:101BA00021EA004800FB06FC24EA064708FB06F68B
:101BB00007FB08F800FB07F718EB06484CEB164C40
:101BC0004FEA124B18EB07484FEA15464CEB17400B
:101BD00022EA0B4E0BFB06FC25EA06470EFB06F637
:101BE00007FB0EFE0BFB07F71EEB064E4CEB164CED
:101BF0004FF000061EEB074E4CEB174B18EB0B0893
:101C000040F1000018EB0E0B58EB000840F100000B
:101C10008F1A4FF000013CBFC943661B14BFB5EBE0
:101C2000040C00213CBFC943F61B4FEA17444EEA9F
:101C30008E0E27EA04454FEA1C4704FB07622CEA94
:101C4000074C05FB07F70CFB05F604FB0CFC16EB39
:101C5000074642EB174216EB0C4642EB1C421BEBCD
:101C6000060658EB0202414146EA9E0601D5BDE850
:101C70000189B619524141EB0101A3F10103BDE80D
:101C800001894FEA14454FEA114724EA054621EA43
:101C9000074C05FB07F406FB07F70CFB06F105FBF9
:101CA0000CFC11EB074144EB17444FEA124711EBD0
:101CB0000C4144EB1C4422EA074C05FB07F206FBEF
:101CC00007F70CFB06F605FB0CFC16EB074642EB90
:101CD000174216EB0C4642EB1C456A1854F1000102
:101CE00048BF7047B619524141EB0101A3F101030E
:101CF000704795F0000F37D04FEA11424FEA144772
:101D000021EA024624EA074C02FB07F106FB07F72B
:101D10000CFB06F402FB0CFC14EB074441EB1741EF
:101D20004FEA154714EB0C4441EB1C4125EA074CE4
:101D300002FB07F506FB07F70CFB06F602FB0CFCA3
:101D400016EB074645EB174516EB0C4645EB1C42D8
:101D5000121951F1000148BF7047B619524141EBC9
:101D60000101A3F1010370474FEA14454FEA1147FF
:101D700024EA054621EA074C05FB07F106FB07F7B5
:101D80000CFB06F24FF0000605FB0CFC12EB0742C1
:101D900041EB174112EB0C4251EB1C4148BF70471D
:101DA000921841EB0101A3F10103704710B507F050
:101DB00081FE002010BDFEE7014800F0FDBB0000E1
:101DC00000010020014800F0F7BB0000780100206E
:101DD000294A016891423AD0274A1832914236D0B6
:101DE000254A3032914232D0234A483291422ED095
:101DF000214A603291422AD01F4A7832914226D03D
:101E00001D4A9032914222D01B4AA83291421ED0E4
:101E10001A4A91421BD0194A1832914217D0174AD8
:101E20003032914213D0154A483291420FD0134AB2
:101E3000603291420BD0114A7832914207D00F4A5A
:101E40009032914203D00D4AA832914211D1CAB2C8
:101E50001823103AB2FBF3F26FF30901032A02F0E0
:101E60000703074AD25CC26500D9091D816508468F
:101E7000704721F0FF01F9E7100002401004024012
:101E80008C9D000830B5224A012301689142CAB2F4
:101E90001BD01F4C1434A14217D01D4C2834A14232
:101EA00013D01B4C3C34A1420FD0194C5034A142EA
:101EB0000BD0174C6434A14207D0154C7834A142A2
:101EC00003D0134C8C34A1420CD11421114C083A8C
:101ED000B2FBF1F10F4A803201F01F0504EB8101E2
:101EE000AB4010E00C4D1824103A0D44B2FBF4F155
:101EF000A82D00D80831094A01F01F0402EB810126
:101F0000064AA3408032603080E80E0030BD0000F9
:101F10000854025800580258F0FBFDBF0008024068
:101F200010B50279531E072B2DD8174C0168A1421A
:101F30001BD0154C1434A14217D0134C2834A142A5
:101F400013D0114C3C34A1420FD00F4C5034A1425D
:101F50000BD00D4C6434A14207D00B4C7834A14215
:101F600003D0094C8C34A14203D10849074C4431B9
:101F700002E00749064C443104EB8202C0E91B2110
:101F800001219940416710BD08540258FC5802587D
:101F9000FC08024010B583694FF0C074826A0146A4
:101FA000002053B1B3F5005F15D072B1012A0CD0F7
:101FB000022A0AD0032A09D104E01AB1012A06D064
:101FC000022A03D1C96AC90100D5012010BDC96A1E
:101FD000A142FAD010BD002AF7D0012AF2D0022A7D
:101FE000F3D0032AF3D010BD704772B6FEE70000AD
:101FF000054805490839026842F002020260086893
:102000008004FCD5704700000C48025810B58AB017
:102010000024022001210194CDE90414CDE90240FD
:10202000114801A9069401F091F808B1FFF7DDFF0E
:1020300002220D4800231146009401F0C6F808B1B1
:10204000FFF7D3FF08480022012101F007F808B18B
:10205000FFF7CBFF044801F028FC002801D0FFF770
:10206000C4FF0AB010BD00004C000024014801F07C
:10207000C9B800004C00002410B58AB0002402202A
:1020800001210194CDE90404CDE90210114801A910
:10209000069401F05BF808B1FFF7A7FF02220D4894
:1020A00000231146009401F090F808B1FFF79DFF5E
:1020B00008480022102100F0D1FF08B1FFF795FF7A
:1020C000044801F0F2FB002801D0FFF78EFF0AB0B0
:1020D00010BD0000EC000024014801F093B800009E
:1020E000EC000024014801F08DB800008C010024B0
:1020F000F0B503684FF6FC716D4C426BD3F8845019
:102100008D4345EA8205C3F88450036853F8845F21
:10211000068F25F47F0545EA06451D60836B654DF6
:102120009F180268D2F888308B4343EA8703C2F8CD
:102130008830026852F8883F868F23F4FE0343EA12
:1021400006431360066856F8A03FC26B8B4307EB4B
:10215000420243EA82033360076857F8A03FB0F8B1
:10216000406023F4FE0343EA06433B60D0E91036A7
:1021700003FB06220368D3F8B0608E4346EA82066A
:10218000C3F8B0600368B0F84860D3F8B07027F4C3
:10219000FE0747EA0646C3F8B060D0E91267036855
:1021A00006FB0722D3F8AC608E4346EA8206C3F8EA
:1021B000AC60D0E91467036806FB0722D3F8F0602F
:1021C0008E4346EA8206C3F8F0600368B0F85860B0
:1021D000D3F8F07027F47C1747EA0646C3F8F0609E
:1021E0000368876D53F8C06F02EB47028E4346EADF
:1021F000820119600168B0F85C20D1F8C03023F486
:102200007C1343EA0242C1F8C020016890F86020C4
:10221000D1F8C03023F07C5343EA0262C1F8C020F9
:10222000416B04EB8101C166826B01EB82020267A4
:10223000C36B02EBC3024267D0E91034634302EB85
:1022400083028267D0E91234634302EB8302C267E0
:10225000D0E91434634302EB8302C0F88020836D1D
:1022600002EBC303C0F88430C46D826E544303EBA9
:102270008403C0F88830046E544303EB8402C0F832
:102280009020AA420AD9D0F89C20032142F02002D3
:10229000C0F89C2080F898100120F0BD002200E0DA
:1022A00004C1D0F890308B42FAD80020F0BD000075
:1022B00000AC0040FCD30040F0B58E680C69D1E959
:1022C000005744EA0604DFB145F080452C43866E92
:1022D000D1E906C54F695E4391F8203045EA0C0507
:1022E000B1F80CC0D0F884E0002047EA0363104F37
:1022F0001D430EEB860345EA0C45E3E8024511E079
:1023000044EA8544E3E71418155CA67894F803C002
:1023100094F801E0360445EA0C6446EA0E252C43A5
:10232000001D10C3CC683C5D8442ECD8F0BD0000B9
:10233000949D00082DE9F05F28B190F8351002292E
:1023400004D0802141650120BDE8F09F904C904B66
:102350000168183C18338E4ADFF83C92A1428D4C3C
:10236000DFF838E28E4FDFF83CB2DFF83CA28F4D49
:102370008F4E31D091422FD099422DD0A1422BD0F7
:10238000494529D0714527D0B94225D0DFF810C280
:102390000CF1180C61451FD0DFF808C2ACF1600CDD
:1023A000614519D0DFF8FCC1ACF1480C614513D090
:1023B000DFF8F0C1ACF1300C61450DD0DFF8E4C1BD
:1023C000ACF1180C614507D0594505D0514503D0F3
:1023D000A94201D0B1422CD1DFF8B4C14FF00408BA
:1023E00080F83580ACF1180C61451DD091421BD0AE
:1023F000994219D0A14217D0494515D0714513D043
:10240000B94211D06648183081420DD06548603815
:10241000814209D063484838814205D0614830384C
:10242000814201D05F481838086820F00100086038
:10243000ABE0D1F800C02CF00E08DFF854C1C1F8B1
:102440000080ACF1180C0168614527D0914225D07D
:10245000994223D0A14221D049451FD071451DD0BA
:10246000B9421BD0DFF838C10CF1180C614515D00A
:10247000DFF830C1ACF1600C61450FD0DFF824C14A
:10248000ACF1480C614509D0DFF818C1ACF1300C53
:10249000614503D0DFF80CC1ACF1180CD1F800C0D5
:1024A0002CF0010CC1F800C0DFF8E4804FF0010C03
:1024B0000168A8F11808414546D0914244D099429C
:1024C00042D0A14240D049453ED071453CD0B942AE
:1024D0003AD0334A1832914236D0324A603A914269
:1024E00032D0304A483A91422ED02E4A303A914268
:1024F0002AD02C4A183A914226D0594524D0514529
:1025000022D0A94220D0B1421ED02A4A91421BD0EB
:10251000284A1432914217D0264A2832914213D0C9
:10252000244A3C3291420FD0224A503291420BD081
:10253000204A6432914207D01E4A7832914203D039
:102540001C4A8C32914218D1016E0A6822F48072C2
:102550000A6090F85C20816D02F01F020CFA02F212
:102560004A60D0E919124A60C16E31B10A6822F49A
:1025700080720A60D0E91C124A600022016D80F866
:1025800035C080F8342001B188470020DCE6000027
:1025900028000240580002407000024088000240BB
:1025A000A00002407004024088040240A0040240DF
:1025B000B8040240085402582DE9FC5F0446F74E67
:1025C0000020DFF8D88300904FF41652F44808F149
:1025D0001808A56DDFF8C493DFF8C0A3016809F1FE
:1025E000300920680AF1480AB1FBF2F1B0420191CA
:1025F0002F68D5F800C0DFF8ACB335D0414688422B
:1026000032D0484530D050452ED058452CD0E549E1
:102610001831884228D0E3493031884224D0E1493A
:102620004831884220D0E04988421DD0DE49183127
:10263000884219D0DC493031884215D0DA49483116
:10264000884211D0DFF860E30EF1600E70450BD0C8
:10265000D54A7832904207D0D34B9033984203D07A
:10266000D149A83188427DD194F85C20082102F03C
:102670001F0201FA02F23A424AD0B04232D040453B
:1026800030D048452ED050452CD058452AD0C54A88
:102690001832904226D0C34A3032904222D0C14AEA
:1026A000483290421ED0C04A90421BD0BE4A1832D7
:1026B000904217D0BC4A3032904213D0BA4A4832C6
:1026C00090420FD0B84A603290420BD0B64A78326E
:1026D000904207D0B44A9032904203D0B24AA83216
:1026E000904203D1026802F0040202E0026802F0A4
:1026F00008026AB1026822F00402026094F85C00E9
:1027000000F01F008140A960606D40F0010060652D
:1027100094F85C00012100F01F008140394240D054
:102720002068B04234D0404532D0484530D0504582
:102730002ED058452CD09B4A1832904228D0994A26
:102740003032904224D0974A4832904220D0964A64
:1027500090421DD0944A1832904219D0924A303299
:10276000904200E0AFE113D08F4A483290420FD040
:102770008D4A603290420BD08B4A7832904207D01B
:10278000894A9032904203D0874AA83290427DD144
:10279000406910F0800F04D0A960606D40F0020025
:1027A000606594F85C00042100F01F00814039420C
:1027B0003ED02068B04232D0404530D048452ED07F
:1027C00050452CD058452AD0764A1832904226D00F
:1027D000744A3032904222D0724A483290421ED01F
:1027E000714A90421BD0704A1832904217D06E4AFC
:1027F0003032904213D06C4A483290420FD06A4A2D
:10280000603290420BD0684A7832904207D0664AD4
:102810009032904203D0644AA83290424ED1006870
:1028200010F0020F04D0A960606D40F004006065F4
:1028300094F85C00102100F01F008140394258D00C
:102840002068B04234D0404532D0484530D0504561
:102850002ED058452CD0534A1832904228D0514A95
:102860003032904224D04F4A4832904220D04E4AD3
:1028700090421DD04C4A1832904219D04A4A303208
:10288000904215D0484A4832904200E014E00FD000
:10289000454A603290420BD0434A7832904207D08A
:1028A000414A9032904203D03F4AA832904207D129
:1028B000006800F0080006E0006872E70068B7E70B
:1028C000006800F00400A0B1A96020680168490315
:1028D00004D50068000308D5A16C07E00168C905AC
:1028E00003D4016821F008010160216C09B1204680
:1028F000884794F85C00202100F01F008140394295
:1029000079D02068B04232D0404530D048452ED0F2
:1029100050452CD058452AD0224A1832904226D011
:10292000204A3032904222D01E4A483290421ED075
:102930001D4A90421BD01C4A1832904217D01A4AA6
:102940003032904213D0184A483290420FD0164A83
:10295000603290420BD0144A7832904207D0124A2B
:102960009032904203D0104AA832904203D10068BE
:1029700000F0100002E0006800F00200B0B3A960AF
:1029800094F835000428206801680FD049037ED5EB
:10299000006800032BD4616C2AE0000010000240A4
:1029A00000000024700002401004024021F01601D3
:1029B00001602068416921F080014161206C08B903
:1029C000A06C20B12068016821F00801016094F832
:1029D0005C303F21012003F01F0300229940A960D1
:1029E00084F8350084F83420216D65E003E0E16B64
:1029F00009B120468847606D00287DD0606DC00712
:102A000059D02068042184F83510B0422BD04045BD
:102A100029D0484527D0504525D0584523D09D4939
:102A2000884220D09B49183188421CD099493031C6
:102A3000884218D09849884215D097491831884261
:102A400011D09549303188420DD0934948318842A0
:102A500009D091496031884205D08F497831884248
:102A600001D08D499031016821F001010160206899
:102A70000099019A491C0091914202D80168C90746
:102A8000F6D10068C00710D003200FE0FFE701680F
:102A9000C905ACD403680121002223F010030360B0
:102AA00084F8351084F83420A1E7012084F835003B
:102AB000002084F83400E16C00291DD002B02046CB
:102AC000BDE8F05F0847754988421DD0734914314D
:102AD000884219D071492831884215D06F493C315C
:102AE000884211D06D49503188420DD06B49643114
:102AF000884209D0694900E084E07831884203D0F7
:102B000066498C3188427DD194F85C800427016845
:102B100008F01F0807FA08F717EA0C0F009746D0CD
:102B20004F0744D500980F04686003D5C8033CD410
:102B3000A16CC1E7880638D42068B0422DD0554931
:102B40006039884229D0484527D0504525D058457E
:102B500023D05049884220D04E49183188421CD099
:102B60004C493031884218D04B49884215D04A49E7
:102B70001831884211D04849303188420DD0464939
:102B80004831884209D0704507D0904205D098421C
:102B900003D04149A831884203D1016821F00801DE
:102BA00002E0016821F004010160216C84E7022742
:102BB00007FA08F717EA0C0F00974ED08F074CD58D
:102BC00000980F04686003D5C80344D4616C73E7B0
:102BD000880640D42068B0422FD02E496039884200
:102BE0002BD0484529D0504527D0584525D02949D4
:102BF000884222D02749183188421ED025493031D9
:102C0000884200E044E018D02349884215D0224988
:102C10001831884211D02049303188420DD01E49E8
:102C20004831884209D0704507D0904205D098427B
:102C300003D01949A831884203D1016821F0140159
:102C400002E0016821F00A010160012184F83510D9
:102C5000002084F83400E16B2EE7082202FA08F223
:102C600012EA0C0F14D0090712D5016821F00E01E9
:102C7000016094F85C100120002201F01F0100FAAD
:102C800001F16960606584F8350084F8342012E74A
:102C9000BDE8FC9F8800024010040240085402581E
:102CA0002DE9F05F044600F037FF002C07467DD089
:102CB000E24E022120684FF00308DFF884934FF0C2
:102CC0000005DFF880A3B042DFF87CB334D0DB4AE4
:102CD0001832904230D048452ED050452CD058451F
:102CE0002AD0D94A1832904226D0D74A3032904260
:102CF00022D0D54A483290421ED0D44A90421BD0AE
:102D0000D24A1832904217D0D04A3032904213D073
:102D1000CE4A483290420FD0CC4A603290420BD01B
:102D2000CA4A7832904207D0C84A9032904203D0C3
:102D3000C64AA83290427DD184F83510B04284F85A
:102D400034502ED0BD49183188422AD0484528D069
:102D5000504526D0584524D0BB491831884220D050
:102D6000B949303188421CD0B7494831884218D01F
:102D7000B649884215D0B5491831884211D0B349B7
:102D8000303188420DD0B1494831884209D0AF492D
:102D90006031884205D0AD497831884201D0AB49D5
:102DA0009031016821F00101016008E025E100BFD8
:102DB00000F0B2FEC01B052801D920211AE12068CD
:102DC0000068C007F4D1D4E9020321681034184325
:102DD0008E4694E88410D4E9033809683A431043D6
:102DE0009B4A40EA0C00676918431140103C40EAD6
:102DF0000800042F40EA010003D1D4E90B1211436B
:102E000008436168A1F12902052A0BD9163A032A61
:102E100008D9083A012A05D9083A032A02D974398F
:102E2000032901D840F48010CEF800002068676ABA
:102E3000406900E020E0042F20F0070047EA000787
:102E40000DD1D4E90A01074349B12046FFF7A2F8A2
:102E500028B140206065012184F83510CDE020685C
:102E600047612046FEF7B4FF94F85C203F2102F052
:102E70001F029140816055E0764A90421BD0754B0D
:102E80001433984217D0734B2833984213D0714BA8
:102E90003C3398420FD06F4B503398420BD06D4B60
:102EA0006433984207D06B4B7833984203D0694B18
:102EB0008C3398427ED184F8351084F83450664BB8
:102EC0000168A26801EA030E402A74D0802A73D0F8
:102ED0005FF00002D4E90378D4E9053142EAD70271
:102EE00042EAD8085B4AD4E9077C48EAD30848EAB2
:102EF000D10141EAD701524241EA1C11142341EAAF
:102F00000E01016020681044B0FBF3F08000E06522
:102F10002046FEF75DFF94F85C20012102F01F02BD
:102F2000914041602068B04257D0444918318842EE
:102F300053D0484551D050454FD058454DD04249C7
:102F40001831884249D040493031884245D03E4905
:102F50004831884241D03D4988423ED03B491831F2
:102F600088423AD039493031884236D037494831E1
:102F7000884232D03549603188422ED03349783189
:102F800088422AD031499031884226D02F49A83131
:102F9000884222D02F4988421FD02E4914318842BE
:102FA0001BD02C492831884217D02A493C3188420D
:102FB00013D002E01DE017E018E0264950318842A6
:102FC0000BD024496431884207D0224978318842A5
:102FD00003D020498C31884229D12046FEF752FF88
:102FE000A06880280CD00CE0102273E74FF48042D8
:102FF00070E74021616584F835800120BDE8F09FCD
:103000006560216E20790860D4E91901416060682B
:10301000401E072808D82046FEF782FFE06E0560B4
:10302000D4E91C01416002E0E5662567656701207F
:10303000656584F835000020E0E7000010000240DC
:10304000400002405800024070000240100402405C
:103050003F8010FE085402580F00FEFF10B590F894
:103060009830012B09D0022B07D0D0F89C1041F0EA
:103070000201C0F89C10012010BD03689C6D0C4239
:1030800003D1DC6D44F0010404E09C6D31EA0404DA
:103090001FD00324DC658B0505D50368D3F8E04019
:1030A0001443C3F8E0404B0505D50368D3F8E4406A
:1030B0001443C3F8E4400068084A01EA0203446D7F
:1030C000074A1C434465106840EA91701060002074
:1030D00010BDDC6D44F00204DCE70000FFFFCF3FD1
:1030E00014A8004070B5044690F89800022804D057
:1030F000D4F89C0040F008000DE02068D0F8C03003
:1031000013F07C5F0BD0D0F8C4309B020CD5D4F800
:103110009C0040F40070C4F89C00012070BDD4F8FD
:103120009C0040F02000F6E7D0F8C400C0F304454E
:1031300020462B46FFF7C0F821680120A840C1F8BF
:10314000D000C4F89400002070BD704770B590F8AE
:103150009820012A09D0022A07D0D0F89C1041F00B
:103160000201C0F89C10012070BD0B68CA6883B1D1
:103170000B69072A43EA427325D00C7A4A6942EA6E
:1031800084724968006F00EBC100C0E90032002082
:1031900070BD072A0DD00C7AD6060D8A4B6943EA1A
:1031A000847246EA0543C06E49681A4340F82120FC
:1031B000EDE70B8A4FF06055D1E9062442EA03425D
:1031C00045EA0423EFE78A69DBE730B590F89850C9
:1031D000039C012D07D0D0F89C1041F00401C0F8E9
:1031E0009C10012030BD0D01016845EA820040EAD3
:1031F00043002043C1F88000002030BD7047704775
:10320000704700002DE9FF5FDFF80CB304460BF1B7
:103210000401DBF8000025680F68AA468007D5F88E
:103220005090696DD5F850806E6D2A6DD5F854C0F8
:103230002B6D00EA8770009009F470496F6D286D5E
:1032400001EA09010191DAF85410DAF85490DAF839
:10325000505008F00F0806EA0806029602F0F00245
:1032600003F071536FEA09061F4000F060700CEA2A
:10327000020CCDF80CC0F20501EA00090CD4E843B9
:10328000C00509D400214FF48073CAF85030CBF840
:1032900000102046FFF7B4FF700512D4E843400544
:1032A0000FD4206800234FF48068D0F8DC20D0F8D9
:1032B000E410C0F85080CBF800301140204600F0F8
:1032C00013FBDFF858A2009850B12268830F00EA80
:1032D0000A001065CBF8003020460099FFF735FF53
:1032E000019850B12268830F00EA0A001065CBF8FC
:1032F00000302046019900F0F9FA029850B1226896
:10330000830F00EA0A001065CBF8003020460299CE
:1033100000F0C9FA039850B12268830F00EA0A004E
:103320001065CBF800302046039900F0BDFA300557
:103330000CD4E843000509D4236800204FF4006250
:103340001A65CBF80000204600F0D1FAB00512D47F
:10335000E84380050FD4206800234FF40078D0F8AC
:10336000D820D0F8E010C0F85080CBF800301140E1
:10337000204600F0BAFA30030CD4E843000309D425
:10338000236800204FF400221A65CBF80000204685
:1033900000F088FAF0030CD4E843C00309D4236892
:1033A00000204FF480321A65CBF80000204600F070
:1033B0009AFA70030CD4E843400309D42268002031
:1033C0004FF480231365CBF80000204600F08AFA02
:1033D000B0030FD4E84380030CD4236800204FF4DB
:1033E00000321A65CBF80000D4F89C0040F0800051
:1033F000C4F89C00B9F1000F0BD022684FEA997312
:1034000009EA0A001065CBF8003049462046FFF76C
:10341000F6FE5FB12268BB0F07EA0A001065CBF821
:103420000030D4F89C003843C4F89C003C49206824
:10343000884268D1606881468068800763D0D9F887
:103440002060D9F82410D9F82080D9F82400D9F8C0
:1034500020C0D9F82470D9F82030D9F82450D9F8F0
:10346000202003F4FC4306F00F0AD9F824601D4025
:10347000D9F824B008F030080CF4C07C02F4F02233
:1034800011EA0A0100EA080807EA0C0706EA020640
:10349000D9F820A004D0C9F82010204600F01FFA67
:1034A000B8F1000005D0616808624146204600F08E
:1034B00018FA6FEA0B0040060ED46FEA0A004006C5
:1034C0000AD460684021C36BC26B01622046190CAC
:1034D00002F03F0200F004FA2FB16068076239463B
:1034E000204600F0FBF935B160680562D4F89C0015
:1034F0002843C4F89C0036B160680662D4F89C008A
:103500003043C4F89C00D4F89C00002802D0204628
:10351000FFF774FEBDE8FF9F10A80040FFFFCF3FFC
:1035200000A000402DE9F04194B08D494C220446A2
:103530006846FDF711F964B18A4D2068A84202D1AE
:1035400000F58070606094F898004FF0000820B19A
:1035500008E0012014B0BDE8F081204684F899808D
:1035600000F002F92068816921F01001816100F00A
:10357000D3FA0327064604E000F0CEFA801B0A289F
:1035800011D8206880690007F6D42068816941F06D
:103590000101816100F0C0FA06460DE000F0BCFABE
:1035A000801B0A2808D9D4F89C0040F00100C4F818
:1035B0009C0084F89870CCE720688069C007EDD043
:1035C0002068816941F002018161207C0128206826
:1035D000816937D041F040018161607C0128206819
:1035E000816932D021F480418161A07C012820686A
:1035F00081692DD041F4805181612068A268816980
:1036000021F44071114381612068816921F0A40196
:1036100081612068016921F010010161E0680128E1
:1036200019D010B302281BD02068816941F08001B5
:1036300081612068016941F010010161E06803289F
:103640000ED012E021F04001C6E741F48041CBE703
:1036500021F48051D0E72068816941F0040103E042
:103660002068816941F020018161207E6FF0FF02B6
:10367000D4E90773A68A1102400602EB0727A0F1DE
:103680000070384327685B1E184301EB0646304341
:10369000F861A068B0F5407F11D104F12800A68C34
:1036A0006FF00F0C89C801EB0641401E02EB0322AC
:1036B000104322680CEB071318430843D060206EB8
:1036C00030B12068626ED0F8C0101143C0F8C0104D
:1036D000D4E917126846D14209D02168A36E51F887
:1036E000C82F50F8233022F007021A430A60216CD9
:1036F00049B12168626C51F8BC3F50F8226023F058
:10370000070232430A60A16C51B12168E36C51F8A1
:10371000BC2F50F8233022F0700242EA03120A60F4
:10372000216D51B12168626D51F8BC3F50F8220003
:1037300023F4E06242EA002008602068A84204D135
:103740006068816821F003018160C4F894800121E0
:10375000C4F89C8084F898102046FEF7C9FCF9E66E
:10376000A49D000800A00040F0B587B005461421D4
:103770006846FDF723F8454E0024434B02272D6889
:103780004FF0090CDFF808E10C3B31683E4A754503
:10379000404801F1010122D10129316007D11168AE
:1037A00041F480711160116801F48071059119680C
:1037B00041F008011960196801F008010591032121
:1037C0000091CDE90174CDE9034C694600F090F811
:1037D00000220621132000F03DFA132026E0DFF836
:1037E000B8E0754526D10129316007D1106840F451
:1037F00080701060106800F480700590186840F0C8
:10380000020018601868694600F002000590602008
:103810000090CDE901742148CDE9034C00F068F82F
:1038200000220521142000F015FA142000F004FAFB
:1038300007B0F0BDDFF868C06545F9D101293160F6
:1038400007D1116841F480711160116801F4807131
:103850000591196841F0080119601968052201F005
:10386000080105914FF440510091CDE90174CDE973
:103870000342694600F03CF800229F20114600F008
:10388000E9F99F20D2E70000EC4402580000002034
:1038900000A00040000C025800A4004000040258A0
:1038A00000D4004070477047704790F89810012985
:1038B00007D0D0F89C1041F00401C0F89C10012002
:1038C0007047022180F89810002201688B6923F06C
:1038D00001038B61C0F89C20104670477047704709
:1038E0007047704770477047704770477047704720
:1038F0002DE9F84F03247A4D00234FF001094FF0D2
:10390000B04B4FF00F0AE4E009FA03F6324078D0EA
:103910000F7907F00307012F01D0022F1AD1876812
:103920004FEA430ED1F80CC004FA0EF827EA080754
:103930000CFA0EFC4CEA070CC0F808C0476891F876
:1039400004C0B743CCF3001C0CFA03FC4CEA070C90
:10395000C0F804C00E79F643B6070BD0C6684FEA2C
:1039600043088F6804FA08FC26EA0C0607FA08F7F1
:103970003743C7600E7906F00306022E12D1DE0827
:103980000F694FEA437C00EB8606B646366A4FEA7B
:10399000DC6C0AFA0CF807FA0CF726EA080637433B
:1039A000CEF820700F7906684FEA430807F0030746
:1039B00004FA08FC07FA08F726EA0C063743076002
:1039C0004E6816F4403F1CD0464E376847F0020759
:1039D000376036689F0706F00206009623F003065C
:1039E00006F1B046B6463F0FD6F80864DFF8F88017
:1039F0000AFA07FC404526EA0C0603D14FF0000CFA
:103A00003AE065E0DFF8E4C0604502D14FF0010C18
:103A100032E0DFF8DCC0604502D14FF0020C2BE051
:103A2000DFF8D0C0604502D14FF0030C24E0DFF88E
:103A3000C8C0604502D14FF0040C1DE0DFF8BCC0E7
:103A4000604502D14FF0050C16E0DFF8B4C06045C8
:103A500002D14FF0060C0FE0DFF8A8C0604502D19C
:103A60004FF0070C08E0DFF8A0C0604502D14FF02E
:103A7000090C01E04FF00A0C0CFA07FC4CEA060CAA
:103A8000CEF808C44F68DBF80060FF0226EA0206A1
:103A900000D516435F46CBF80060D1F804C0DBF8D0
:103AA00004605FEA8C2C26EA020600D516437E608D
:103AB0006E684F6826EA0206BF0300D516436E60A3
:103AC0002E684F6826EA0206FF0300D516432E60D3
:103AD0005B1C0A6832FA03F67FF416AFBDE8F88F74
:103AE00080000058F44402580000025800040258B4
:103AF00000080258000C0258001002580014025826
:103B000000180258001C0258002402580AB18161B2
:103B100070470904FBE70000014880687047000017
:103B200004000020024881680278114481607047D7
:103B300004000020032010B500F0ACF801F07CF880
:103B40000F4A104914681368C4F3032203F00F03EB
:103B50008A5CC95C02F01F0201F01F01D0400A4AD2
:103B600020FA01F11160094908600F2000F010F8F7
:103B700008B1012010BD00F051F8002010BD000078
:103B800018440258189E0008040000240000002475
:103B900010B5102804468AB02DD2002201461C2000
:103BA00000F058F81C2000F047F818480460184846
:103BB000016841F001010160006809A900F00100FD
:103BC0000890684600F0C4FF0598B8B101F010F8FD
:103BD00040001049002240F2E733B0FBF1F10E48FB
:103BE0004FF080440460C0E90332491EC0E901126D
:103BF00001F038FE28B101200AB010BD00F0F8FF36
:103C0000E7E7054801F060FEF6E700000800002045
:103C1000E844025840420F002C020024054808B531
:103C2000016841F002010160006800F002000090AC
:103C300008BD0000F4440258002809DB410900F0E7
:103C40001F028900012001F1E0219040C1F800012C
:103C5000704700000E4BF0B41B680D46C3F30223FF
:103C6000C3F10706042E00D90426191D072901D225
:103C7000002300E0DB1E012404FA06F19C40491EEB
:103C80002940641E994014402143F0BC03F0B7BBA7
:103C90000CED00E0064900F0070210B54FF6FF04F6
:103CA0000868044B204040EA02201843086010BD19
:103CB0000CED00E00000FA05134970B50A68D24324
:103CC000520705D5096801F00701814213D118E0B8
:103CD0000A6822F0070202430A60FFF71DFF0A4D3F
:103CE0004FF47A760446083D07E000BFFFF714FF63
:103CF000001BB04201D9012070BD2868C043800478
:103D0000F4D4002070BD00000C48025810B500F03B
:103D10004DFF05490968054AC1F30211515C01F0E4
:103D20001F01C84010BD000020440258189E000822
:103D3000494930B5484C0B1D0A68143409681D68A0
:103D4000246802F00303C5F30012C1F30531C4F384
:103D5000CC04002914FB02F200EE102AF8EE400A0F
:103D600075D03F4A9FED3D1AB7EE000A6BB1DFED0B
:103D70003D1A012B01D0022B64D002EE101A1168FB
:103D8000F8EE422A81EEA22A21E0334C283C236837
:103D90009B0612D5344B246801EE901A1168C4F3C7
:103DA000C104F8EE612AE34001EE903AC1F3080144
:103DB000F8EE611A81EEA22A0BE001EE901ADFED17
:103DC0002B2A00BFF8EE611A116882EEA12AC1F316
:103DD000080101EE901A1168F8EE611A40EE811A9E
:103DE00071EE800A62EE200AC1F3462101EE101A3C
:103DF000B8EE411A31EE001AC0EE811ABCEEE11A9B
:103E000080ED001A1168C1F3064101EE101AB8EEF8
:103E1000411A31EE001AC0EE811ABCEEE11A80EDB3
:103E2000011A1168C1F3066101EE101AB8EE411AC9
:103E300031EE000A80EE801ABCEEC10A80ED020A63
:103E400030BD04E001EE901ADFED092ABAE7002147
:103E5000016041608160F3E72844025800000039A6
:103E6000384402580024744A0090D0030024744C53
:103E7000001BB74B494930B5484C0B1D0A681C3430
:103E800009681D68246802F00303C5F30022C1F32A
:103E90000551C4F3CC04002914FB02F200EE102AF1
:103EA000F8EE400A75D03F4A9FED3D1AB7EE000A82
:103EB0006BB1DFED3D1A012B01D0022B64D002EE75
:103EC000101A1168F8EE422A81EEA22A21E0334C42
:103ED000283C23689B0612D5344B246801EE901AC7
:103EE0001168C4F3C104F8EE612AE34001EE903A90
:103EF000C1F30801F8EE611A81EEA22A0BE001EE8F
:103F0000901ADFED2B2A00BFF8EE611A116882EEDD
:103F1000A12AC1F3080101EE901A1168F8EE611AA6
:103F200040EE811A71EE800A62EE200AC1F346214A
:103F300001EE101AB8EE411A31EE001AC0EE811AE5
:103F4000BCEEE11A80ED001A1168C1F3064101EEE2
:103F5000101AB8EE411A31EE001AC0EE811ABCEE0A
:103F6000E11A80ED011A1168C1F3066101EE101A21
:103F7000B8EE411A31EE000A80EE801ABCEEC10A9A
:103F800080ED020A30BD04E001EE901ADFED092A4F
:103F9000BAE70021016041608160F3E728440258DC
:103FA00000000039404402580024744A0090D003B5
:103FB0000024744C001BB74B2DE9FE4F0546DFF87B
:103FC00000A450F8081B0024FD4FC943019005F1DF
:103FD000280026460AF1240A009008011DD4686EC4
:103FE00050B1B0F5801F0CD0B0F5001F0ED0B0F569
:103FF000401F1ED001240FE0386840F400303860C4
:1040000017E00198022102F0BBF903E000980221B9
:1040100002F046FA04000CD026462888C043C005AA
:1040200023D4A86D05281ED2DFE800F00C11161B62
:104030001B006A6EDAF8001021F440111143CAF82F
:104040000010EAE7386840F40030386009E0019871
:10405000002102F095F903E00098002102F020FA17
:104060000446C4B100E0012426462888DFF85083C6
:10407000C04308F12C0840052FD4D5F8A400B0F5B2
:10408000C00F28D010DCB8B1B0F5001F19D0B0F5C2
:10409000800F0FD11AE0AA6DDAF8001021F00701A5
:1040A0001143CAF80010E0E7B0F5000F13D0B0F5E7
:1040B000200F10D001240FE0386840F40030386041
:1040C00009E00198002102F05BF903E0009800216B
:1040D00002F0E6F9044694B126462888C04300055C
:1040E00030D4D5F8A800B0F1407F29D011DCC0B1A0
:1040F000B0F1807F1AD0B0F1007F10D11BE0D5F86D
:10410000A420D8F8001021F460011143C8F8001071
:10411000E3E7B0F1806F13D0B0F1A06F10D00124AD
:104120000FE0386840F40030386009E00198002161
:1041300002F026F903E00098002102F0B1F90446EC
:1041400094B126462868DFF878B2C0430BF1200B03
:1041500080011FD4E86CD8B110280FD0202812D0CD
:10416000302815D0012414E0D5F8A820D8F8001084
:1041700021F0E0611143C8F80010E3E7386840F42B
:104180000030386004E00198022102F0F9F804469A
:1041900074B126462888C043C0042BD4E86DB0F51E
:1041A000005F20D00DDCA0B1B0F5805F0FD115E02D
:1041B000EA6CDBF8001021F030011143CBF800105D
:1041C000E8E7B0F5405F13D0B0F5804F10D0012480
:1041D0000FE0386840F40030386009E001980021B1
:1041E00002F0CEF803E00098002102F059F90446ED
:1041F0008CB126462888C043800429D4286EB0F5A7
:10420000403F23D010DC08B3B0F5803F14D0B0F5A8
:10421000003F0FD115E0EA6DDAF8001021F4E0411B
:104220001143CAF80010E5E7B0F5802F0ED0B0F5C5
:10423000A02F0BD001240AE00198012102F0A0F880
:1042400003E00098012102F02BF9044694B12646C0
:104250002888C04340042AD4D5F8AC00B0F1405FB0
:1042600023D010DC08B3B0F1805F14D0B0F1005F50
:104270000FD115E02A6EDAF8001021F4E021114385
:10428000CAF80010E4E7B0F1804F0ED0B0F1A04FB3
:104290000BD001240AE00198012102F071F803E03B
:1042A0000098012102F0FCF8044674B126462888E3
:1042B000C04300041FD4E86ED8B1B0F1805F0ED0C7
:1042C000B0F1005F10D0012414E0D5F8AC20D8F88C
:1042D000001021F0E0411143C8F80010E7E738680A
:1042E00040F40030386004E00198012102F048F801
:1042F000044674B126462868C043C0011ED4A86C89
:10430000D0B101280ED0022811D0032814D00124E6
:1043100013E0EA6EDAF8001021F040511143CAF8B8
:104320000010E8E7386840F40030386004E0019895
:10433000022102F025F804466CB126462868C043E5
:10434000400255D41F48016841F480710160FFF7B5
:10435000E3FB81460EE0AA6CDBF8001021F00301BC
:104360001143CBF80010E9E7FFF7D6FBA0EB0900FB
:1043700064283BD813480068C005F5D5BCBBDFF8FE
:104380004090B5F8B01009F14409D9F8000001F4E3
:10439000407100F44070884211D0D9F80010D9F86B
:1043A000002021F4407142F48032C9F80020D9F88D
:1043B000002022F48032C9F80020C9F8001003E080
:1043C0002C44025800480258D5F8B000B0F5807F60
:1043D00019D1FFF7A1FB029011E000BFFFF79CFB92
:1043E0000299411A41F28830814208D903242646B5
:1043F0002878DFF81494C043C00721D03CE0D9F8F6
:1044000000008007EAD5D5F8B010C1F301200328D9
:10441000FE480DD0016821F47C510160B5F8B02050
:10442000D9F80010C2F30B021143C9F80010DFE7FE
:10443000F74A036802EA111223F47C511143ECE7B6
:10444000A86F182816D005DCA0B1082808D01028BD
:1044500004D10AE020280DD028280BD001240AE03E
:104460000198012101F08CFF03E00098012102F086
:1044700017F8044664B126462878C04380071ED446
:10448000686F062819D2DFE800F0160C1116161610
:10449000AA6FD9F8001021F038011143C9F80010B3
:1044A000EAE70198012101F06BFF03E00098012188
:1044B00001F0F6FF04467CB100E00124264628788E
:1044C000C04340071FD4D5F89000062819D2DFE872
:1044D00000F0160C111616166A6FD9F8001021F0AC
:1044E00007011143C9F80010E9E70198012101F023
:1044F00047FF03E00098012101F0D2FF0446A4B178
:1045000000E0012426462878C04380062BD4D5F845
:104510008C00B0F1405F24D011DC10B3B0F1805FAB
:1045200015D0B0F1005F10D116E0D5F89020D8F882
:10453000001021F007011143C8F80010E3E7B0F1C3
:10454000804F0ED0B0F1A04F0BD001240AE00198AB
:10455000002101F015FF03E00098022101F0A0FF07
:10456000044694B126462878C04340062BD4D5F89B
:104570009800B0F5406F24D011DC10B3B0F5806F17
:1045800015D0B0F5006F10D116E0D5F88C20D9F811
:10459000001021F0E0411143C9F80010E3E7B0F545
:1045A000805F0ED0B0F5A05F0BD001240AE0019827
:1045B000002101F0E5FE03E00098022101F070FF08
:1045C000044694B126462878C04300062BD4D5F87B
:1045D0009C00B0F5C04F24D011DC10B3B0F5005FE3
:1045E00015D0B0F5804F10D116E0D5F89820D8F846
:1045F000001021F4E0511143C8F80010E3E7B0F5D2
:10460000004F0ED0B0F5204F0BD001240AE00198E6
:10461000002101F0B5FE03E00098022101F040FF07
:10462000044654B126462878C04300071ED4D5F866
:104630008000B0F5805F0AD00FE0D5F89C20D8F854
:10464000001021F460411143C8F80010EBE7009816
:10465000022101F025FF00B10126D5F88020D9F80C
:10466000001021F440511143C9F800102878C043CC
:10467000C00613D4D5F89400B0F5807F05D100981A
:10468000022101F00DFF00B10126D5F89420D8F8E1
:10469000001021F440711143C8F800102868C0438D
:1046A000000316D4D5F8A00038B1B0F5803F09D08A
:1046B000B0F5003F0BD001240AE00198002101F081
:1046C0005FFE03E00098022101F0EAFE04468CB18F
:1046D00026462868C043400322D4D5F88400B0F5AC
:1046E000801F11D0B0F5001F13D0B0F5401F15D0BA
:1046F000012414E0D5F8A020D8F8001021F44031AE
:104700001143C8F80010E4E7386840F4003038601E
:1047100004E00098012101F0C3FE04465CB1264686
:104720002868C043C0031CD4286D70B1B0F5803F29
:1047300010D0012414E0D5F88420D9F8001021F419
:1047400040111143C9F80010EAE7386840F400301E
:10475000386004E00198022101F012FE0446DCB149
:1047600026462868C043800005D40098022101F045
:1047700097FE00B101262868C04380031BD4E86F70
:10478000B8B1B0F5807F10D0B0F5007F11D0B0F592
:10479000407F0ED001240DE02A6DDBF8001021F4DB
:1047A00080311143CBF80010DBE7386840F400306B
:1047B00038607CB326462868C043C00207D42A6FFD
:1047C000DAF8001021F000411143CAF800102868FF
:1047D000C043800207D4AA6EDAF8001021F080717D
:1047E0001143CAF800102868C043400009D40748A4
:1047F000016821F4004101600168D5F8B42011433B
:1048000001602868C04306E054440258104402582E
:10481000CFFFFF001DE007D46A6DDBF8001021F028
:1048200040511143CBF800102868C043000208D45F
:10483000D5F88820D9F8001021F440011143C9F8B7
:10484000001028790024C04300F00100204309D063
:104850000EE0EA6FD9F8001021F440711143C9F855
:104860000010A8E70198002101F08AFD00B106467A
:104870002879C04300F00200204305D101980121AE
:1048800001F07EFD00B106462879C04300F0040027
:10489000204305D10198022101F072FD00B10646C6
:1048A0002879C04300F00800204305D1009800217A
:1048B00001F0F6FD00B106462879C04300F0100073
:1048C000204305D10098012101F0EAFD00B1064620
:1048D0002879C04300F02000044304D1009802214D
:1048E00001F0DEFD00B916B10120BDE8FE8F002009
:1048F000FBE700002DE9F05F04000F467ED0DFF8F3
:104900003882D8F8000000F00F00B8420CD2D8F876
:10491000001021F00F013943C8F80010D8F800004A
:1049200000F00F00B84269D12078844D40070AD5C5
:104930002069296801F07001884204D9296821F0B2
:1049400070010143296020787C4E361D00070AD58E
:104950006069316801F07001884204D9316821F042
:104960007001014331602078C0060AD5A069316822
:1049700001F4E061884204D9316821F4E061014327
:1049800031602078DFF8B4B180060BF1080B0CD54C
:10499000E1695846DBF8002002F07002914204D928
:1049A000026822F070020A430260207880070AD56C
:1049B000E068296801F00F01884204D9296821F0D4
:1049C0000F01014329602078C0073ED05B49A268EF
:1049D0002868183920F47060104328606068022845
:1049E00018D0032819D00968012819D049070029CF
:1049F0004ADADFF848A1AAF1080A00E044E0DAF850
:104A0000002022F007020243CAF80020FFF784F8D2
:104A1000814612E009688903E9E709688901E6E748
:104A2000C905E4E7FFF778F8A0EB090141F2883007
:104A3000814202D90320BDE8F09F6168DAF80000E6
:104A400000F03800B0EBC10FECD1207880070AD518
:104A5000E068296801F00F01884204D2296821F03A
:104A60000F0101432960D8F80010404601F00F0102
:104A7000B9420BD9016821F00F0139430160006888
:104A800000F00F00B84201D00120D4E720784007A1
:104A90000AD52069296801F07001884204D229688A
:104AA00021F0700101432960207800070AD5606970
:104AB000316801F07001884204D2316821F0700140
:104AC000014331602078C0060AD5A069316801F43D
:104AD000E061884204D2316821F4E0610143316031
:104AE000207880060CD5E1695846DBF8002002F0FA
:104AF0007002914204D2026822F070020A430260FE
:104B000000F09AF80E492A682B68C2F3032203F0DA
:104B10000F038A5CC95C02F01F0201F01F01D04044
:104B2000084A20FA01F11160074908600748006847
:104B3000BDE8F05FFFF72CB800200052184402587F
:104B4000189E000804000024000000240800002033
:104B500070B5144C3F220260124A24680832131DBB
:104B6000114D04F00704446016681C1D06F47066BD
:104B70008660166806F00F06C660126802F07002C2
:104B800002611A6802F0700242611A6802F4E0627F
:104B90008261226802F07002C261286800F00F0092
:104BA000086070BD104402580020005230B500F07B
:104BB00043F80B4A0B490C4B15681468C5F30322E4
:104BC00004F00F048A5C095D02F01F0201F01F016E
:104BD000D040064A20FA01F119601060084630BD45
:104BE00018440258189E0008040000240000002405
:104BF00000B5FFF7DBFF05490968054AC1F302115B
:104C0000515C01F01F01C84000BD00001C44025867
:104C1000189E000800B5FFF7C9FF05490968054A55
:104C2000C1F30221515C01F01F01C84000BD00002A
:104C30001C440258189E0008454970B5454809684B
:104C4000434B103B11F0380208D00111082A03D061
:104C5000102A0BD0182A0BD0084670BD1968890697
:104C6000FBD51968C1F3C101C84070BD3A4870BD99
:104C70003749374D18310C1D24350A6809682668F4
:104C80002D6802F0030406F00102C1F30511C5F31B
:104C9000CC0515FB02F200EE102AB8EE400AE9B38B
:104CA0002F4ADFED2E0AB7EE001A6CB1DFED2D1A98
:104CB000012C01D0022C43D002EE101A1068F8EE3D
:104CC000422A81EEA22A1EE01C68A40611D51B68A8
:104CD00001EE901A1168C3F3C103F8EE612AD840BF
:104CE00001EE900AC1F30800F8EE611A81EEA22AE3
:104CF0000BE001EE901ADFED1C2A00BFF8EE611AFE
:104D0000106882EEA12AC0F3080001EE900AF8EEC6
:104D1000611A40EE201A31EE810A00E015E022EE21
:104D2000000A1068C0F34620401C00EE900AF8EE1E
:104D3000600A80EE201ABCEEC10A10EE100A70BDA7
:104D400001EE901ADFED092AD8E7002070BD0000BF
:104D5000104402580090D00300366E010000003964
:104D6000304402580024744A0024744C001BB74B92
:104D70002DE9F05F04007DD0FF4F2078FE4D1837FD
:104D8000DFF8F483103DC00748D0D8F80000396838
:104D900000F03800102815D0182803D101F00300C6
:104DA00002280FD06068B0F5803F12D010B1B0F586
:104DB000A02F18D0286820F480302860286820F4BC
:104DC000802009E02868800328D560680028D2D0B8
:104DD00024E0286840F480302860606888B1FEF7DD
:104DE0009BFE064609E0286840F480202860F0E732
:104DF000FEF792FE801B64287ED828688003F7D5D2
:104E00000CE0FEF789FE064605E000BFFEF784FED3
:104E1000801B6428F0D828688003F7D420788007A6
:104E200056D5D8F80000DFF85093396810F03800F4
:104E3000A9F10C090ED0182801D188070AD0E06822
:104E4000A8B3296821F0190101432960FEF764FE27
:104E5000064628E02868400702D5E06800288AD086
:104E6000E168286820F0190008432860FEF754FE26
:104E7000064606E0D2E000BFFEF74EFE801B022889
:104E8000BAD828684007F7D5217CD9F8002022F04D
:104E9000FE4242EA0161C9F8001019E0FEF73CFE4B
:104EA000801B0228A8D828684007F7D5ECE7FFE761
:104EB000286820F001002860FEF72EFE064604E078
:104EC000FEF72AFE801B022896D828684007F7D4F0
:104ED0002078C00646D5D8F80000DFF89C923968E3
:104EE00000F03800A9F10409082812D0182805D1CB
:104EF00001F00300012800E0CEE00AD0E0690028BC
:104F0000286820D040F080002860FEF705FE0646A5
:104F100015E02868C00502D5E06980287ED194F8A4
:104F20002010D9F8002022F07C5242EA0161C9F831
:104F3000001017E0FEF7F0FD801B0228A0D82868BB
:104F4000C005F7D5EBE720F080002860FEF7E4FD10
:104F5000064604E0FEF7E0FD801B022890D8286892
:104F6000C005F7D42078000729D5834861696430EB
:104F700000298146016811D041F001010160FEF76E
:104F8000CBFD064605E000BFFEF7C6FD801B0228EC
:104F900088D8D9F800008007F6D510E021F001018B
:104FA0000160FEF7B9FD064605E000BFFEF7B4FD5F
:104FB000801B022870D8D9F800008007F6D420782A
:104FC000800623D5A0690028286810D040F48050BE
:104FD0002860FEF7A1FD064605E000BFFEF79CFD38
:104FE000801B022858D828688004F7D50EE020F4EA
:104FF00080502860FEF790FD064604E0FEF78CFD29
:10500000801B022848D828688004F7D420784007FD
:1050100051D5DFF86891D9F8001000E015E141F4AE
:105020008071C9F80010FEF777FD064605E000BF65
:10503000FEF772FD801B64282ED8D9F80000C00549
:10504000F6D54D4EA068603601280AD008B1052873
:1050500013D0306820F001003060306820F0040088
:1050600002E0306840F001003060A06841F2883A08
:1050700098B1FEF751FD81460AE0306840F0040027
:105080003060EEE7FEF748FDA0EB0901514503D87B
:1050900030688007F6D50EE072E0FEF73DFD8146F0
:1050A00006E000BFFEF738FDA0EB0901514567D8C7
:1050B00030688007F6D4606A00287CD0DFF8B8A09A
:1050C000D8F800100AF1200A4FF6F87B0AF104081C
:1050D000C1F3C2010329AAF104096DD0022828688E
:1050E00020F08070286003D0FEF716FD044681E0B2
:1050F000FEF712FD064604E0FEF70EFD801B0228B7
:1051000075D828688001F7D4E26A40F2F331386834
:1051100054F8283F884340EA021018433860217B46
:105120004FF4FE0C22894FF0FE47208A4902267D6B
:10513000521E401EA1F5007189B2C2F3080211434C
:10514000761E0CEA00400143484607EA0662114316
:10515000CAF80010D9F8001021F00101C9F80010B8
:10516000D8F80030266A23EA0B0343EAC601C8F8E0
:105170000010D9F8001004E010440258004802580A
:1051800035E0A26921F00C011143C9F80010016853
:10519000E26921F0020111430160016841F48031AC
:1051A0000160016841F400310160016841F480212F
:1051B0000160016801E06CE020E041F00101016064
:1051C000286840F080702860FEF7A6FC044604E0E2
:1051D000FEF7A2FC001B022809D828688001F7D539
:1051E00057E000BFFEF798FC001B022802D90320FD
:1051F000BDE8F09F28688001F4D44AE039680128AE
:10520000DAF8000021D0A26A01F0030393421CD116
:10521000E26AC1F305118A4217D1216BC0F308027B
:10522000491E8A4211D1616BC0F34622491E914248
:105230000BD1A16BC0F30642491E914205D1E16B2F
:10524000C0F30660491E814201D00120D0E7A16C65
:105250004646D8F80000C0F3CC00814219D0D9F8F6
:1052600000004D4620F00100C9F80000FEF754FC94
:105270004FEA0007FEF750FCB842FBD0A26C306842
:1052800020EA0B0040EAC2003060286840F00100CC
:1052900028600020ACE770472DE9F047044600681D
:1052A000002103694269876894F8816000F1300940
:1052B0005FEA025C03EA02050AD51A0708D581698C
:1052C00041F400618161204600F04FFABDE8F087AB
:1052D00015F0600F08D1680706D5616F2046884732
:1052E000216F20468847012105F04100012805D1A2
:1052F000680703D4216F20468847012105F022006A
:10530000022806D1680704D4616F2046BDE8F04743
:1053100008470029DAD128074FF001085BD520683B
:10532000816941F0080181612068816941F01001C3
:1053300081612068816941F40061816120680169AF
:1053400021F0080101612068806810F4404F20D0EE
:1053500023E0E0680F2806D92068616E006B0860C2
:10536000606E001D0FE0072806D9B9F80000616ED5
:105370000880606E801C06E02068616E90F8300046
:105380000870606E401C6066B4F86A00401EA4F8A5
:105390006A00B4F86A000028DBD1204601F016F953
:1053A00084F88180D4F8840018B12046FFF773FF99
:1053B0008CE7052E07D0042E09D0032E86D1204677
:1053C00000F0D4F982E7204600F0D1F97EE72046CC
:1053D00000F0CAF97AE715F4587FE9D068060AD5D3
:1053E000D4F8840040F00400C4F884002068816987
:1053F00041F040018161A8050AD5D4F8840040F04D
:105400000100C4F884002068816941F40071816161
:10541000E8050AD5D4F8840040F00800C4F88400F8
:105420002068816941F480718161A8060AD5D4F8A9
:10543000840040F08000C4F884002068816941F055
:1054400020018161D4F884000028B1D0206840F2A6
:105450006B32C7F381310368032923F00101016036
:105460002068016921EA0201016102D084F881808B
:105470009BE72068104D816821F440418160E06F16
:1054800050B10565E06FFCF755FF28B1D4F88400F2
:1054900040F04000C4F88400A06F002888D0056563
:1054A000A06FFCF747FF00288CD0D4F8840040F0B0
:1054B0004000C4F8840009E7896600082DE9F04738
:1054C000040029D0594A4FF000092068584B594D23
:1054D0009042C4F8289006D0984204D0A84202D046
:1054E000E1680F2918D8E1684FF0010AE76B08312D
:1054F000C9080AEB57167143904205D0984203D071
:10550000A84201D0082907D8904203D0984201D080
:10551000A84204D1102902D90120BDE8F08794F8EF
:10552000810020B9204684F8809000F085F80220A0
:1055300084F881002068016821F001010160206881
:10554000A1698268B1F1806F02F4F81110D162682C
:10555000B2F5800F01D01AB10AE0A26B22B107E0C8
:10556000A26BB2F1805F03D1026842F48052026004
:105570006068400209D5E068072806D32068236DDB
:10558000026822F480721A4303E02068026822F461
:1055900080720260A66AE069E26B25683043E368C6
:1055A0000A4310431843A860D4E90D02D4E90581E9
:1055B000636A25691843D4F820C00A43266810435B
:1055C0002843A56DD4E90172D4E9123140EA0800FC
:1055D00040EA0C0038430843104318432843F06066
:1055E000606868B92068816821F4C05141F40061A5
:1055F00081602068816821F4C06141F4806181602C
:105600002068016D21F0010101656068400206D546
:105610002068626DC16821F000411143C160C4F887
:10562000849084F881A0002077E7000000300140DA
:1056300000380040003C00402DE9F041B4B007467E
:1056400014212EA8FBF7BAF8B8216846FBF7B6F884
:105650003F493868884277D181140020179004466A
:10566000CDE900106846FEF7A7FC08B1FCF7BDFCC9
:105670003848016841F480410160006800F48040CE
:10568000339034480838016841F004010160016832
:1056900001F004013391016841F0020101600068EA
:1056A000022503264FF0050800F002000621CDE98F
:1056B0002E15CDE9328028482EA9CDE93046FEF7D7
:1056C00017F92903254830AACDE92E152EA982E81D
:1056D0005001FEF70DF9224E4FF480682149272230
:1056E000304631604FF44031C6E90124C6E9034831
:1056F0007461B461C6E907417462FDF7D1FA08B17B
:10570000FCF773FC164D4023164928227835FE67B6
:105710001831B76302C5D902281F85E81C012C6126
:105720006C61C5E906412C622D1FFDF7B9FA08B17D
:10573000FCF75BFCBD6700220521AF632420FEF768
:1057400089FA2420FEF778FA34B0BDE8F081000031
:1057500000380040E844025800080258000402588B
:1057600000010020100002407047704770477047EA
:10577000024A136883430B431360704704040058C4
:10578000401EB0F1807F10B501D3012010BD4FF055
:10579000E02460610F21601701F031FE0020A0615C
:1057A0000721216110BD704770477047F0B590F830
:1057B0003C20012A41D0224E012480F83C400222A4
:1057C00080F83D2002681F4D5368B242D2F808C0ED
:1057D00001D0AA4203D14F6823F470033B430F6802
:1057E00023F070031F4357600268B24219D0B2F130
:1057F000804F16D0144B9A4213D0144B9A4210D0BB
:10580000134B9A420DD0AA420BD0124B9A4208D0A9
:10581000114B9A4205D0114B9A4202D0104B9A423A
:1058200004D189682CF0800319439160002180F82D
:105830003D4080F83C100846F0BD0220F0BD00005D
:105840000000014000040140000400400008004046
:10585000000C0040001800400040014000E0004003
:1058600000E4004010B5040003D094F83D0010B1EE
:1058700007E0012010BD002084F83C00204600F025
:1058800022F8022084F83D002068211D01F06EF806
:10589000012084F8480084F83E0084F83F0084F832
:1058A000400084F8410084F8420084F8430084F802
:1058B000440084F8450084F8460084F8470084F8E2
:1058C0003D00002010BD704790F83D10012901D027
:1058D000012070471A4A022180F83D100168CB6808
:1058E00043F00103CB60006890421AD0B0F1804FC2
:1058F00017D01449884214D01349884211D0134953
:1059000088420ED0124988420BD01249884208D0F2
:105910001149884205D01149884202D01049884275
:1059200007D181680F4A1140062906D0B1F5803FA2
:1059300003D0016841F001010160002070470000C0
:10594000000001400004004000080040000C00403E
:1059500000040140001800400040014000E0004009
:1059600000E400400700010070472DE9F0410446C3
:1059700000680027C6680569A90713D5B10711D5C6
:10598000FA1E026101212177206880698007204684
:1059900002D0FFF7E9FF04E000F0B4F8204600F081
:1059A00089F92777680716D5700714D52268022071
:1059B0006FF00401116120772068806910F4407F46
:1059C000204602D0FFF7D0FF04E000F09BF820460D
:1059D00000F070F92777280715D5300713D522680E
:1059E00004206FF00801116120772068C0698007EA
:1059F000204602D0FFF7B8FF04E000F083F820460D
:105A000000F058F92777E80616D5F00614D5226875
:105A100008206FF01001116120772068C06910F430
:105A2000407F204602D0FFF79FFF04E000F06AF8B5
:105A3000204600F03FF92777E80708D0F00706D0A6
:105A400021686FF001000861204600F034F9280653
:105A500001D4A80408D5300606D521686FF4025099
:105A600008612046FFF7A0FEE80508D5300606D5F8
:105A700021686FF4807008612046FFF794FE680685
:105A800008D5700606D521686FF0400008612046F1
:105A900000F018F9A8060AD5B00608D521686FF0FD
:105AA000200008612046BDE8F041FFF77EBEBDE85A
:105AB000F081000010B586B0044614216846FAF75C
:105AC0007DFE0D492068884213D10C48016841F0E1
:105AD000020101600068002100F002000590022030
