:020000040800F2
:10000000800A00246D030008E12800089D04000810
:100010009D040008E90800084D35000800000000B4
:100020000000000000000000000000008303000842
:10003000EB08000800000000E3030008252B00087F
:100040008B0300088B0300088B0300088B03000858
:100050008B0300088B0300088B0300088B03000848
:100060008B0300088B0300088B0300088B03000838
:100070008B0300088B0300088B0300088B03000828
:100080008B0300088B0300088B0300088B03000818
:100090008B0300088B0300088B0300088B03000808
:1000A0008B0300088B0300088B0300088B030008F8
:1000B000E52D00088B0300088B0300088B03000864
:1000C0008B0300088B0300088B0300088B030008D8
:1000D0008B0300088B0300088B0300088B030008C8
:1000E0008B0300088B030008000000008B0300084E
:1000F0008B0300088B0300088B0300088B030008A8
:100100008B0300088B0300088B0300088B03000897
:100110008B0300088B0300088B0300088B03000887
:100120008B0300088B0300088B0300088B03000877
:100130008B0300088B0300088B0300088B03000867
:1001400000000000000000000000000000000000AF
:100150008B0300088B0300088B0300088B03000847
:100160008B0300088B0300088B0300088B03000837
:100170008B0300088B0300088B03000800000000BD
:100180008B0300088B0300088B0300088B03000817
:100190008B0300088B0300088B0300088B03000807
:1001A0008B0300088B0300088B030008000000008D
:1001B0008B0300088B0300088B0300088B030008E7
:1001C0008B0300088B030008000000000000000003
:1001D00000000000000000008B0300080000000089
:1001E000000000000000000000000000000000000F
:1001F00000000000000000008B0300088B030008D3
:100200008B0300088B030008000000008B0300082C
:100210008B0300088B0300088B0300088B03000886
:100220008B030008000000008B03000800000000A2
:100230008B0300088B030008000000008B030008FC
:100240008B0300088B0300088B0300088B03000856
:100250008B0300088B0300088B0300088B03000846
:100260008B0300088B0300088B0300088B03000836
:100270008B0300088B0300088B03000800000000BC
:100280008B0300088B0300088B0300088B03000816
:10029000000000008B0300088B0300080000000032
:1002A000000000008B0300088B0300088B0300088C
:1002B0008B0300088B0300088B0300088B030008E6
:1002C0008B0300088B0300088B03000800F002F882
:1002D00000F03CF80AA090E8000C82448344AAF1A4
:1002E0000107DA4501D100F031F8AFF2090EBAE8A2
:1002F0000F0013F0010F18BFFB1A43F0010318475A
:10030000A0580000E0580000103A24BF78C878C117
:10031000FAD8520724BF30C830C144BF04680C600B
:10032000704700000023002400250026103A28BF53
:1003300078C1FBD8520728BF30C148BF0B60704757
:100340001FB505F07CFA1FBD10B510BD00F092FA84
:100350001146FFF7F5FF00F0C2FA00F0B0FA03B45F
:10036000FFF7F2FF03BC00F0B3FA00000A48804731
:100370000A4880470A480047FEE7FEE7FEE7FEE737
:10038000FEE7FEE7FEE7FEE7FEE7FEE70548064973
:10039000064A074B70470000F10800080D2D0008C1
:1003A000CD02000880080020800A0024800A002076
:1003B00080060024EFF3108072B6704780F3108837
:1003C0007047444A1368012B04D04FF001031360B7
:1003D000414A1060414A116041484FF0805101602C
:1003E0007047EFF3108272B63A48016851B34FF08C
:1003F000000101603848016891B1EFF309811EF0F6
:10040000100F08BF21ED108B21E9F00F4FF0000411
:100410001EF0100F08BF012441F8044D0068016070
:100420002E490968096808C9B1E8F00F002B18BF08
:10043000B1EC108B81F309884EF0100E002B18BF21
:100440002EF0100E82F310884EF0040E70472349F0
:100450000860EFF3148222F0040282F314881E492C
:100460004FF0000008601B494FF0010008601D4874
:100470001D49D0F8002041EA0201016018484FF000
:100480008051016019480068006880F3088861B6EF
:1004900062B6BFF34F8FBFF36F8F70471EF0040F2C
:1004A0000CBFEFF30880EFF3098020E9F00F40F86C
:1004B00004ED40F804ED1EF0040F0CBF80F3088833
:1004C00080F3098800B504F0C5F95DF804EB4EF03F
:1004D000040E7047100000240C0000241C000020B3
:1004E00004ED00E020ED00E00000FFFF08ED00E07B
:1004F00053EA020C00F069802DE9F04B4FF0000642
:10050000002B1FBFB3FA83F503FA05F424FA05F6AE
:100510005E4012BF1643B2FA82F502FA05F4C5F145
:1005200020051EBF22FA05FC44EA0C04203556EAD9
:10053000044C4FEA144418BF641C4FF000084FF0FD
:100540000009904271EB030C39D3002919BFB1FAAD
:1005500081F701FA07F6B0FA80F700FA07F6C7F15B
:1005600020071EBF20FA07FC46EA0C062037B6FB20
:10057000F4FCA7EB0507103F07F01F0BCBF120069B
:100580000CFA0BFB2CFA06F644BFB3460026202FCC
:10059000A4BF5E464FF0000B5BEA060C08BF4FF0AD
:1005A000010B19EB0B09ABFB027C48EB0608C01BE7
:1005B00006FB02CC0BFB03CC71EB0C01C1E70B4635
:1005C000024641464846BDE8F08B13B54FF00000A7
:1005D0004FF00001AFF30080BDE81C40704740EAD7
:1005E0000103024630B59B0710D14FF0013400E003
:1005F00008C208C91D1B9D4315EAC41FF8D013F09B
:10060000FF0102F8011B0DD01B0AF8E711F8013BAE
:10061000002B02F8013B05D011F8013B002B02F83A
:10062000013BF3D130BD10B5431C02E010F8011BB3
:1006300071B18107FAD14FF0013202C88C1A8C4394
:1006400014EAC211F9D0C01A0A0603D0C01E10BDA8
:10065000C01A10BD0A0401D0801E10BD0902FCD0D2
:10066000401E10BD40EA010370B59B072ED14FF02C
:100670000136042A2AD308C810C99D1B9D43121FA6
:1006800015EAC61517D0D8B2E1B2401A50EA056192
:1006900010D198B2A1B2401A50EA05410AD123F014
:1006A0007F4024F07F41401A50EA052102D1180E04
:1006B000A0EB146070BDA342DBD018BA21BA884207
:1006C00001D9012070BD4FF0FF3070BD0AB9002084
:1006D00070BD10F8013B11F8014B63B1A3420AD180
:1006E000521E08D010F8013B11F8014B1BB1A34278
:1006F00001D1521EEDD1181B70BD421E12F8013FF0
:10070000002BFBD111F8013B002B02F8013BF9D182
:1007100070474FF0000200B51346944696462039C4
:1007200022BFA0E80C50A0E80C50B1F12001BFF4AA
:10073000F7AF090728BFA0E80C5048BF0CC05DF810
:1007400004EB890028BF40F8042B08BF704748BF5E
:1007500020F8022B11F0804F18BF00F8012B7047D2
:1007600010B5044610F0030F08BF11F0030F40F05E
:1007700015804FF0013E121FC0F20E8051F8043B6D
:10078000A3EB0E0C2CEA030C1CEACE1C08BF40F8AD
:10079000043BF0D0A1F1040102F10402521E08DB77
:1007A00011F8013B002B00F8013BF7D1114600F096
:1007B0003AF8204610BD00004FF0013C50F8042BE1
:1007C00051F8043B9A4215D1A2EB0C03934313EA70
:1007D000CC130BD150F8042B51F8043B9A4209D1A9
:1007E000A2EB0C03934313EACC13E7D04FF00000C5
:1007F000704700BFD01A01BAB1FA81F101F01801B7
:1008000022FA01F0CB40C1F12001DBB2C0B2C01A24
:100810002CFA01F3D11A914311EAC311E6D17047C2
:100820007047704770474FF000020429C0F01280F3
:1008300010F0030C3FF46FAFCCF1040CBCF1020FCD
:1008400018BF00F8012BA8BF20F8022BA1EB0C0168
:10085000FFF761BF5FEAC17C24BF00F8012B00F8FD
:10086000012B48BF00F8012B70470000004870477B
:100870001C0600247546FFF7F9FFAE4605006946E1
:10088000534620F00700854618B020B5FFF77EFDDF
:10089000BDE820404FF000064FF000074FF0000881
:1008A0004FF0000B21F00701AC46ACE8C009ACE802
:1008B000C009ACE8C009ACE8C0098D46704710B566
:1008C0000446AFF300802046BDE81040FFF747BD67
:1008D00001491820ABBEFEE726000200704710B5A4
:1008E00004F0FCFE002010BDFEE7704772B6FEE784
:1008F000054805490839026842F0020202600868AA
:100900008004FCD5704700000C4802582DE9F84FD0
:1009100003247A4D00234FF001094FF0B04B4FF004
:100920000F0AE4E009FA03F6324078D00F7907F0B5
:100930000307012F01D0022F1AD187684FEA430E17
:10094000D1F80CC004FA0EF827EA08070CFA0EFCDE
:100950004CEA070CC0F808C0476891F804C0B743D8
:10096000CCF3001C0CFA03FC4CEA070CC0F804C0E2
:100970000E79F643B6070BD0C6684FEA43088F6876
:1009800004FA08FC26EA0C0607FA08F73743C760A2
:100990000E7906F00306022E12D1DE080F694FEA27
:1009A000437C00EB8606B646366A4FEADC6C0AFAF0
:1009B0000CF807FA0CF726EA08063743CEF8207041
:1009C0000F7906684FEA430807F0030704FA08FCAA
:1009D00007FA08F726EA0C06374307604E6816F454
:1009E000403F1CD0464E376847F0020737603668F4
:1009F0009F0706F00206009623F0030606F1B046B4
:100A0000B6463F0FD6F80864DFF8F8800AFA07FC0C
:100A1000404526EA0C0603D14FF0000C3AE065E0B1
:100A2000DFF8E4C0604502D14FF0010C32E0DFF89E
:100A3000DCC0604502D14FF0020C2BE0DFF8D0C0E3
:100A4000604502D14FF0030C24E0DFF8C8C06045D8
:100A500002D14FF0040C1DE0DFF8BCC0604502D1AC
:100A60004FF0050C16E0DFF8B4C0604502D14FF03E
:100A7000060C0FE0DFF8A8C0604502D14FF0070C6C
:100A800008E0DFF8A0C0604502D14FF0090C01E09A
:100A90004FF00A0C0CFA07FC4CEA060CCEF808C41E
:100AA0004F68DBF80060FF0226EA020600D5164315
:100AB0005F46CBF80060D1F804C0DBF804605FEA61
:100AC0008C2C26EA020600D516437E606E684F68BD
:100AD00026EA0206BF0300D516436E602E684F68F3
:100AE00026EA0206FF0300D516432E605B1C0A6847
:100AF00032FA03F67FF416AFBDE8F88F8000005895
:100B0000F444025800000258000402580008025839
:100B1000000C025800100258001402580018025825
:100B2000001C0258002402580148806870470000E9
:100B300000000020024881680278114481607047FB
:100B400000000020032010B500F0FAF801F0CAF808
:100B50000F4A104914681368C4F3032203F00F030B
:100B60008A5CC95C02F01F0201F01F01D0400A4AF2
:100B700020FA01F11160094908600F2000F010F817
:100B800008B1012010BD00F09FF8002010BD00004A
:100B90001844025870580008040000240000002483
:100BA00010B5102804468AB02DD2002201461C2020
:100BB00000F0A6F81C2000F095F8184804601848CA
:100BC000016841F001010160006809A900F001001D
:100BD0000890684601F012F80598B8B101F05EF887
:100BE00040001049002240F2E733B0FBF1F10E481B
:100BF0004FF080440460C0E90332491EC0E901128D
:100C000001F0B5FB28B101200AB010BD01F046F893
:100C1000E7E7054801F0DEFBF6E7000004000020EE
:100C2000E844025840420F0044000020154BF0B544
:100C3000083B427813491A600B680A1F23F001032E
:100C40000B6043681360057BC67A827A437B2D076D
:100C5000847B45EA0665C77B90F809C0067A90F860
:100C600000E045EAC24040EA834040EA444040EAAE
:100C7000074040EA0C2040EA460040EA0E000860C7
:100C8000F0BD0000A0ED00E0BFF35F8F044800213D
:100C90000368034A23F480330360703211607047A5
:100CA00024ED00E0074A40F0010006497032106070
:100CB000086840F480300860BFF34F8FBFF36F8F38
:100CC0007047000024ED00E0054808B5016841F0D8
:100CD00002010160006800F00200009008BD000001
:100CE000F4440258002809DB410900F01F02890082
:100CF000012001F1E0219040C1F80001704700009F
:100D00000E4BF0B41B680D46C3F30223C3F1070674
:100D1000042E00D90426191D072901D2002300E062
:100D2000DB1E012404FA06F19C40491E2940641E82
:100D3000994014402143F0BC02F009BC0CED00E0E6
:100D4000064900F0070210B54FF6FF040868044B8F
:100D5000204040EA02201843086010BD0CED00E07E
:100D60000000FA05134970B50A68D243520705D549
:100D7000096801F00701814213D118E00A6822F0E6
:100D8000070202430A60FFF7CFFE0A4D4FF47A765E
:100D90000446083D07E000BFFFF7C6FE001BB04257
:100DA00001D9012070BD2868C0438004F4D400201C
:100DB00070BD00000C48025810B500F04DFF054909
:100DC0000968054AC1F30211515C01F01F01C840D6
:100DD00010BD00002044025870580008494930B541
:100DE000484C0B1D0A68143409681D68246802F019
:100DF0000303C5F30012C1F30531C4F3CC04002989
:100E000014FB02F200EE102AF8EE400A75D03F4AB9
:100E10009FED3D1AB7EE000A6BB1DFED3D1A012BD5
:100E200001D0022B64D002EE101A1168F8EE422AAB
:100E300081EEA22A21E0334C283C23689B0612D580
:100E4000344B246801EE901A1168C4F3C104F8EE23
:100E5000612AE34001EE903AC1F30801F8EE611A0D
:100E600081EEA22A0BE001EE901ADFED2B2A00BFE3
:100E7000F8EE611A116882EEA12AC1F3080101EEB1
:100E8000901A1168F8EE611A40EE811A71EE800A2C
:100E900062EE200AC1F3462101EE101AB8EE411AA3
:100EA00031EE001AC0EE811ABCEEE11A80ED001A94
:100EB0001168C1F3064101EE101AB8EE411A31EE85
:100EC000001AC0EE811ABCEEE11A80ED011A116819
:100ED000C1F3066101EE101AB8EE411A31EE000AB4
:100EE00080EE801ABCEEC10A80ED020A30BD04E03B
:100EF00001EE901ADFED092ABAE700210160416096
:100F00008160F3E728440258000000393844025851
:100F10000024744A0090D0030024744C001BB74B8B
:100F2000494930B5484C0B1D0A681C3409681D68D6
:100F3000246802F00303C5F30022C1F30551C4F392
:100F4000CC04002914FB02F200EE102AF8EE400A4D
:100F500075D03F4A9FED3D1AB7EE000A6BB1DFED49
:100F60003D1A012B01D0022B64D002EE101A116839
:100F7000F8EE422A81EEA22A21E0334C283C236875
:100F80009B0612D5344B246801EE901A1168C4F305
:100F9000C104F8EE612AE34001EE903AC1F3080182
:100FA000F8EE611A81EEA22A0BE001EE901ADFED55
:100FB0002B2A00BFF8EE611A116882EEA12AC1F354
:100FC000080101EE901A1168F8EE611A40EE811ADC
:100FD00071EE800A62EE200AC1F3462101EE101A7A
:100FE000B8EE411A31EE001AC0EE811ABCEEE11AD9
:100FF00080ED001A1168C1F3064101EE101AB8EE37
:10100000411A31EE001AC0EE811ABCEEE11A80EDF1
:10101000011A1168C1F3066101EE101AB8EE411A07
:1010200031EE000A80EE801ABCEEC10A80ED020AA1
:1010300030BD04E001EE901ADFED092ABAE7002185
:10104000016041608160F3E72844025800000039E4
:10105000404402580024744A0090D0030024744C89
:10106000001BB74B2DE9FE4F0546DFF800A450F8F2
:10107000081B0024FD4FC943019005F128002646B6
:101080000AF1240A009008011DD4686E50B1B0F531
:10109000801F0CD0B0F5001F0ED0B0F5401F1ED041
:1010A00001240FE0386840F40030386017E0019800
:1010B000022101F017FC03E00098022101F0A2FCDC
:1010C00004000CD026462888C043C00523D4A86D50
:1010D00005281ED2DFE800F00C11161B1B006A6EFB
:1010E000DAF8001021F440111143CAF80010EAE7C1
:1010F000386840F40030386009E00198002101F0C0
:10110000F1FB03E00098002101F07CFC0446C4B12F
:1011100000E0012426462888DFF85083C04308F108
:101120002C0840052FD4D5F8A400B0F5C00F28D066
:1011300010DCB8B1B0F5001F19D0B0F5800F0FD199
:101140001AE0AA6DDAF8001021F007011143CAF87D
:101150000010E0E7B0F5000F13D0B0F5200F10D06D
:1011600001240FE0386840F40030386009E001984D
:10117000002101F0B7FB03E00098002101F042FCE0
:10118000044694B126462888C043000530D4D5F8DB
:10119000A800B0F1407F29D011DCC0B1B0F1807F50
:1011A0001AD0B0F1007F10D11BE0D5F8A420D8F8F8
:1011B000001021F460011143C8F80010E3E7B0F11A
:1011C000806F13D0B0F1A06F10D001240FE0386809
:1011D00040F40030386009E00198002101F082FB02
:1011E00003E00098002101F00DFC044694B126466E
:1011F0002868DFF878B2C0430BF1200B80011FD4C0
:10120000E86CD8B110280FD0202812D0302815D083
:10121000012414E0D5F8A820D8F8001021F0E061EE
:101220001143C8F80010E3E7386840F40030386034
:1012300004E00198022101F055FB044674B12646F2
:101240002888C043C0042BD4E86DB0F5005F20D0DF
:101250000DDCA0B1B0F5805F0FD115E0EA6CDBF8D2
:10126000001021F030011143CBF80010E8E7B0F591
:10127000405F13D0B0F5804F10D001240FE03868E4
:1012800040F40030386009E00198002101F02AFBA9
:1012900003E00098002101F0B5FB04468CB126461E
:1012A0002888C043800429D4286EB0F5403F23D05D
:1012B00010DC08B3B0F5803F14D0B0F5003F0FD17B
:1012C00015E0EA6DDAF8001021F4E0411143CAF8A4
:1012D0000010E5E7B0F5802F0ED0B0F5A02F0BD0B1
:1012E00001240AE00198012101F0FCFA03E00098D2
:1012F000012101F087FB044694B126462888C043AB
:1013000040042AD4D5F8AC00B0F1405F23D010DC03
:1013100008B3B0F1805F14D0B0F1005F0FD115E0D9
:101320002A6EDAF8001021F4E0211143CAF8001007
:10133000E4E7B0F1804F0ED0B0F1A04F0BD0012404
:101340000AE00198012101F0CDFA03E000980121A3
:1013500001F058FB044674B126462888C0430004B7
:101360001FD4E86ED8B1B0F1805F0ED0B0F1005F4D
:1013700010D0012414E0D5F8AC20D8F8001021F0EA
:10138000E0411143C8F80010E7E7386840F4003046
:10139000386004E00198012101F0A4FA044674B118
:1013A00026462868C043C0011ED4A86CD0B10128CD
:1013B0000ED0022811D0032814D0012413E0EA6EC5
:1013C000DAF8001021F040511143CAF80010E8E7A4
:1013D000386840F40030386004E00198022101F0E0
:1013E00081FA04466CB126462868C043400255D4B1
:1013F0001F48016841F480710160FFF795FB814649
:101400000EE0AA6CDBF8001021F003011143CBF8C9
:101410000010E9E7FFF788FBA0EB090064283BD840
:1014200013480068C005F5D5BCBBDFF84090B5F89F
:10143000B01009F14409D9F8000001F4407100F43A
:101440004070884211D0D9F80010D9F8002021F45A
:10145000407142F48032C9F80020D9F8002022F40B
:101460008032C9F80020C9F8001003E02C4402586B
:1014700000480258D5F8B000B0F5807F19D1FFF7C9
:1014800053FB029011E000BFFFF74EFB0299411A97
:1014900041F28830814208D9032426462878DFF8B3
:1014A0001494C043C00721D03CE0D9F80000800765
:1014B000EAD5D5F8B010C1F301200328FE480DD0BD
:1014C000016821F47C510160B5F8B020D9F8001012
:1014D000C2F30B021143C9F80010DFE7F74A0368B3
:1014E00002EA111223F47C511143ECE7A86F18288B
:1014F00016D005DCA0B1082808D0102804D10AE0D5
:1015000020280DD028280BD001240AE001980121C1
:1015100001F0E8F903E00098012101F073FA0446B4
:1015200064B126462878C04380071ED4686F062819
:1015300019D2DFE800F0160C11161616AA6FD9F8AA
:10154000001021F038011143C9F80010EAE70198B2
:10155000012101F0C7F903E00098012101F052FADE
:1015600004467CB100E0012426462878C0434007A9
:101570001FD4D5F89000062819D2DFE800F0160C29
:10158000111616166A6FD9F8001021F007011143E1
:10159000C9F80010E9E70198012101F0A3F903E07F
:1015A0000098012101F02EFA0446A4B100E00124C4
:1015B00026462878C04380062BD4D5F88C00B0F19D
:1015C000405F24D011DC10B3B0F1805F15D0B0F1D2
:1015D000005F10D116E0D5F89020D8F8001021F067
:1015E00007011143C8F80010E3E7B0F1804F0ED0B7
:1015F000B0F1A04F0BD001240AE00198002101F0C6
:1016000071F903E00098022101F0FCF9044694B15D
:1016100026462878C04340062BD4D5F89800B0F56C
:10162000406F24D011DC10B3B0F5806F15D0B0F549
:10163000006F10D116E0D5F88C20D9F8001021F0F9
:10164000E0411143C9F80010E3E7B0F5805F0ED028
:10165000B0F5A05F0BD001240AE00198002101F051
:1016600041F903E00098022101F0CCF9044694B15D
:1016700026462878C04300062BD4D5F89C00B0F548
:10168000C04F24D011DC10B3B0F5005F15D0B0F519
:10169000804F10D116E0D5F89820D8F8001021F42A
:1016A000E0511143C8F80010E3E7B0F5004F0ED049
:1016B000B0F5204F0BD001240AE00198002101F081
:1016C00011F903E00098022101F09CF9044654B19D
:1016D00026462878C04300071ED4D5F88000B0F510
:1016E000805F0AD00FE0D5F89C20D8F8001021F4D4
:1016F00060411143C8F80010EBE70098022101F0A7
:1017000081F900B10126D5F88020D9F8001021F424
:1017100040511143C9F800102878C043C00613D4C3
:10172000D5F89400B0F5807F05D10098022101F032
:1017300069F900B10126D5F89420D8F8001021F4F9
:1017400040711143C8F800102868C043000316D444
:10175000D5F8A00038B1B0F5803F09D0B0F5003F12
:101760000BD001240AE00198002101F0BBF803E04E
:101770000098022101F046F904468CB126462868FB
:10178000C043400322D4D5F88400B0F5801F11D0A7
:10179000B0F5001F13D0B0F5401F15D0012414E0A0
:1017A000D5F8A020D8F8001021F440311143C8F832
:1017B0000010E4E7386840F40030386004E0009836
:1017C000012101F01FF904465CB126462868C04398
:1017D000C0031CD4286D70B1B0F5803F10D0012437
:1017E00014E0D5F88420D9F8001021F440111143F9
:1017F000C9F80010EAE7386840F40030386004E0C7
:101800000198022101F06EF80446DCB126462868F2
:10181000C043800005D40098022101F0F3F800B124
:1018200001262868C04380031BD4E86FB8B1B0F527
:10183000807F10D0B0F5007F11D0B0F5407F0ED082
:1018400001240DE02A6DDBF8001021F480311143F2
:10185000CBF80010DBE7386840F4003038607CB328
:1018600026462868C043C00207D42A6FDAF8001061
:1018700021F000411143CAF800102868C0438002DB
:1018800007D4AA6EDAF8001021F080711143CAF86B
:1018900000102868C043400009D40748016821F4BB
:1018A000004101600168D5F8B42011430160286847
:1018B000C04306E05444025810440258CFFFFF00D2
:1018C0001DE007D46A6DDBF8001021F04051114390
:1018D000CBF800102868C043000208D4D5F888204F
:1018E000D9F8001021F440011143C9F800102879FB
:1018F0000024C04300F00100204309D00EE0EA6F4D
:10190000D9F8001021F440711143C9F80010A8E77C
:101910000198002100F0E6FF00B106462879C04397
:1019200000F00200204305D10198012100F0DAFF08
:1019300000B106462879C04300F00400204305D1D9
:101940000198022100F0CEFF00B106462879C0437D
:1019500000F00800204305D10098002101F052F862
:1019600000B106462879C04300F01000204305D19D
:101970000098012101F046F800B106462879C043DD
:1019800000F02000044304D10098022101F03AF84D
:1019900000B916B10120BDE8FE8F0020FBE7000072
:1019A0002DE9F05F04000F467ED0DFF83882D8F8CA
:1019B000000000F00F00B8420CD2D8F8001021F05F
:1019C0000F013943C8F80010D8F8000000F00F00EC
:1019D000B84269D12078844D40070AD5206929682A
:1019E00001F07001884204D9296821F07001014397
:1019F000296020787C4E361D00070AD56069316861
:101A000001F07001884204D9316821F0700101436E
:101A100031602078C0060AD5A069316801F4E06120
:101A2000884204D9316821F4E061014331602078B3
:101A3000DFF8B4B180060BF1080B0CD5E16958460C
:101A4000DBF8002002F07002914204D9026822F013
:101A500070020A430260207880070AD5E06829688E
:101A600001F00F01884204D9296821F00F010143D8
:101A700029602078C0073ED05B49A26828681839E1
:101A800020F47060104328606068022818D0032892
:101A900019D00968012819D0490700294ADADFF866
:101AA00048A1AAF1080A00E044E0DAF8002022F098
:101AB00007020243CAF80020FFF736F8814612E019
:101AC00009688903E9E709688901E6E7C905E4E7E8
:101AD000FFF72AF8A0EB090141F28830814202D9D0
:101AE0000320BDE8F09F6168DAF8000000F03800DC
:101AF000B0EBC10FECD1207880070AD5E0682968E7
:101B000001F00F01884204D2296821F00F0101433E
:101B10002960D8F80010404601F00F01B9420BD9F6
:101B2000016821F00F0139430160006800F00F00E7
:101B3000B84201D00120D4E7207840070AD52069B7
:101B4000296801F07001884204D2296821F07001EF
:101B500001432960207800070AD56069316801F0E7
:101B60007001884204D2316821F070010143316074
:101B70002078C0060AD5A069316801F4E061884286
:101B800004D2316821F4E06101433160207880069D
:101B90000CD5E1695846DBF8002002F07002914252
:101BA00004D2026822F070020A43026000F09AF840
:101BB0000E492A682B68C2F3032203F00F038A5CE4
:101BC000C95C02F01F0201F01F01D040084A20FA50
:101BD00001F111600749086007480068BDE8F05F3F
:101BE000FEF7DEBF0020005218440258705800086B
:101BF00004000024000000240400002070B5144CF0
:101C00003F220260124A24680832131D114D04F06D
:101C10000704446016681C1D06F47066866016682A
:101C200006F00F06C660126802F0700202611A68C0
:101C300002F0700242611A6802F4E0628261226876
:101C400002F07002C261286800F00F00086070BDE9
:101C5000104402580020005230B500F043F80B4AFF
:101C60000B490C4B15681468C5F3032204F00F04EC
:101C70008A5C095D02F01F0201F01F01D040064A94
:101C800020FA01F119601060084630BD184402586E
:101C900070580008040000240000002400B5FFF77D
:101CA000DBFF05490968054AC1F30211515C01F0E7
:101CB0001F01C84000BD00001C44025870580008B5
:101CC00000B5FFF7C9FF05490968054AC1F30221BC
:101CD000515C01F01F01C84000BD00001C440258C7
:101CE00070580008454970B545480968434B103B9A
:101CF00011F0380208D00111082A03D0102A0BD0A5
:101D0000182A0BD0084670BD19688906FBD51968DA
:101D1000C1F3C101C84070BD3A4870BD3749374D65
:101D200018310C1D24350A68096826682D6802F0F0
:101D3000030406F00102C1F30511C5F3CC0515FB40
:101D400002F200EE102AB8EE400AE9B32F4ADFEDA6
:101D50002E0AB7EE001A6CB1DFED2D1A012C01D05E
:101D6000022C43D002EE101A1068F8EE422A81EEDF
:101D7000A22A1EE01C68A40611D51B6801EE901A69
:101D80001168C3F3C103F8EE612AD84001EE900A4E
:101D9000C1F30800F8EE611A81EEA22A0BE001EE11
:101DA000901ADFED1C2A00BFF8EE611A106882EE6F
:101DB000A12AC0F3080001EE900AF8EE611A40EE85
:101DC000201A31EE810A00E015E022EE000A1068C8
:101DD000C0F34620401C00EE900AF8EE600A80EE48
:101DE000201ABCEEC10A10EE100A70BD01EE901A66
:101DF000DFED092AD8E7002070BD0000104402582A
:101E00000090D00300366E010000003930440258C3
:101E10000024744A0024744C001BB74B2DE9F05F7A
:101E200004007DD0FF4F2078FE4D1837DFF8F48393
:101E3000103DC00748D0D8F80000396800F03800DD
:101E4000102815D0182803D101F0030002280FD064
:101E50006068B0F5803F12D010B1B0F5A02F18D057
:101E6000286820F480302860286820F4802009E069
:101E70002868800328D560680028D2D024E028682C
:101E800040F480302860606888B1FEF74DFE064659
:101E900009E0286840F480202860F0E7FEF744FE5F
:101EA000801B64287ED828688003F7D50CE0FEF7F5
:101EB0003BFE064605E000BFFEF736FE801B6428A9
:101EC000F0D828688003F7D42078800756D5D8F852
:101ED0000000DFF85093396810F03800A9F10C09C0
:101EE0000ED0182801D188070AD0E068A8B3296865
:101EF00021F0190101432960FEF716FE064628E08D
:101F00002868400702D5E06800288AD0E168286880
:101F100020F0190008432860FEF706FE064606E09A
:101F2000D2E000BFFEF700FE801B0228BAD8286866
:101F30004007F7D5217CD9F8002022F0FE4242EA82
:101F40000161C9F8001019E0FEF7EEFD801B0228C0
:101F5000A8D828684007F7D5ECE7FFE7286820F005
:101F600001002860FEF7E0FD064604E0FEF7DCFD18
:101F7000801B022896D828684007F7D42078C0062E
:101F800046D5D8F80000DFF89C92396800F0380098
:101F9000A9F10409082812D0182805D101F003007E
:101FA000012800E0CEE00AD0E0690028286820D0AF
:101FB00040F080002860FEF7B7FD064615E028686F
:101FC000C00502D5E06980287ED194F82010D9F8A8
:101FD000002022F07C5242EA0161C9F8001017E0AB
:101FE000FEF7A2FD801B0228A0D82868C005F7D5FF
:101FF000EBE720F080002860FEF796FD064604E03F
:10200000FEF792FD801B022890D82868C005F7D4FF
:102010002078000729D5834861696430002981460A
:10202000016811D041F001010160FEF77DFD064617
:1020300005E000BFFEF778FD801B022888D8D9F89C
:1020400000008007F6D510E021F001010160FEF7E5
:102050006BFD064605E000BFFEF766FD801B02280B
:1020600070D8D9F800008007F6D42078800623D5F0
:10207000A0690028286810D040F480502860FEF73E
:1020800053FD064605E000BFFEF74EFD801B02280B
:1020900058D828688004F7D50EE020F480502860D6
:1020A000FEF742FD064604E0FEF73EFD801B0228D7
:1020B00048D828688004F7D42078400751D5DFF845
:1020C0006891D9F8001000E015E141F48071C9F879
:1020D0000010FEF729FD064605E000BFFEF724FDCF
:1020E000801B64282ED8D9F80000C005F6D54D4EC7
:1020F000A068603601280AD008B1052813D03068DE
:1021000020F001003060306820F0040002E0306808
:1021100040F001003060A06841F2883A98B1FEF7C3
:1021200003FD81460AE0306840F004003060EEE7CD
:10213000FEF7FAFCA0EB0901514503D8306880078F
:10214000F6D50EE072E0FEF7EFFC814606E000BF38
:10215000FEF7EAFCA0EB0901514567D8306880071B
:10216000F6D4606A00287CD0DFF8B8A0D8F8001058
:102170000AF1200A4FF6F87B0AF10408C1F3C20104
:102180000329AAF104096DD00228286820F0807084
:10219000286003D0FEF7C8FC044681E0FEF7C4FCCB
:1021A000064604E0FEF7C0FC801B022875D82868AC
:1021B0008001F7D4E26A40F2F331386854F8283FDE
:1021C000884340EA021018433860217B4FF4FE0C2C
:1021D00022894FF0FE47208A4902267D521E401E6A
:1021E000A1F5007189B2C2F308021143761E0CEA10
:1021F00000400143484607EA06621143CAF800104E
:10220000D9F8001021F00101C9F80010D8F8003009
:10221000266A23EA0B0343EAC601C8F80010D9F87E
:10222000001004E0104402580048025835E0A2694A
:1022300021F00C011143C9F800100168E26921F096
:10224000020111430160016841F4803101600168BD
:1022500041F400310160016841F4802101600168AE
:1022600001E06CE020E041F001010160286840F0ED
:1022700080702860FEF758FC044604E0FEF754FC2A
:10228000001B022809D828688001F7D557E000BF55
:10229000FEF74AFC001B022802D90320BDE8F09F8C
:1022A00028688001F4D44AE039680128DAF800008F
:1022B00021D0A26A01F0030393421CD1E26AC1F368
:1022C00005118A4217D1216BC0F30802491E8A42C8
:1022D00011D1616BC0F34622491E91420BD1A16B13
:1022E000C0F30642491E914205D1E16BC0F306607E
:1022F000491E814201D00120D0E7A16C4646D8F8A2
:102300000000C0F3CC00814219D0D9F800004D463E
:1023100020F00100C9F80000FEF706FC4FEA0007B4
:10232000FEF702FCB842FBD0A26C306820EA0B003A
:1023300040EAC2003060286840F0010028600020B8
:10234000ACE7401EB0F1807F10B501D3012010BD75
:102350004FF0E02460610F21601701F0F8F80020D1
:10236000A0610721216110BD70477047704710B50B
:10237000040003D094F83D0010B107E0012010BD27
:10238000002084F83C00204600F022F8022084F867
:102390003D002068211D00F02BFD012084F848003D
:1023A00084F83E0084F83F0084F8400084F841003F
:1023B00084F8420084F8430084F8440084F845001F
:1023C00084F8460084F8470084F83D00002010BDE2
:1023D0007047000090F83D10012901D0012070479E
:1023E0001A4A022180F83D100168CB6843F00103CE
:1023F000CB60006890421AD0B0F1804F17D01449DA
:10240000884214D01349884211D0134988420ED013
:10241000124988420BD01249884208D0114988429B
:1024200005D01149884202D01049884207D18168FD
:102430000F4A1140062906D0B1F5803F03D001684C
:1024400041F00101016000207047000000000140E0
:102450000004004000080040000C0040000401405F
:10246000001800400040014000E0004000E400404F
:102470000700010070472DE9F0410446006800277D
:10248000C6680569A90713D5B10711D5FA1E0261FF
:1024900001212177206880698007204602D0FFF75C
:1024A000E9FF04E000F08BF8204600F089F8277778
:1024B000680716D5700714D5226802206FF0040152
:1024C000116120772068806910F4407F204602D097
:1024D000FFF7D0FF04E000F072F8204600F070F83B
:1024E0002777280715D5300713D5226804206FF009
:1024F0000801116120772068C0698007204602D05A
:10250000FFF7B8FF04E000F05AF8204600F058F852
:102510002777E80616D5F00614D5226808206FF054
:102520001001116120772068C06910F4407F2046B7
:1025300002D0FFF79FFF04E000F041F8204600F0D2
:102540003FF82777E80708D0F00706D021686FF03A
:1025500001000861204600F034F8280601D4A804E0
:1025600008D5300606D521686FF402500861204670
:10257000FFF7FBFEE80508D5300606D521686FF4A5
:10258000807008612046FFF7EFFE680608D57006E8
:1025900006D521686FF040000861204600F018F869
:1025A000A8060AD5B00608D521686FF0200008619A
:1025B0002046BDE8F041FFF7D9BEBDE8F081704785
:1025C00070470068B0F1804F01D1FEF7B3BA704791
:1025D000704730B590F88410012918D0012280F896
:1025E00084202421C0F888100022202401680B6870
:1025F0000D6823F0005325F001050D604266016867
:102600000B60C0F8884080F88420104630BD02205E
:1026100030BD70B5044690F8840001281DD0012219
:1026200084F884202420C4F88800206805680268A3
:1026300022F0010202602068826822F060620A4390
:102640008260204600F044FC2268202100201560B2
:10265000C4F8881084F8840070BD022070BD70B585
:10266000044690F8840001281DD0012284F88420BB
:102670002420C4F8880020680568026822F001025E
:1026800002602068826822F060420A43826020462D
:1026900000F01EFC2268202100201560C4F888107C
:1026A00084F8840070BD022070BD10B5040003D012
:1026B000D4F8880010B107E0012010BD002084F894
:1026C0008400204600F026F82420C4F88800206802
:1026D000016821F001010160A06A10B1204600F0FC
:1026E00019FC204600F0FAFC0128E6D02068416879
:1026F00021F4904141602068816821F02A018160C5
:102700002068016841F0010101602046BDE81040E9
:1027100000F064BC10B5B4B0044614212EA8FDF737
:10272000F8FFB8216846FDF7F4FF19492068884290
:102730002BD100201E9001210446CDE900106846EF
:10274000FEF790FC08B1FEF7D1F81248016841F09D
:1027500010010160006800F0100033900D4810383F
:10276000016841F00101016000682EAB022100F018
:10277000010033904FF4C060072283E8130006483D
:102780002EA9CDE93142FEF7C1F834B010BD0000EA
:1027900000100140F0440258000002582DE9F843AF
:1027A0000446D0F88800984616460D46202802D0E8
:1027B0000220BDE8F883A5B19EB10021C4F89010B5
:1027C0002120C4F888001834FEF7AEF9814654F889
:1027D000100CA687E6872027183CB0F5805F02D052
:1027E00003E00120E5E7206910B12E46002510E046
:1027F00000260EE08021204600F05EFEC0B9DEB16A
:1028000016F8010B21688862B4F85600401EA4F83F
:102810005600B4F856004B464FF00002CDF8008049
:102820000028E7D14FF04001204600F045FE48B1B6
:10283000C4F888700320BCE735F8020B2168C0F3A8
:102840000800E0E7C4F888700020B2E7094808B53E
:10285000016841F080010160016801F08001009190
:10286000016841F001010160006800F00100009082
:1028700008BD0000E04402581848002110B5164C6D
:102880000C224FF4E1330460C0E90131C160C0E9BA
:1028900004128161C161016241628162FFF705FF3B
:1028A00008B1FEF723F80D480021FFF7D8FE08B164
:1028B000FEF71CF809480021FFF7ABFE08B1FEF750
:1028C00015F80648FFF785FE002803D0BDE8104044
:1028D000FEF70CB810BD0000001001407C00002481
:1028E000FEE700002DE9F047454D044689464FF0CC
:1028F000000A2868C04380070AD0414E283E30684D
:1029000020F080603060FEF70FF90746B04608E01F
:102910000120BDE8F08700BFFEF706F9C01B0228C2
:1029200067D8D8F800000001F6D4206829684FF471
:10293000FE0721F47C313E0241EA00302860207A13
:10294000A389B4F804C040022D4D2D495B1E227CA2
:10295000ACF1010C1035091DA0F5007080B2521EBB
:10296000CCF3080C07EA034340EA0C00184306EADC
:102970000262104328600868626920F0C0001043BA
:1029800008600A68A06922F0200202430A60281D3C
:102990000A6822F010020A6002684FF6F873E469D0
:1029A0009A4342EAC40202600868B9F1000F40F09D
:1029B00010020A6011D00868B9F1010F11D040F47B
:1029C00000100860D8F80000444640F08060C8F865
:1029D0000000FEF7A9F805460DE0086840F4002065
:1029E000EFE740F48010ECE7FEF79EF8401B02286A
:1029F00001D903208DE720680001F5D5504688E70E
:102A0000284402582DE9F047454D044689464FF0C9
:102A1000000A2868C04380070AD0414E283E30682B
:102A200020F080503060FEF77FF80746B04608E09F
:102A30000120BDE8F08700BFFEF776F8C01B022832
:102A400067D8D8F800008000F6D4208829684FF4B1
:102A5000FE0721F07C713E0241EA00502860207A96
:102A6000A389B4F804C040022D4D2D495B1E227C81
:102A7000ACF1010C1835091DA0F5007080B2521E92
:102A8000CCF3080C07EA034340EA0C00184306EABB
:102A90000262104328600868626920F440601043B5
:102AA00008600A68A06922F4007202430A60281DC7
:102AB0000A6822F480720A6002684FF6F873E469CB
:102AC0009A4342EAC40202600868B9F1000F40F478
:102AD00080720A6011D00868B9F1010F11D040F07E
:102AE00080700860D8F80000444640F08050C8F874
:102AF0000000FEF719F805460DE0086840F4800074
:102B0000EFE740F40000ECE7FEF70EF8401B022868
:102B100001D903208DE720688000F5D5504688E76D
:102B20002844025810B501F0BBFF02F069FBBDE874
:102B3000104001F0C3BF000030B59DB04C21684685
:102B4000FDF7E7FD202113A8FDF7E3FD0220FEF7C6
:102B500009F91D48016821F4404101600168002421
:102B600001F440411B9101688904FCD502200A90C0
:102B700028230990C20301210C25CDE90012CDE9DB
:102B80000B03CDE90D10CDE910540F906846129457
:102B9000FFF744F908B172B6FEE740201A90082307
:102BA0000501CDE9163013ABCDE918053F2103220D
:102BB00083E8160013A81146FEF7F2FE002801D0A4
:102BC00072B6FEE71DB030BD18480258454870B5D2
:102BD000444B0168103B444811F0380105D00829E6
:102BE00008D0102908D0182908D01968C1F3C101EC
:102BF000C84063E03D4861E03D485FE03949394DF8
:102C000018310C1D24350A68096826682D6802F001
:102C1000030406F00102C1F30511C5F3CC0515FB51
:102C200002F200EE102AB8EE400AC9B3324ADFEDD4
:102C3000310AB7EE001A1CB1012C13D0022C30D08F
:102C40001B6801EE901A1168C3F3C103F8EE612A04
:102C5000D84001EE900AC1F30800F8EE611A81EE47
:102C6000A22A04E001EE901ADFED242A1DE001EE15
:102C7000900A1068F8EE611A40EE201A31EE810ACF
:102C800022EE000AC0F34620401C00EE900AF8EE47
:102C9000600A80EE201ABCEEC10A10EE100A0DE0A8
:102CA0000BE001EE901ADFED162A1068F8EE611ABB
:102CB000C0F3080082EEA12AD9E700200949114B90
:102CC0000831114A0C680D68C4F3032105F00F04A4
:102CD000595C1B5DC84003F01F0120FA01F1C2E9F5
:102CE000000170BD104402580090D00300093D005F
:102CF00000366E0100000039304402580024744A46
:102D0000001BB74B70580008000000242D48F0B598
:102D10002D4A016841F470010160106800F00F0055
:102D2000072804D2106820F00F00C01D106027494A
:102D30000020264C10340B68254D43F001030B6036
:102D400020600B682B400B60136803F00F03072B08
:102D500004D9136823F00F03DB1D13601B4C1D4ABD
:102D600018341D4B261D371D2060184C1B4D283470
:102D70003060261D3860371D23603B1D35601C1DEB
:102D80003A60251D2E1D1860331D226028603260B8
:102D900018600B680D4A0D4C23F48023D4320B606D
:102DA000603420601068C0040BD4136843F2D20072
:102DB0000B4943F4805313600860106820F480507E
:102DC0001060F0BD88ED00E0002000520044025881
:102DD0007FEDF6EA80020101000202020000FF011D
:102DE000004000520148FFF746BB000044000020AD
:102DF0002DE9F0472C4B4FF0804A2C4D0268984249
:102E00002B4E2C4F2C4C09D0504507D0A84205D052
:102E1000B04203D0B84201D0A04205D1D1F804C0DD
:102E200022F070024CEA0202DFF890C0DFF89080D6
:102E30009842DFF8909015D0504513D0A84211D099
:102E4000B0420FD0B8420DD0A0420BD0604509D09F
:102E5000404507D0484505D01B4DA84202D01B4D28
:102E6000A84203D1CD6822F440722A438E684D698E
:102E700022F08002C6620E682A439842866207D01A
:102E8000A04205D0604503D0404501D0484501D15E
:102E9000096901630368012143F004030360416190
:102EA0000260BDE8F087000000000140000400401F
:102EB00000080040000C00400004014000400140B8
:102EC000004401400048014000E0004000E40040B0
:102ED00030B5416EB9B101680D4B03F108048A6841
:102EE0008968C2F34262490F5D5C615C2D01B5FBEC
:102EF000F1F1A0F86A10995CA25C0901B1FBF2F152
:102F0000A0F8681030BD0121A0F86A10F8E70000B1
:102F10006058000890F82810090706D50168836BEF
:102F20004A6822F400421A434A6090F82810C90700
:102F300006D00168C36A4A6822F400321A434A6024
:102F400090F82810890706D50168036B4A6822F4B7
:102F500080321A434A6090F82810490706D5016864
:102F6000436B4A6822F480221A434A6090F8281082
:102F7000C90606D50168C36B8A6822F480521A43D9
:102F80008A6090F82810890606D50168036C8A6863
:102F900022F400521A438A6090F82810490611D58D
:102FA0000168436C4A6822F480121A434A60416CFB
:102FB000B1F5801F06D10168836C4A6822F4C00213
:102FC0001A434A6090F82810090606D50168C26CB9
:102FD000486820F400201043486070472DE9F8430A
:102FE00000250446C0F89050FDF79EFD80462068FD
:102FF00020266FF07E470068000713D50022434665
:1030000031042046009700F057FA58B1216851E882
:10301000000F20F0800041E80002002AF6D1C4F839
:10302000886021E020680068400722D500224346DE
:103030004FF480012046009700F03EFAC8B12068A6
:1030400050E8001F21F4907140E80012002AF6D1E8
:103050002068083050E8001F21F0010140E800120C
:10306000002AF5D1C4F88C60032084F88450BDE8B0
:10307000F883C4F88860C4F88C60E5662567002092
:1030800084F88450F3E7000010B5026852E8001F8E
:1030900021F4907142E80013002BF6D10E4B026828
:1030A000083252E8001F194042E80014002CF6D103
:1030B000C16E012908D1026852E8001F21F01001F9
:1030C00042E80013002BF6D100212022C0F88C200A
:1030D000C166416710BD0000FEFFFFEF2DE9F04320
:1030E00004468068E24E87B0E24B2168D4E90427A9
:1030F000D4F81CC010430A68002547EA0C0738437F
:10310000324002430A602068E268416821F440517D
:10311000114341602268A1699A4201D0206A0143AB
:103120009668DFF854C3D54FD54806EA0C060E431F
:1031300096602168666ACA6A22F00F023243CA6248
:103140002268BA420ED1006800F0380018286FD00B
:103150007ADCB8B308286CD010286BD18BE0282813
:1031600068D18EE0C7498A4209D1006800F00700A3
:1031700006285FD2DFE800F0507D7F818385C24959
:103180008A4209D1006800F0070006287BD2DFE8F8
:1031900000F0437072747678BC498A4209D10068A5
:1031A00000F0070006286ED2DFE800F0366365679E
:1031B000696BB7498A420BD1006800F00700062806
:1031C00061D200E043E0DFE800F0275456585A5C33
:1031D000B0498A4206D1006800F0380018284CD067
:1031E000B7DD31E0AC498A4209D1006800F0070040
:1031F000062848D2DFE800F0103D3F414345A7498B
:103200008A420BD1006800F0070006283BD2DFE8B5
:1032100000F0033032343638002035E0A0498A42CD
:1032200009D1006800F03800182826D091DD0BE0A5
:1032300023E01EE027E09B498A420AD1006800F0A3
:103240003800182819D084DD202888D11CE00120FE
:103250001AE09A4217D18A48001D006800F0070062
:10326000062810D2DFE800F0030507090B0D022045
:103270000AE0042008E0082006E0102004E02020F6
:1032800002E0402000E080208749DFF820829A4257
:10329000874A4FF400434FEA21174FF000064ED102
:1032A00010281AD006DC022809D004280BD00828E0
:1032B0007ED10DE020283ED0402879D13DE0FDF7B9
:1032C0007BFD014610E06846FDF788FD01990BE0A3
:1032D00003A8FDF725FE049906E01068800605D5D1
:1032E0001068C0F3C100C140002970D0606A6768EF
:1032F00038F8102007EB4703B1FBF2F0834257D8B0
:10330000B0EB073F54D8002308461946FDF7F0F804
:1033100002467808130E120243EA012110183A46B9
:1033200071410023FDF7E4F8624AA0F54071914233
:103330003ED821688FE03946D8E71946D6E7D4F859
:103340001CC04FF6EF799C4546D1082819D005DC02
:1033500058B101280CD0042875D10DE0102815D0E3
:10336000202835D040286ED134E0FEF797FC01E0EC
:10337000FEF7A6FC014610E06846FDF72FFD019917
:103380000BE003A8FDF7CCFD049906E01068800669
:1033900004D51068C0F3C100C140C1B1636A606860
:1033A00038F81330B1FBF3F1490001EB500100E0B4
:1033B00049E0B1FBF0F0A0F11001494543D84FF6C8
:1033C000F0732168C0F342021840104343E043E029
:1033D0003946E3E71946E1E7082819D005DC58B17A
:1033E00001280CD004282ED10DE0102815D020285B
:1033F0002BD0402827D12AE0FEF750FC01E0FEF751
:103400005FFC014610E06846FDF7E8FC01990BE01F
:1034100003A8FDF785FD049906E01068800604D531
:103420001068C0F3C100C140B1B1636A606838F888
:103430001330B1FBF3F101EB5001B1FBF0F0A0F15F
:103440001001494505D9012506E03946EDE7194641
:10345000EBE7216880B2C8600120A4F86A00A4F8F4
:10346000680028466667A66707B0BDE8F0830000DD
:10347000F369FFCF000C0058FFF4FF11001001406A
:10348000544402580044004000480040004C0040B2
:10349000005000400014014000780040007C0040D3
:1034A00000180140001C01400090D003485800085B
:1034B00000440258FFFC0F002DE9F04799461746DB
:1034C0000D460446089E4FF0000833E0701C31D0D2
:1034D000FDF72AFBA0EB0900B04218D8BEB1206866
:1034E0000168490726D5802D24D0402D22D0C169FE
:1034F000C94309070DD4082505622046FFF7C4FD1E
:10350000C4F89050012084F88480BDE8F08703203F
:10351000FBE7C069C04300050CD421684FF400608C
:1035200008622046FFF7B0FD2021C4F8901084F80F
:103530008480ECE72068C06935EA000004D00020F0
:10354000B842C3D00020E0E70120F9E7FEE7090711
:1035500000284FEA116104DB00F1E02080F800143C
:10356000704700F00F0000F1E02080F8141D704754
:10357000002807D00E4910F0FF0F04D051FA80F058
:103580000078401C704710F47F4F04D0C0F3072030
:10359000085C0930704710F47F0F04D0C0F3074077
:1035A000085C1130704701EB1060007819307047EB
:1035B000805800082DE9F0470025914688B08A46DA
:1035C000064600E06D1C705D202803D0092801D05C
:1035D0005545F7D34FF0FF3835B31548134F0468FE
:1035E00009E020682A463146FDF73CF810B920680A
:1035F000405D20B10C3438688442F2D314E0A468F2
:1036000094B120226846002101F0DDFA6A46514655
:10361000304600F057FF38B16946A047C9F80000AE
:10362000002008B0BDE8F0874046FAE7100000200F
:103630000C00002010B5044605488068FFF798FF8D
:103640000449401E51F830102060A1F1140010BD53
:103650002C0000207C0700200C4870B50468FCF7A3
:10366000A9FE0546204601F0B9FB04F1440001F033
:1036700059FE042084F83400204601F0C3FC28469B
:10368000FCF79CFEBDE8704001F012BB300000204A
:103690002DE9FC411F4604461430DDE90831DDE91F
:1036A0000A65406000601846C4E90827C4E90A3189
:1036B0000A46232101F087FA04F120000FC81A44BA
:1036C0000E4B121F01F0D0F90146E161002084F891
:1036D0003560C4E90E05256423462063194684F845
:1036E000340020676067064A0090019004F14400AE
:1036F00001F02CFE0020BDE8FC81000059360008D6
:103700000537000870B50446FCF754FE05466FF017
:103710000100206304F1140001F004FA204601F0D6
:1037200023FB2846FCF74AFEBDE8704001F0C0BA12
:10373000143001F000BA00001BA010B501F0CCF964
:103740001C4C21781CA001F0C7F92078C00702D0DA
:103750001FA001F0C1F92078800702D51FA001F059
:10376000BBF92078400702D51FA001F0B5F92078F9
:10377000000702D520A001F0AFF92078C00602D5DD
:1037800020A001F0A9F92078000607D509480F30DC
:1037900001681EA0BDE8104001F09EB9BDE81040D0
:1037A0001EA001F099B90000627573206661756C06
:1037B000743A0A0029ED00E05343425F43465352F6
:1037C0005F424653523A307825303258200000008C
:1037D0004942555345525220000000005052454383
:1037E0004953455252200000494D505245434953D8
:1037F0004552522000000000554E53544B45525242
:103800002000000053544B45525220005343422D98
:103810003E424641523A253038580A000A0000001C
:1038200002A010B501F058F9002010BD1B5B324A10
:103830001B5B480010B502280C4611D1606815A129
:10384000FCF7BAFF00281BD0606814A1FCF7B4FF96
:10385000002818D0606813A1FCF7AEFF002815D02F
:1038600011A001F039F916A001F036F917A001F006
:1038700033F91DA001F030F922A001F02DF907E085
:1038800000F02CFB04E000F007FC01E000F084FAFB
:10389000002010BD746872656164000074696D6514
:1038A0007200000073656D0055736167653A206CA6
:1038B000697374205B6F7074696F6E735D0A0000CA
:1038C0005B6F7074696F6E735D3A0A002020202070
:1038D000746872656164202D206C6973742074684B
:1038E00072656164730A00002020202074696D6590
:1038F00072202D206C6973742074696D6572730A6F
:10390000000000002020202073656D202D206C69B0
:1039100073742073656D6170686F7265730A00005F
:103920000D4810B5C16891F82110890703D40B49DF
:10393000002008700EE0816821B108488022FCF761
:103940000FFF03E0054806A1FCF749FE034806A166
:10395000FCF7D3FE014810BD0C00002090000020B1
:103960006D736820000000003E0000000449C96833
:1039700091F8212060F3410281F821207047000076
:103980000C000020014AC2E9000170470C00002031
:103990007FB514491448FFF7F5FF144C0A23144D62
:1039A00015224FF4806105F1780000F58066E6602D
:1039B0008DE80F000F4A002378380FA101F062FB59
:1039C00000230646E0680EA11A4601F02BFA0120FA
:1039D000FFF7CCFF16B9284601F0BAFB04B000206F
:1039E00070BD0000A05B0008405B00080C000020D8
:1039F00014010020093A0008747368656C6C0000BB
:103A00007368727800000000984DE86890F8211003
:103A100041F0010180F82110FFF782FF01F05CF80E
:103A20005FF0000600F0D6FE0400FBD41B2C07D08C
:103A3000E86890F82010012907D002290ED017E07D
:103A4000E968012081F82000ECE75B2C02D080F8C7
:103A500020600DE0022180F82010E3E7412C80F87F
:103A60002060DFD0422CDDD0442C38D0432C44D011
:103A7000002CD7D0FF2CD5D0092C4ED07F2C72D063
:103A8000082C70D00D2C6DD00A2C6BD0B0F87410AF
:103A9000502901D3A0F87460B0F87630B0F87410F3
:103AA0008B427CD200F12207CA1A2330D91918445C
:103AB00001F070F8E868B0F8761022300C54E8682D
:103AC00090F82110C90706D0B0F8761022300144D2
:103AD00067A001F001F8E868B0F87640A0E0B0F81F
:103AE000760000289ED063A000F0F6FFE868B0F8EA
:103AF0007610491EA0F8761094E7B0F87610B0F86A
:103B0000742091428ED22230095C5BA000F0E4FF69
:103B1000E968B1F87600401C20E0002403E055A0DD
:103B200000F0DAFF641CE868B0F87600A042F6DC2A
:103B3000EC6852A0223400F0CFFF204600F016FCC3
:103B4000FFF7EEFE014622464DA000F0C5FFE868F3
:103B50002230FCF768FDE968A1F87400A1F876004E
:103B600060E700E03FE0B0F876100029C4D0B0F87C
:103B70007430491E8AB2A0F876205B1E99B2A0F874
:103B80007410914226D900F123032230891A13447C
:103B900010440A46194600F0FDFFE86800E045E0E1
:103BA000B0F8741022300E54E868B0F87610223065
:103BB000014435A000F090FFE868B0F8764003E0DB
:103BC0002CA000F089FF641CE868B0F87400A042E3
:103BD00092DBF5E72EA000F07FFFE868B0F87410E4
:103BE00022300E541EE790F82100C00702D023A017
:103BF00000F072FFE868B0F87410223000F000FCAA
:103C0000FFF78EFE00F068FFE868512200212230A5
:103C100000F0D9FFE86823E016A000F05DFF641C07
:103C2000E868B0F87400A042F6DC0AE022300C54D8
:103C3000E86890F82100C00703D00FA0214600F0EB
:103C40004BFFE868B0F87410491C89B220F8741F63
:103C50005029418801F101014180A0F17400C1D3D4
:103C6000A0F87460A0F87660DCE600000C0000208C
:103C70002573000008000000256300000A00000012
:103C8000257325730000000008257320200800001C
:103C90000820080010B5124C2068800702D511A03A
:103CA00000F01AFF2068400011D50D48C01E0078B2
:103CB00008B1FFF741FD0A48001F007808B100F085
:103CC000E9FA0748801E008808B101F04BFD206822
:103CD000002804DABDE8104008A000F0FDBE10BDC9
:103CE0002CED00E06661696C656420766563746F35
:103CF000722066657463680A00000000646562757E
:103D000067206576656E740A000000002DE9F041B9
:103D10001E46174604460D46084600F087FF002160
:103D2000001D206025726760C4E90361BDE8F08171
:103D30002DE9F0410D46CA680021296192B1297A26
:103D400081B12E6888B10446FCF734FB01462A7A1B
:103D5000A4F10C00007A20F08000904209D00846BF
:103D6000FCF72CFB0020BDE8F0813446FCF722FB79
:103D70000146686800272468B44201D1002404E0A9
:103D800010C0EA687F1CBA42F5D10846FCF716FB62
:103D900020462F61E7E700002DE9F04194B00027AD
:103DA0000823022132A40AAA04A8FFF7AFFF0820C3
:103DB00022468046014631A000F08EFE404600F0CB
:103DC000E9FB35A000F088FE04A93846FFF7B0FFF4
:103DD0000026074643E00AA850F826400C3CFCF7B2
:103DE000E9FA227A9DF8181022F080028A4202D065
:103DF000FCF7E4FA32E0FCF7E1FA616904F114003F
:103E0000054681421FD000F084FEA18B0822CDE937
:103E1000001027A02346414600F05EFE2C680CE00F
:103E20000821A4F1140226A000F056FE2068A84242
:103E300002D025A000F050FE2468AC42F0D115A0BD
:103E400000F04AFE0AE000F064FEA18B0822CDE9F2
:103E500000101EA02346414600F03EFE761C089846
:103E6000B042B8DC002FAFD114B00020BDE8F08123
:103E700073656D6170686F7265000000252D2A2ED4
:103E800073207620202073757370656E64207468CB
:103E9000726561640A000000202D2D2D202D2D2D2E
:103EA0002D2D2D2D2D2D2D2D2D2D2D0A0000000019
:103EB000252D2A2E2A7320253033642025643A00CC
:103EC000252E2A73000000002F000000252D2A2E29
:103ED0002A7320253033642025640A002DE9F0413F
:103EE000B4B00027082301213CA42AAA05A8FFF7A3
:103EF0000DFF08202246804601463A4800F0ECFDBE
:103F0000404600F047FB38A000F0E6FD05A9384622
:103F1000FFF70EFF0026074657E02AA850F8264074
:103F20000C3CFCF747FA217A05469DF81C0021F06D
:103F30008001814203D02846FCF740FA44E0782211
:103F400021460CA800F000FE2846FCF737FA94F84A
:103F50003500082223464146009033A000F0BCFD06
:103F600094F8340000F00700012807D0022807D099
:103F700040B1042808D0032808D00AE02DA006E0AC
:103F80002FA004E031A002E033A000E035A000F053
:103F9000A3FDA56A00E06D1C28782328FBD0206BC8
:103FA00000F0BEFFD4E90A12D4F840C06B1A6425B1
:103FB000D31ACDE900C06B43E069B3FBF2F3081AF2
:103FC00081182BA000F088FD761C0998B042A4DC73
:103FD000002F9BD134B00020BDE8F0817468726579
:103FE00061640000A4590008202D2D2D20202D2DC6
:103FF0002D2D2D2D2D202D2D2D2D2D2D2D2D2D2DFE
:10400000202D2D2D2D2D2D2D2D2D2D20202D2D2D07
:104010002D2D2D20202D2D2D2D2D2D2D2D2D2D20F7
:104020002D2D2D0A00000000252D2A2E2A73202573
:104030003364200020726561647920200000000054
:104040002073757370656E640000000020696E69EE
:10405000742020200000000020636C6F7365202016
:10406000000000002072756E6E696E67000000002F
:104070002030782530387820307825303878202066
:104080002020253032642525202020307825303826
:10409000782025730A000000F0B593B000260823AD
:1040A0000A2129A40BAA04A8FFF730FE08272246FC
:1040B00027A0394600F010FD384600F06BFA31A019
:1040C00000F00AFD04A93046FFF732FE002506463F
:1040D0002CE00BA850F825400C3CFCF76BF9227A39
:1040E0009DF8181022F080028A4202D0FCF766F98F
:1040F0001BE0FCF763F9D4E9090108222346CDE966
:1041000000012CA0394600F0E7FC607AC00701D01E
:104110002EA000E031A000F0DFFC607A800701D51E
:1041200032A000E034A000F0D7FC6D1C0898A84233
:10413000CFDC002EC6D101F05DF8014631A000F0C1
:10414000CBFC13B00020F0BD74696D6572000000F7
:10415000252D2A2E732020706572696F6469632093
:10416000202074696D656F75742020202061637450
:1041700069766174656420202020206D6F64650A73
:1041800000000000202D2D2D2D2D2D2D2D2D2D202D
:104190002D2D2D2D2D2D2D2D2D2D202D2D2D2D2D5C
:1041A0002D2D2D2D2D2D202D2D2D2D2D2D2D2D2D4C
:1041B0000A000000252D2A2E2A7320307825303859
:1041C00078203078253038782000000061637469E9
:1041D00076617465642020200000000064656163DE
:1041E000746976617465642000000000706572690E
:1041F0006F6469630A0000006F6E652073686F74F6
:104200000A00000063757272656E74207469636BD6
:104210003A3078253038780A000000001FB50024B5
:104220000094019402940394FCF72EFD01208DF874
:104230000C001F218DF8081087228DF809208DF8B9
:104240000D008DF8000068468DF80A408DF80E408C
:104250008DF8014001948DF80B408DF80F40FCF76C
:10426000E5FC0420FCF71EFDFCF76CFCFEF764FC8B
:10427000FEF7ECFAFEF700FB4FF4FA74204600F06C
:1042800019FFFBE710B500F059FABDE81040FFF741
:10429000C5BF000018A010B500F01EFC1B4C217813
:1042A0001BA000F019FC2078C00702D01EA000F06F
:1042B00013FC2078800702D51EA000F00DFC2078AA
:1042C000000702D51EA000F007FC2078C00602D52A
:1042D0001EA000F001FC2078000607D50B480C302A
:1042E00001681DA0BDE8104000F0F6BBBDE810401D
:1042F0001D4800F0F1BB00006D656D206D616E61C1
:104300006765206661756C743A0A000028ED00E06C
:104310005343425F434653525F4D4653523A3078BF
:1043200025303258200000004941434356494F4C44
:10433000200000004441434356494F4C20000000F8
:104340004D554E53544B4552522000004D53544B43
:1043500045525220000000005343422D3E4D4D4136
:10436000523A253038580A00D45700082DE9F04752
:104370000025814600782C4618B11E481E4F06685D
:104380002AE0BDE8F0470021084600F06BB8D6F8F7
:1043900000804846FCF747F9024641464846FCF78C
:1043A00061F9C0B925B944464046FCF73CF90546D9
:1043B0004146204601E0401C491C02781AB10B78A6
:1043C0000BB19A42F7D0001BA84200DA05464146DD
:1043D0000AA000F081FB0C3638688642D7D3002C47
:1043E00006D02A4621464846BDE8F04700F0AEBD5B
:1043F000BDE8F0870C0000201000002025730A00A3
:1044000038B5044601E0491E641C59B120782028C3
:10441000F9D00928F7D06A462046FFF7CBF818B143
:10442000204604E0002038BD009838BD401C0178CB
:10443000202901D00029F9D10021017003A02146D3
:1044400000F04AFB4FF0FF3038BD000025733A20E2
:10445000636F6D6D616E64206E6F7420666F756E34
:10446000642E0A0070B50AA000F036FB10480F4D0C
:10447000046805E0D4E900120EA000F02DFB0C3416
:1044800028688442F6D30EA000F026FB002070BD01
:1044900052542D546872656164207368656C6C2099
:1044A000636F6D6D616E64733A0A00001000002046
:1044B0000C000020252D313673202D2025730A0095
:1044C0000A00000070B515460022134614464BE062
:1044D0005B1C00F8012B0678202E01D0092E01D19B
:1044E0008B42F5D3082C11D321A000F0F5FA002659
:1044F00006E000BF55F8261025A000F0EDFA761C66
:10450000A642F7D321A000F0E7FA2FE08B422DD28C
:10451000F6B2222E03D045F82400641C1BE0401C98
:104520005B1C45F82400641C08E05C2E04D146782E
:10453000222E01D1401C5B1C401C5B1C0678222EE5
:1045400001D08B42F1D38B4210D25B1C00F8012BBF
:104550000AE0401C5B1C0678202E03D0092E01D0F7
:104560008B42F6D38B4201D28B42B4D3204670BD2E
:10457000546F6F206D616E79206172677320212006
:104580005765206F6E6C79205573653A0A000000FC
:104590002573200010B5044602E003A000F09CFA49
:1045A000641EFAD210BD00002D0000002DE9F04F6E
:1045B00085B09A46109CDDE90EB56606AE4601D57B
:1045C000464B01E0454B113BE606994601D524F0E8
:1045D0000104E30701D0302300E020234FF0000660
:1045E000A70704930BD5002A02DA52422D2606E0D3
:1045F000630701D52B2602E0230700D520264FF0C4
:104600000003D2B15FF00A07BAF10A0F1AD002F024
:104610000F0C1209002A19F80C800DF8038003F121
:104620000103F1D1AB4200DD1D464FF0200714F02D
:10463000110FABEB05020DD01AE030228DF80020EF
:104640000123EFE7B2FBF7F89446B2FBF7F207FB62
:1046500018CCDFE73EB1002A05DD521E03E0884298
:1046600000D20770401CB2F1000CA2F10102F6DC8E
:1046700026B1884200D20670401C521EE40605D5C1
:1046800008E0884201D2049C0470401C141EA2F170
:104690000102F6DC30249D42A5F101050ADD8842C5
:1046A00000D20470401CF6E7884201D2E55C057038
:1046B000401C00E06C461D1EA3F1010307DDBEF1A6
:1046C000000FF1D103E0884200D20770401C131E96
:1046D000A2F10102F7DC05B0BDE8F08F91590008A6
:1046E00000F0B0B81FB50A4C14230A22A4F580606C
:1046F0004FF480618DE80F00064A002306A1204692
:1047000000F0C0FC04B02046BDE8104000F020BD21
:1047100010050024854200086D61696E00000000EC
:1047200070B5044C044D02E020688047241DAC4263
:10473000FAD370BD2C5B0008345B000870B5044CE4
:10474000044D02E020688047241DAC42FAD370BDBE
:10475000345B00083C5B000810B5FBF72BFE044AF5
:104760005188491C5180BDE81040FBF727BE00006E
:104770002C00002010B5FBF71DFE0B4C6188491E74
:1047800009B2618000290ADC00216180FBF716FE76
:104790006068002807D0BDE8104000F089BABDE885
:1047A0001040FBF70BBE10BD2C00002010B5FCF72D
:1047B000C9F9FEF7C1F9FEF709FAFDF74DFA4FF412
:1047C0007A71B0FBF1F0FDF7BCFDBDE81040FFF7DA
:1047D000A7BF0000084810B54FF0FF340068C1695A
:1047E000C943890602D4406AC4B202E00A2000F03C
:1047F00061FCE0B210BD000088050024F8B50D2171
:10480000064600208DF8001004460D4981F884000A
:10481000304600F093FB05460FE0305D0A2805D1D5
:10482000012307481A466946FDF7B8FF01230448EB
:1048300031191A46FDF7B2FF641CAC42EDD3F8BD46
:104840008805002402490148086070470400FA0501
:104850000CED00E070B505462F482C1D016805F1F0
:10486000280011B18847002855D0216C2BA000F0FA
:1048700033F9616A2DA000F02FF9A16A2FA000F092
:104880002BF9E16A31A000F027F9216B33A000F089
:1048900023F9616835A000F01FF9A16837A000F086
:1048A0001BF9E16839A000F017F921693BA000F07D
:1048B00013F961693DA000F00FF9A1693FA000F074
:1048C0000BF9E16941A000F007F9216A43A000F06B
:1048D00003F9616B45A000F0FFF8A16B47A000F061
:1048E000FBF8E16B49A000F0F7F82878400706D5FF
:1048F00000F006FC014649A000F0EEF802E04FA0EF
:1049000000F0EAF82878C00602D453A000F0E4F8DA
:10491000FFF7C0F9FEE770BD080000247073723A1B
:10492000203078253038780A000000007230303AA4
:10493000203078253038780A000000007230313A93
:10494000203078253038780A000000007230323A82
:10495000203078253038780A000000007230333A71
:10496000203078253038780A000000007230343A60
:10497000203078253038780A000000007230353A4F
:10498000203078253038780A000000007230363A3E
:10499000203078253038780A000000007230373A2D
:1049A000203078253038780A000000007230383A1C
:1049B000203078253038780A000000007230393A0B
:1049C000203078253038780A000000007231303A03
:1049D000203078253038780A000000007231313AF2
:1049E000203078253038780A000000007231323AE1
:1049F000203078253038780A00000000206C723AA8
:104A0000203078253038780A000000002070633AA2
:104A1000203078253038780A000000006861726420
:104A2000206661756C74206F6E20746872656164B5
:104A30003A2025730D0A0D0A0000000068617264B7
:104A4000206661756C74206F6E2068616E646C65A1
:104A5000720D0A0D0A00000046505520616374690A
:104A60007665210D0A00000070B5121D0B4E002462
:104A7000054622F00700443840F82460641C112CDD
:104A8000FAD3002283634FF08073C0E90912C26237
:104A9000026342630260C0E90F5370BDEFBEADDE3A
:104AA00010B5FBF787FC044A1178491C1170BDE86A
:104AB0001040FBF783BC00001400002410B5FBF786
:104AC00079FC044A1178491E1170BDE81040FBF7CB
:104AD00075BC0000140000240FB409487F2110B5F4
:104AE00003AB029A00F0A4FC7F28044600D97F247F
:104AF0000348FFF783FE204610BC5DF814FB00005E
:104B0000FC0600200268516002680A60016048608B
:104B100070470021024600E0491C00689042FBD12A
:104B200008467047D0E900124A60D0E900121160CF
:104B3000406000607047D0E900124A60D0E900127E
:104B40001160406000607047102A034610B51DD305
:104B500041EA0304A40719D10C68103A1C604C68A0
:104B60005C608C689C60CC681031102ADC6003F1BA
:104B70001003F1D202E010C9121F10C3042AFAD2A6
:104B800004E000BF11F8014B03F8014B521EF9D2AB
:104B900010BD00000346994210B511D28C189C42FA
:104BA0000ED9811804E000BF14F8013D01F8013D61
:104BB000521EF9D210BD00BF11F8014B03F8014B92
:104BC000521EF9D210BD10B5042A0346CCB218D338
:104BD000810716D144EA0423014643EA034305E072
:104BE0000B604B608B60CB601031103A102AF7D20B
:104BF00001E0121F08C1042AFBD20B4601E003F8B2
:104C0000014B521EFBD210BD10B50446002020728D
:104C1000FBF7D0FBD4E903124A60F4E903121160F8
:104C200064602460BDE81040FBF7C8BB074A002160
:104C300002EB01131B78834202D102EB0110704793
:104C4000491C0329F4DB0020704700004C000024BD
:104C50002DE9F041174605460E460846FFF7E6FFE8
:104C60000446FFF779FD6168201D00E00968814274
:104C7000FCD1FFF77FFD46F08000394608222872FC
:104C8000284600F063F9FBF795FB61680C354D6031
:104C90006168296044F8045F6C60BDE8F041FBF78F
:104CA0008DBB007A000601D50120704700207047B7
:104CB000F8B5FBF77FFB2A4D07466888C8BBA86894
:104CC000B8B300266846FEF7B5FC0446686890F85D
:104CD000341001F00702032A0ED190F83520009B12
:104CE0009A4202D303D10A0701D4044600E0012608
:104CF00021F0080180F83410844221D000992970F5
:104D00006C6005460EB100F02FF8204600F066F802
:104D100094F8340020F00700C01C84F834001148D7
:104D2000007804F11C01002805F11C0002D0FBF7FB
:104D300048FB0FE0FBF745FB3846FBF73FFBF8BDB0
:104D400000F04CF8686890F8341021F00701C91C95
:104D500080F834103846BDE8F840FBF72FBB000060
:104D60002C0000201400002470B50546FBF722FB40
:104D7000184902464868854295F8340005D120F06C
:104D80000700C01C85F834001EE020F00700124B1D
:104D9000401C85F8340005F11404060795F8350029
:104DA00003EBC00006D543681C6043686360446041
:104DB000206005E003685C60036823600460606055
:104DC000A86B8B6818438860BDE870401046FBF7FD
:104DD000F5BA00002C0000207C07002010B5044626
:104DE000FBF7E8FA04F11401D1E900235360D1E99B
:104DF00000231A60A1616161084994F8352051F8D7
:104E0000323001EBC2018B4204D10549A36B8A68A1
:104E10009A438A60BDE81040FBF7D0BA7C070020B7
:104E20002C0000202DE9F04116461F4605460A4693
:104E30000221FFF70DFF05F11404AC616C61002045
:104E4000AE836F72BDE8F0811CB50AA0FFF744FE87
:104E50000BA0FFF741FE13A115A00123CDE900012E
:104E600004211A4615A0FFF737FE1DA0FFF734FEF8
:104E70001CBD00000A205C207C202F0A00000000DE
:104E80002D205254202D202020202054687265614E
:104E900064204F7065726174696E67205379737412
:104EA000656D0A0032313A32303A30380000000085
:104EB000417072202039203230323500202F207C82
:104EC000205C202020202025642E25642E256420AF
:104ED0006275696C642025732025730A0000000048
:104EE0002032303036202D203230323220436F7065
:104EF0007972696768742062792052542D546872FF
:104F0000656164207465616D0A0000000FB410B51E
:104F100004AA039900F0D2FB10BC5DF814FB00005A
:104F2000002800DA404204490B2801DDC86A7047B6
:104F300051F82000704700001C000024014600E0EA
:104F4000491C0A78002AFBD1081A7047002A10B5BC
:104F500007D0034611F8014B03F8014B2CB1521E48
:104F6000F8D110BD03F8011B00E00021521EF9D159
:104F700010BD0000074B002210B5074C10465A80A8
:104F800004EBC001401C202849600960F8DB9A60EE
:104F900010BD00002C0000207C07002038B56846BA
:104FA000FEF748FB0446064844602046FFF716FF1C
:104FB000032084F8340004F11C00FBF748FA38BDE4
:104FC0002C00002001484060006070473C00002039
:104FD000704700000A4870B50025046884420DD06F
:104FE000A4F11405FBF7E6F9D4E900124A60D4E90C
:104FF0000012116064602460FBF7E0F9284670BD80
:1050000024000020044914300A6850600A680260D5
:10501000086041607047000024000020FFF7DAFFBD
:105020000400FBD0256FFFF73CFE012802D120468B
:10503000FFF7EAFD002DF1D02046A847EEE700007B
:1050400010B586B000220BA104A8FFF75FFF0B4844
:1050500020231F2280218DE80F00A0F17804084A48
:105060000023204604A900F00DF8204600F070F857
:1050700006B010BD7469646C652564007C06002070
:105080001D5000082DE9FF5F924699460EAA0C4676
:10509000834692E8E0010A460121FFF7D9FD8DE839
:1050A000E0014B46524621465846FEF7F1FA04B05D
:1050B000BDE8F09F10B500F082F8BDE8104000F0A8
:1050C00025B870B5044690F8340000F007000228B7
:1050D00002D04FF0FF3070BDFBF76CF9054604F1CC
:1050E0001400FFF71FFD04F1440000F089F9204689
:1050F000FFF73AFE2846FBF761F9002070BD00007B
:10510000014800687047000030000020F1B50F48EA
:105110000468FBF74FF9002506462046256300F09A
:105120002BF804F144006A460021074600F0D4F849
:10513000384600F023F93046FBF740F9FFF7B8FD99
:10514000206B801C00D12563206BF8BD300000204F
:1051500010B590F83530012102229940816380F822
:105160003420FFF7AEFF0348006808B1FFF7A0FD49
:10517000002010BD3000002070B5044690F83400C7
:1051800000F00700012804D0032802D04FF0FF30C0
:1051900070BDFBF70FF905462046FFF71FFE94F898
:1051A000340020F00700801C84F8340004F144002F
:1051B00000F026F92846FBF701F9002070BD30B554
:1051C000002802DA4FF0FF3030BD4FF47A7290FBC6
:1051D000F2F490FBF2F1531E02FB1400514300EB7A
:1051E0004004C4EBC01003EBC00090FBF2F0084495
:1051F00030BD00000148006870470000200000201A
:1052000010B5FBF7D7F804460F480168491C016048
:10521000FFF776FF016C491E016406D02046FBF7BC
:10522000CDF8BDE8104000F011B890F83420C16B03
:1052300042F00802016480F834202046FBF7BEF8F3
:10524000FFF736FDEDE70000200000202DE9FC41CE
:10525000CDF804D0CDF800D0FFF7CCFF0646FBF721
:10526000A9F81C4D07462DE06069143C6FF0004121
:10527000301A884229D22046FEF75AFA607A81070E
:1052800002D420F00100607204F1140168468846DF
:10529000FFF738FCD4E907108847FFF7ABFF064655
:1052A0000098694688420DD04046FFF744FC607A7A
:1052B000810707D5C10705D020F0010060722046A4
:1052C00000F05CF82C68AC42CED13846FBF776F89B
:1052D000BDE8FC813C00002070B515460E46044632
:1052E000FBF768F8062E17D2DFE806F00503080C76
:1052F000111A616A0FE0296861620DE0617A21F09C
:10530000020102E0617A41F00201617204E0617A17
:10531000C90700D001212960FBF750F8002070BDBB
:10532000A16AF8E770B50446FBF744F80546204645
:10533000FEF7FEF9607A20F0010060722846FBF764
:105340003DF82046FFF760FC002070BD2DE9F041DC
:1053500017461E4604460A460A21DDE90658FFF7AD
:1053600077FC002128F001026272C4E90951C4E906
:105370000776143464602460BDE8F0812DE9F843B9
:105380000446FBF717F880462046FEF7D1F9607A0D
:1053900020F001006072FFF72DFF184A0146636A92
:1053A00000206FF000470B44A36202EBC00500929F
:1053B0005DF8202069466E680AE01268A2EBC0051D
:1053C0006D699D4202D0ED1ABD4203D341F8202001
:1053D000B242F2D10948001F0168491C01600098DF
:1053E00004F11401FFF78EFB607A40F00100607257
:1053F0004046FAF7E3FF0020BDE8F8833C000020B8
:1054000070B50446407AC0070ED0FAF7D3FF0546C0
:105410002046FEF78DF9607A20F001006072284680
:10542000FAF7CCFF002070BD4FF0FF3070BD0000D8
:105430002DE9FF4F8946804600EB09074FF0FF3A00
:1054400047454FF0200B83B0044602D2C4F1FF3928
:1054500057460FE1252803D0BC4200D2207082E0DD
:1054600000260599491C059108782D2811D02B2874
:1054700012D0202813D0232814D0302815D00A7831
:105480005546303A0A2A13D205A800F03CF90546E1
:105490001BE046F01006E4E746F00406E1E746F0BC
:1054A0000806DEE746F02006DBE746F00106D8E70F
:1054B0002A280AD10698491C0591011D0691056804
:1054C000002D02DA6D4246F010060598D4460178A8
:1054D0002E2919D1401C05900178A1F130020A2A29
:1054E00004D205A800F00FF9844608E02A2909D162
:1054F000401C05900698011D0691D0F800C0BCF133
:10550000000F01DA4FF0000C059A0021107868288E
:1055100001D06C2802D1521C014605920A23107852
:105520006F2875D00CDC63281FD004DC252870D0D0
:1055300058280DD186E0642801D0692808D185E07B
:10554000702868D073282DD0752873D078287BD028
:10555000BC4201D2252020700598641C0178E9B373
:10556000BC4200D22170641C81E0F00608D4584689
:105570006D1E002D04DDBC4200D22070641CF7E7D4
:105580000698BC4210F8041B0690C8B200D22070E6
:10559000584602E0BC4200D22070641C6D1E002DF3
:1055A000F8DC64E0069802C8069001B941A1002029
:1055B00000E0401CA84202D00A5C002AF9D1BCF1EC
:1055C000000F02DD604500DD6046F2060BD45A464E
:1055D0008542A5F1010506DDBC4200E056E000D29F
:1055E0002270641CF4E7002206E0BC4201D20B7872
:1055F0002370491C521C641C8242F6DB59468542CA
:10560000A5F1010533DDBC4200D22170641CF6E730
:1056100016E011E0FFE7681C02D1082546F00106FC
:105620000296CDE9005C06981023394604C806901E
:10563000204619E00CE007E0BC4294D225200DE79B
:10564000082305E046F04006102301E046F002067C
:105650006C2901D068291CD0069804C806903946E8
:10566000CDE9005C20460296FEF7A0FF04460598AF
:10567000401C05900598007800287FF4EBAEB9F146
:10568000000F11D0BC420DD220700DE0401E0590DD
:10569000EDE70698B20730F8041B06908AB2DED513
:1056A00012B2DCE707F8010C07B0A4EB0800BDE874
:1056B000F08F0000284E554C4C29000013460A4636
:1056C0004FF0FF3110B5FFF7B3FE10BD002070475B
:1056D00000207047002070470020704710B5FAF78F
:1056E00069FEFFF763F8FFF7AFFBFFF76BFCFFF70F
:1056F00041FCFEF7F7FFFFF76BFCFFF7A1FCFFF79C
:105700004DFC002010BD6FF02F030146002010B5A6
:1057100007E0541C0C6000EB8000127803EB4000A3
:1057200010440A681478303C0A2CF2D310BD0000F3
:105730000B480021094A4FF4E13310B50C240260F4
:10574000C0E90131C160C0E904148161C161FCF7A5
:10575000ACFF002800D0FEE710BD000000100140A3
:105760008805002418A010B5FFF7B6F91A4C218857
:105770001AA0FFF7B1F92088C00702D01DA0FFF7DB
:10578000ABF92088800702D51DA0FFF7A5F9208876
:10579000400702D51DA0FFF79FF92088000702D51A
:1057A0001CA0FFF799F92088C00502D51BA0FFF7C0
:1057B00093F92088800502D51BA0FFF78DF9BDE87D
:1057C000104004A0FFF788B97573616765206661B2
:1057D000756C743A0A0000002AED00E05343425F02
:1057E000434653525F554653523A3078253032582B
:1057F00020000000554E444546494E535452200067
:10580000494E56535441544520000000494E5650CD
:10581000432000004E4F435020000000554E414CA5
:1058200049474E454420000044495642595A455282
:105830004F20000010B5FFF707FB002010BD4FF010
:105840004070E1EE100A70470100020004000600FB
:1058500008000A000C001000200040008000000139
:10586000010101030701000008040204080101010D
:1058700000000000010203040102030406070809F6
:10588000000001000200010003000100020001000D
:1058900004000100020001000300010002000100F9
:1058A00005000100020001000300010002000100E8
:1058B00004000100020001000300010002000100D9
:1058C00006000100020001000300010002000100C7
:1058D00004000100020001000300010002000100B9
:1058E00005000100020001000300010002000100A8
:1058F0000400010002000100030001000200010099
:105900000700010002000100030001000200010085
:105910000400010002000100030001000200010078
:105920000500010002000100030001000200010067
:105930000400010002000100030001000200010058
:105940000600010002000100030001000200010046
:105950000400010002000100030001000200010038
:105960000500010002000100030001000200010027
:105970000400010002000100030001000200010018
:1059800030313233343536373839616263646566B5
:1059900000303132333435363738394142434445AB
:1059A00046000000252D2A2E732070726920207376
:1059B00074617475732020202020207370202020B3
:1059C0002020737461636B2073697A65206D617840
:1059D0002075736564206C656674207469636B2040
:1059E000206572726F720A004F4B000045494E5697
:1059F000414C000045525346554C4C00454E4F4DCE
:105A0000454D000045494F004552524F520000009D
:105A1000454E4F535953000045494E54525054007F
:105A20004554494D4F55540045554E4B4E4F570028
:105A300045425553590000004552534550545900B2
:105A4000636C65617200636C6561722074686520C7
:105A50007465726D696E616C2073637265656E004A
:105A600076657273696F6E0073686F772052542D7C
:105A70005468726561642076657273696F6E20691F
:105A80006E666F726D6174696F6E006C6973745FBE
:105A9000746872656164006C6973742074687265FF
:105AA0006164006C6973745F73656D006C69737415
:105AB0002073656D6170686F726520696E207379FF
:105AC0007374656D006C6973745F74696D657200E1
:105AD0006C6973742074696D657220696E207379C6
