:020000040800F2
:10000000700400206D030008DD2E00087B0300084B
:100010007D030008DF040008F5360008000000003A
:100020000000000000000000000000006531000832
:10003000E104000800000000DF2E0008673100081E
:100040008B0300088B0300088B0300088B03000858
:100050008B0300088B0300088B0300088B03000848
:100060008B0300088B0300088B0300088B03000838
:100070008B0300088B0300088B0300088B03000828
:100080008B0300088B0300088B030008650500083C
:10009000D10500088B0300088B0300088B030008C0
:1000A0008B0300088B0300088B0300088B030008F8
:1000B000D53200088B0300088B0300088B0300086F
:1000C0008B0300088B0300088B0300088B030008D8
:1000D0008B0300088B0300088B0300088B030008C8
:1000E0008B0300088B030008000000008B0300084E
:1000F0008B0300088B0300088B0300088B030008A8
:100100008B0300088B0300088B0300088B03000897
:100110008B0300088B0300088B0300088B03000887
:100120008B0300088B0300088B0300088B03000877
:100130008B0300088B0300088B0300088B03000867
:1001400000000000000000000000000000000000AF
:100150008B0300088B0300088B0300088B03000847
:100160008B0300088B0300088B0300088B03000837
:100170008B0300088B0300088B03000800000000BD
:100180008B0300088B0300088B0300088B03000817
:100190008B0300088B0300088B0300088B03000807
:1001A0008B0300088B0300088B030008000000008D
:1001B0008B0300088B0300088B0300088B030008E7
:1001C0008B0300088B030008000000000000000003
:1001D00000000000000000008B0300080000000089
:1001E000000000000000000000000000000000000F
:1001F00000000000000000008B0300088B030008D3
:100200008B0300088B030008000000008B0300082C
:100210008B0300088B0300088B0300088B03000886
:100220008B030008000000008B03000800000000A2
:100230008B0300088B030008000000008B030008FC
:100240008B0300088B0300088B0300088B03000856
:100250008B0300088B0300088B0300088B03000846
:100260008B0300088B0300088B0300088B03000836
:100270008B0300088B0300088B03000800000000BC
:100280008B0300088B0300088B0300088B03000816
:10029000000000008B0300088B0300080000000032
:1002A000000000008B0300088B0300088B0300088C
:1002B0008B0300088B0300088B030008DD05000892
:1002C0008B0300088B0300088B03000800F002F882
:1002D00000F03CF80AA090E8000C82448344AAF1A4
:1002E0000107DA4501D100F031F8AFF2090EBAE8A2
:1002F0000F0013F0010F18BFFB1A43F0010318475A
:100300003835000068350000103A24BF78C878C13D
:10031000FAD8520724BF30C830C144BF04680C600B
:10032000704700000023002400250026103A28BF53
:1003300078C1FBD8520728BF30C148BF0B60704757
:100340001FB503F03DFA1FBD10B510BD00F08EF8CB
:100350001146FFF7F5FF03F00DFA00F0ACF803B417
:10036000FFF7F2FF03BC00F0B3F800000A48804733
:100370000A4880470A480047FEE7FEE7FEE7FEE737
:10038000FEE7FEE7FEE7FEE7FEE7FEE70548064973
:10039000064A074B70470000E9040008FD310008D9
:1003A000CD02000890020024700400209004002474
:1003B0007000002010B5203AC0F00B80B1E8185052
:1003C000203AA0E81850B1E81850A0E81850BFF43F
:1003D000F5AF5FEA027C24BFB1E81850A0E81850DE
:1003E00044BF18C918C0BDE810405FEA827C24BF32
:1003F00051F8043B40F8043B08BF7047D20728BFC0
:1004000031F8023B48BF11F8012B28BF20F8023B0E
:1004100048BF00F8012B70474FF0000200B51346AB
:1004200094469646203922BFA0E80C50A0E80C5014
:10043000B1F12001BFF4F7AF090728BFA0E80C50C5
:1004400048BF0CC05DF804EB890028BF40F8042BBE
:1004500008BF704748BF20F8022B11F0804F18BF2B
:1004600000F8012B7047704770477047754600F0E1
:100470002BF8AE4605006946534620F00700854636
:1004800018B020B5FFF782FFBDE820404FF000060E
:100490004FF000074FF000084FF0000B21F007016C
:1004A000AC46ACE8C009ACE8C009ACE8C009ACE8AF
:1004B000C0098D46704710B50446AFF30080204652
:1004C000BDE81040FFF74BBF004870472C020024E6
:1004D00001491820ABBEFEE7260002007047FEE788
:1004E000704772B6FEE70000054805490839026802
:1004F00042F00202026008688004FCD570470000E8
:100500000C48025810B58AB0002402200121019441
:10051000CDE90414CDE90240114801A9069400F088
:100520000FFA08B1FFF7DDFF02220D480023114644
:10053000009400F044FA08B1FFF7D3FF0848002206
:10054000012100F085F908B1FFF7CBFF044800F066
:10055000A6FD002801D0FFF7C4FF0AB010BD0000BF
:1005600000000024014800F047BA00000000002409
:1005700010B58AB00024022001210194CDE90404C1
:10058000CDE90210114801A9069400F0D9F908B18B
:10059000FFF7A7FF02220D4800231146009400F048
:1005A0000EFA08B1FFF79DFF08480022102100F065
:1005B0004FF908B1FFF795FF044800F070FD0028DF
:1005C00001D0FFF78EFF0AB010BD0000A00000248C
:1005D000014800F011BA0000A0000024014800F01A
:1005E0000BBA000040010024F0B503684FF6FC711F
:1005F0006D4C426BD3F884508D4345EA8205C3F8B5
:100600008450036853F8845F068F25F47F0545EA1C
:1006100006451D60836B654D9F180268D2F88830CF
:100620008B4343EA8703C2F88830026852F8883F58
:10063000868F23F4FE0343EA06431360066856F8E8
:10064000A03FC26B8B4307EB420243EA8203336055
:10065000076857F8A03FB0F8406023F4FE0343EA70
:1006600006433B60D0E9103603FB06220368D3F84B
:10067000B0608E4346EA8206C3F8B0600368B0F803
:100680004860D3F8B07027F4FE0747EA0646C3F87F
:10069000B060D0E91267036806FB0722D3F8AC60AC
:1006A0008E4346EA8206C3F8AC60D0E9146703685B
:1006B00006FB0722D3F8F0608E4346EA8206C3F8B1
:1006C000F0600368B0F85860D3F8F07027F47C1736
:1006D00047EA0646C3F8F0600368876D53F8C06FB9
:1006E00002EB47028E4346EA820119600168B0F8C6
:1006F0005C20D1F8C03023F47C1343EA0242C1F8F5
:10070000C020016890F86020D1F8C03023F07C53FD
:1007100043EA0262C1F8C020416B04EB8101C1666B
:10072000826B01EB82020267C36B02EBC30242677A
:10073000D0E91034634302EB83028267D0E91234BC
:10074000634302EB8302C267D0E91434634302EBD4
:100750008302C0F88020836D02EBC303C0F88430AD
:10076000C46D826E544303EB8403C0F88830046E7A
:10077000544303EB8402C0F89020AA420AD9D0F86F
:100780009C20032142F02002C0F89C2080F89810A1
:100790000120F0BD002200E004C1D0F890308B426F
:1007A000FAD80020F0BD000000AC0040FCD30040AF
:1007B000F0B58E680C69D1E9005744EA0604DFB150
:1007C00045F080452C43866ED1E906C54F695E43EE
:1007D00091F8203045EA0C05B1F80CC0D0F884E05F
:1007E000002047EA0363104F1D430EEB860345EAE2
:1007F0000C45E3E8024511E044EA8544E3E71418B8
:10080000155CA67894F803C094F801E0360445EA34
:100810000C6446EA0E252C43001D10C3CC683C5DD9
:100820008442ECD8F0BD0000CC37000870B5044617
:1008300000F066FD0546601C02D0044800780444C0
:1008400000F05EFD401BA042FAD370BD0C000020FA
:1008500010B590F89830012B09D0022B07D0D0F8B2
:100860009C1041F00201C0F89C10012010BD0368EB
:100870009C6D0C4203D1DC6D44F0010404E09C6DDE
:1008800031EA04041FD00324DC658B0505D5036819
:10089000D3F8E0401443C3F8E0404B0505D50368A6
:1008A000D3F8E4401443C3F8E4400068084A01EA7E
:1008B0000203446D074A1C434465106840EA917086
:1008C0001060002010BDDC6D44F00204DCE7000085
:1008D000FFFFCF3F14A8004070B5044690F8980081
:1008E000022804D0D4F89C0040F008000DE02068F5
:1008F000D0F8C03013F07C5F0BD0D0F8C4309B022E
:100900000CD5D4F89C0040F40070C4F89C00012081
:1009100070BDD4F89C0040F02000F6E7D0F8C40089
:10092000C0F3044520462B46FFF742FF2168012013
:10093000A840C1F8D000C4F89400002070BD7047F2
:1009400070B590F89820012A09D0022A07D0D0F873
:100950009C1041F00201C0F89C10012070BD0B6892
:10096000CA6883B10B69072A43EA427325D00C7A1F
:100970004A6942EA84724968006F00EBC100C0E92D
:100980000032002070BD072A0DD00C7AD6060D8AE1
:100990004B6943EA847246EA0543C06E49681A43CC
:1009A00040F82120EDE70B8A4FF06055D1E906248D
:1009B00042EA034245EA0423EFE78A69DBE730B500
:1009C00090F89850039C012D07D0D0F89C1041F06E
:1009D0000401C0F89C10012030BD0D01016845EAFA
:1009E000820040EA43002043C1F88000002030BD6F
:1009F00070477047704700002DE9FF5FDFF80CB3C8
:100A000004460BF10401DBF8000025680F68AA46D4
:100A10008007D5F85090696DD5F850806E6D2A6DBD
:100A2000D5F854C02B6D00EA8770009009F4704926
:100A30006F6D286D01EA09010191DAF85410DAF8B6
:100A40005490DAF8505008F00F0806EA08060296AB
:100A500002F0F00203F071536FEA09061F4000F044
:100A600060700CEA020CCDF80CC0F20501EA000936
:100A70000CD4E843C00509D400214FF48073CAF8B0
:100A80005030CBF800102046FFF7B4FF700512D4A9
:100A9000E84340050FD4206800234FF48068D0F865
:100AA000DC20D0F8E410C0F85080CBF800301140C2
:100AB000204600F013FBDFF858A2009850B12268DE
:100AC000830F00EA0A001065CBF800302046009939
:100AD000FFF735FF019850B12268830F00EA0A0042
:100AE0001065CBF800302046019900F0F9FA029821
:100AF00050B12268830F00EA0A001065CBF800307D
:100B00002046029900F0C9FA039850B12268830F79
:100B100000EA0A001065CBF800302046039900F087
:100B2000BDFA30050CD4E843000509D42368002041
:100B30004FF400621A65CBF80000204600F0D1FAAD
:100B4000B00512D4E84380050FD4206800234FF489
:100B50000078D0F8D820D0F8E010C0F85080CBF85A
:100B600000301140204600F0BAFA30030CD4E843BC
:100B7000000309D4236800204FF400221A65CBF843
:100B80000000204600F088FAF0030CD4E843C003CC
:100B900009D4236800204FF480321A65CBF8000096
:100BA000204600F09AFA70030CD4E843400309D4BD
:100BB000226800204FF480231365CBF80000204604
:100BC00000F08AFAB0030FD4E84380030CD4236802
:100BD00000204FF400321A65CBF80000D4F89C00D6
:100BE00040F08000C4F89C00B9F1000F0BD02268DF
:100BF0004FEA997309EA0A001065CBF800304946BC
:100C00002046FFF7F6FE5FB12268BB0F07EA0A0035
:100C10001065CBF80030D4F89C003843C4F89C0031
:100C20003C492068884268D16068814680688007B6
:100C300063D0D9F82060D9F82410D9F82080D9F8E9
:100C40002400D9F820C0D9F82470D9F82030D9F878
:100C50002450D9F8202003F4FC4306F00F0AD9F8F9
:100C600024601D40D9F824B008F030080CF4C07C92
:100C700002F4F02211EA0A0100EA080807EA0C0768
:100C800006EA0206D9F820A004D0C9F820102046B0
:100C900000F01FFAB8F1000005D061680862414613
:100CA000204600F018FA6FEA0B0040060ED46FEAF7
:100CB0000A0040060AD460684021C36BC26B01621F
:100CC0002046190C02F03F0200F004FA2FB16068D0
:100CD00007623946204600F0FBF935B160680562CD
:100CE000D4F89C002843C4F89C0036B160680662C2
:100CF000D4F89C003043C4F89C00D4F89C00002831
:100D000002D02046FFF774FEBDE8FF9F10A8004008
:100D1000FFFFCF3F00A000402DE9F04194B08D4986
:100D20004C2204466846FFF745FB64B18A4D2068B3
:100D3000A84202D100F58070606094F898004FF0EE
:100D4000000820B108E0012014B0BDE8F081204681
:100D500084F8998000F002F92068816921F010017F
:100D6000816100F0CDFA0327064604E000F0C8FADE
:100D7000801B0A2811D8206880690007F6D42068F3
:100D8000816941F00101816100F0BAFA06460DE087
:100D900000F0B6FA801B0A2808D9D4F89C0040F06D
:100DA0000100C4F89C0084F89870CCE72068806942
:100DB000C007EDD02068816941F002018161207C8B
:100DC00001282068816937D041F040018161607C51
:100DD00001282068816932D021F480418161A07CA2
:100DE0000128206881692DD041F4805181612068FB
:100DF000A268816921F44071114381612068816991
:100E000021F0A40181612068016921F010010161D4
:100E1000E068012819D010B302281BD0206881692E
:100E200041F0800181612068016941F01001016198
:100E3000E06803280ED012E021F04001C6E741F43B
:100E40008041CBE721F48051D0E72068816941F0EF
:100E5000040103E02068816941F020018161207E66
:100E60006FF0FF02D4E90773A68A1102400602EB75
:100E70000727A0F10070384327685B1E184301EB79
:100E800006463043F861A068B0F5407F11D104F107
:100E90002800A68C6FF00F0C89C801EB0641401E9C
:100EA00002EB0322104322680CEB0713184308439C
:100EB000D060206E30B12068626ED0F8C01011434F
:100EC000C0F8C010D4E917126846D14209D0216891
:100ED000A36E51F8C82F50F8233022F007021A43AE
:100EE0000A60216C49B12168626C51F8BC3F50F82E
:100EF000226023F0070232430A60A16C51B12168DD
:100F0000E36C51F8BC2F50F8233022F0700242EA13
:100F100003120A60216D51B12168626D51F8BC3F26
:100F200050F8220023F4E06242EA002008602068C2
:100F3000A84204D16068816821F003018160C4F88F
:100F400094800121C4F89C8084F898102046FFF713
:100F50004BFBF9E6DC37000800A00040F0B587B095
:100F6000054614216846FFF757FA454E0024434BC7
:100F700002272D684FF0090CDFF808E10C3B3168BF
:100F80003E4A7545404801F1010122D101293160F5
:100F900007D1116841F480711160116801F480710A
:100FA0000591196841F008011960196801F00801FC
:100FB000059103210091CDE90174CDE9034C694607
:100FC00000F090F800220621132000F037FA1320D9
:100FD00026E0DFF8B8E0754526D10129316007D158
:100FE000106840F480701060106800F48070059004
:100FF000186840F0020018601868694600F00200A6
:10100000059060200090CDE901742148CDE9034CA2
:1010100000F068F800220521142000F00FFA1420D7
:1010200000F0FEF907B0F0BDDFF868C06545F9D102
:101030000129316007D1116841F480711160116894
:1010400001F480710591196841F00801196019686F
:10105000052201F0080105914FF440510091CDE9BE
:101060000174CDE90342694600F03CF800220521F5
:101070009F2000F0E3F99F20D2E70000EC440258E3
:101080000800002000A00040000C025800A400400E
:101090000004025800D4004070477047704790F831
:1010A0009810012907D0D0F89C1041F00401C0F835
:1010B0009C1001207047022180F8981000220168DE
:1010C0008B6923F001038B61C0F89C2010467047A8
:1010D0007047704770477047704770477047704758
:1010E000704770472DE9F84F03247A4D00234FF0E5
:1010F00001094FF0B04B4FF00F0AE4E009FA03F694
:10110000324078D00F7907F00307012F01D0022F6A
:101110001AD187684FEA430ED1F80CC004FA0EF8D2
:1011200027EA08070CFA0EFC4CEA070CC0F808C0C6
:10113000476891F804C0B743CCF3001C0CFA03FCD9
:101140004CEA070CC0F804C00E79F643B6070BD082
:10115000C6684FEA43088F6804FA08FC26EA0C06C2
:1011600007FA08F73743C7600E7906F00306022E28
:1011700012D1DE080F694FEA437C00EB8606B646C3
:10118000366A4FEADC6C0AFA0CF807FA0CF726EA22
:1011900008063743CEF820700F7906684FEA4308F7
:1011A00007F0030704FA08FC07FA08F726EA0C061A
:1011B000374307604E6816F4403F1CD0464E3768F0
:1011C00047F00207376036689F0706F00206009670
:1011D00023F0030606F1B046B6463F0FD6F8086482
:1011E000DFF8F8800AFA07FC404526EA0C0603D12E
:1011F0004FF0000C3AE065E0DFF8E4C0604502D152
:101200004FF0010C32E0DFF8DCC0604502D14FF056
:10121000020C2BE0DFF8D0C0604502D14FF0030C88
:1012200024E0DFF8C8C0604502D14FF0040C1DE097
:10123000DFF8BCC0604502D14FF0050C16E0DFF8C6
:10124000B4C0604502D14FF0060C0FE0DFF8A8C033
:10125000604502D14FF0070C08E0DFF8A0C0604500
:1012600002D14FF0090C01E04FF00A0C0CFA07FC18
:101270004CEA060CCEF808C44F68DBF80060FF02A9
:1012800026EA020600D516435F46CBF80060D1F887
:1012900004C0DBF804605FEA8C2C26EA020600D565
:1012A00016437E606E684F6826EA0206BF0300D5CB
:1012B00016436E602E684F6826EA0206FF0300D5CB
:1012C00016432E605B1C0A6832FA03F67FF416AFF1
:1012D000BDE8F88F80000058F4440258000002581E
:1012E0000004025800080258000C0258001002586E
:1012F0000014025800180258001C0258002402581A
:1013000001488068704700000C0000200248816896
:1013100002781144816070470C000020032010B552
:1013200000F0ACF800F014FF0F4A1049146813687D
:10133000C4F3032203F00F038A5CC95C02F01F02AE
:1013400001F01F01D0400A4A20FA01F11160094959
:1013500008600F2000F010F808B1012010BD00F067
:1013600051F8002010BD0000184402582838000829
:101370001C0000201800002010B5102804468AB078
:101380002DD2002201461C2000F058F81C2000F04D
:1013900047F8184804601848016841F001010160ED
:1013A000006809A900F001000890684600F06EFE90
:1013B0000598B8B100F0BAFE40001049002240F292
:1013C000E733B0FBF1F10E484FF080440460C0E910
:1013D0000332491EC0E9011201F048FA28B1012088
:1013E0000AB010BD00F0A2FEE7E7054801F070FA70
:1013F000F6E7000010000020E844025840420F00C9
:10140000E0010024054808B5016841F002010160CF
:10141000006800F00200009008BD0000F44402588B
:10142000002809DB410900F01F028900012001F1B9
:10143000E0219040C1F80001704700000E4BF0B46D
:101440001B680D46C3F30223C3F10706042E00D91F
:101450000426191D072901D2002300E0DB1E012408
:1014600004FA06F19C40491E2940641E994014402C
:101470002143F0BC02F03FB90CED00E0064900F05A
:10148000070210B54FF6FF040868044B204040EAFD
:1014900002201843086010BD0CED00E00000FA05C2
:1014A000134970B50A68D243520705D5096801F09F
:1014B0000701814213D118E00A6822F007020243B3
:1014C0000A60FFF71DFF0A4D4FF47A760446083D87
:1014D00007E000BFFFF714FF001BB04201D9012055
:1014E00070BD2868C0438004F4D4002070BD0000A3
:1014F0000C4802582DE9FE4F0546DFF800A450F8CD
:10150000081B0024FD4FC943019005F12800264621
:101510000AF1240A009008011DD4686E50B1B0F59C
:10152000801F0CD0B0F5001F0ED0B0F5401F1ED0AC
:1015300001240FE0386840F40030386017E001986B
:10154000022101F0EFFC03E00098022101F07AFD96
:1015500004000CD026462888C043C00523D4A86DBB
:1015600005281ED2DFE800F00C11161B1B006A6E66
:10157000DAF8001021F440111143CAF80010EAE72C
:10158000386840F40030386009E00198002101F02B
:10159000C9FC03E00098002101F054FD0446C4B1E9
:1015A00000E0012426462888DFF85083C04308F174
:1015B0002C0840052FD4D5F8A400B0F5C00F28D0D2
:1015C00010DCB8B1B0F5001F19D0B0F5800F0FD105
:1015D0001AE0AA6DDAF8001021F007011143CAF8E9
:1015E0000010E0E7B0F5000F13D0B0F5200F10D0D9
:1015F00001240FE0386840F40030386009E00198B9
:10160000002101F08FFC03E00098002101F01AFD99
:10161000044694B126462888C043000530D4D5F846
:10162000A800B0F1407F29D011DCC0B1B0F1807FBB
:101630001AD0B0F1007F10D11BE0D5F8A420D8F863
:10164000001021F460011143C8F80010E3E7B0F185
:10165000806F13D0B0F1A06F10D001240FE0386874
:1016600040F40030386009E00198002101F05AFC94
:1016700003E00098002101F0E5FC044694B1264601
:101680002868DFF878B2C0430BF1200B80011FD42B
:10169000E86CD8B110280FD0202812D0302815D0EF
:1016A000012414E0D5F8A820D8F8001021F0E0615A
:1016B0001143C8F80010E3E7386840F400303860A0
:1016C00004E00198022101F02DFC044674B1264685
:1016D0002888C043C0042BD4E86DB0F5005F20D04B
:1016E0000DDCA0B1B0F5805F0FD115E0EA6CDBF83E
:1016F000001021F030011143CBF80010E8E7B0F5FD
:10170000405F13D0B0F5804F10D001240FE038684F
:1017100040F40030386009E00198002101F002FC3B
:1017200003E00098002101F08DFC04468CB12646B0
:101730002888C043800429D4286EB0F5403F23D0C8
:1017400010DC08B3B0F5803F14D0B0F5003F0FD1E6
:1017500015E0EA6DDAF8001021F4E0411143CAF80F
:101760000010E5E7B0F5802F0ED0B0F5A02F0BD01C
:1017700001240AE00198012101F0D4FB03E0009864
:10178000012101F05FFC044694B126462888C0433D
:1017900040042AD4D5F8AC00B0F1405F23D010DC6F
:1017A00008B3B0F1805F14D0B0F1005F0FD115E045
:1017B0002A6EDAF8001021F4E0211143CAF8001073
:1017C000E4E7B0F1804F0ED0B0F1A04F0BD0012470
:1017D0000AE00198012101F0A5FB03E00098012136
:1017E00001F030FC044674B126462888C04300044A
:1017F0001FD4E86ED8B1B0F1805F0ED0B0F1005FB9
:1018000010D0012414E0D5F8AC20D8F8001021F055
:10181000E0411143C8F80010E7E7386840F40030B1
:10182000386004E00198012101F07CFB044674B1AA
:1018300026462868C043C0011ED4A86CD0B1012838
:101840000ED0022811D0032814D0012413E0EA6E30
:10185000DAF8001021F040511143CAF80010E8E70F
:10186000386840F40030386004E00198022101F04B
:1018700059FB04466CB126462868C043400255D443
:101880001F48016841F480710160FFF739FD81460E
:101890000EE0AA6CDBF8001021F003011143CBF835
:1018A0000010E9E7FFF72CFDA0EB090064283BD806
:1018B00013480068C005F5D5BCBBDFF84090B5F80B
:1018C000B01009F14409D9F8000001F4407100F4A6
:1018D0004070884211D0D9F80010D9F8002021F4C6
:1018E000407142F48032C9F80020D9F8002022F477
:1018F0008032C9F80020C9F8001003E02C440258D7
:1019000000480258D5F8B000B0F5807F19D1FFF734
:10191000F7FC029011E000BFFFF7F2FC0299411AB8
:1019200041F28830814208D9032426462878DFF81E
:101930001494C043C00721D03CE0D9F800008007D0
:10194000EAD5D5F8B010C1F301200328FE480DD028
:10195000016821F47C510160B5F8B020D9F800107D
:10196000C2F30B021143C9F80010DFE7F74A03681E
:1019700002EA111223F47C511143ECE7A86F1828F6
:1019800016D005DCA0B1082808D0102804D10AE040
:1019900020280DD028280BD001240AE0019801212D
:1019A00001F0C0FA03E00098012101F04BFB04466E
:1019B00064B126462878C04380071ED4686F062885
:1019C00019D2DFE800F0160C11161616AA6FD9F816
:1019D000001021F038011143C9F80010EAE701981E
:1019E000012101F09FFA03E00098012101F02AFB98
:1019F00004467CB100E0012426462878C043400715
:101A00001FD4D5F89000062819D2DFE800F0160C94
:101A1000111616166A6FD9F8001021F0070111434C
:101A2000C9F80010E9E70198012101F07BFA03E011
:101A30000098012101F006FB0446A4B100E0012456
:101A400026462878C04380062BD4D5F88C00B0F108
:101A5000405F24D011DC10B3B0F1805F15D0B0F13D
:101A6000005F10D116E0D5F89020D8F8001021F0D2
:101A700007011143C8F80010E3E7B0F1804F0ED022
:101A8000B0F1A04F0BD001240AE00198002101F031
:101A900049FA03E00098022101F0D4FA044694B117
:101AA00026462878C04340062BD4D5F89800B0F5D8
:101AB000406F24D011DC10B3B0F5806F15D0B0F5B5
:101AC000006F10D116E0D5F88C20D9F8001021F065
:101AD000E0411143C9F80010E3E7B0F5805F0ED094
:101AE000B0F5A05F0BD001240AE00198002101F0BD
:101AF00019FA03E00098022101F0A4FA044694B117
:101B000026462878C04300062BD4D5F89C00B0F5B3
:101B1000C04F24D011DC10B3B0F5005F15D0B0F584
:101B2000804F10D116E0D5F89820D8F8001021F495
:101B3000E0511143C8F80010E3E7B0F5004F0ED0B4
:101B4000B0F5204F0BD001240AE00198002101F0EC
:101B5000E9F903E00098022101F074FA044654B157
:101B600026462878C04300071ED4D5F88000B0F57B
:101B7000805F0AD00FE0D5F89C20D8F8001021F43F
:101B800060411143C8F80010EBE70098022101F012
:101B900059FA00B10126D5F88020D9F8001021F4B7
:101BA00040511143C9F800102878C043C00613D42F
:101BB000D5F89400B0F5807F05D10098022101F09E
:101BC00041FA00B10126D5F89420D8F8001021F48C
:101BD00040711143C8F800102868C043000316D4B0
:101BE000D5F8A00038B1B0F5803F09D0B0F5003F7E
:101BF0000BD001240AE00198002101F093F903E0E1
:101C00000098022101F01EFA04468CB1264628688D
:101C1000C043400322D4D5F88400B0F5801F11D012
:101C2000B0F5001F13D0B0F5401F15D0012414E00B
:101C3000D5F8A020D8F8001021F440311143C8F89D
:101C40000010E4E7386840F40030386004E00098A1
:101C5000012101F0F7F904465CB126462868C0432B
:101C6000C0031CD4286D70B1B0F5803F10D00124A2
:101C700014E0D5F88420D9F8001021F44011114364
:101C8000C9F80010EAE7386840F40030386004E032
:101C90000198022101F046F90446DCB12646286885
:101CA000C043800005D40098022101F0CBF900B1B7
:101CB00001262868C04380031BD4E86FB8B1B0F593
:101CC000807F10D0B0F5007F11D0B0F5407F0ED0EE
:101CD00001240DE02A6DDBF8001021F4803111435E
:101CE000CBF80010DBE7386840F4003038607CB394
:101CF00026462868C043C00207D42A6FDAF80010CD
:101D000021F000411143CAF800102868C043800246
:101D100007D4AA6EDAF8001021F080711143CAF8D6
:101D200000102868C043400009D40748016821F426
:101D3000004101600168D5F8B420114301602868B2
:101D4000C04306E05444025810440258CFFFFF003D
:101D50001DE007D46A6DDBF8001021F040511143FB
:101D6000CBF800102868C043000208D4D5F88820BA
:101D7000D9F8001021F440011143C9F80010287966
:101D80000024C04300F00100204309D00EE0EA6FB8
:101D9000D9F8001021F440711143C9F80010A8E7E8
:101DA0000198002101F0BEF800B106462879C04331
:101DB00000F00200204305D10198012101F0B2F8A2
:101DC00000B106462879C04300F00400204305D145
:101DD0000198022101F0A6F800B106462879C04317
:101DE00000F00800204305D10098002101F02AF9F5
:101DF00000B106462879C04300F01000204305D109
:101E00000098012101F01EF900B106462879C0436F
:101E100000F02000044304D10098022101F012F9DF
:101E200000B916B10120BDE8FE8F0020FBE70000DD
:101E30002DE9F05F04000F467ED0DFF83882D8F835
:101E4000000000F00F00B8420CD2D8F8001021F0CA
:101E50000F013943C8F80010D8F8000000F00F0057
:101E6000B84269D12078844D40070AD52069296895
:101E700001F07001884204D9296821F07001014302
:101E8000296020787C4E361D00070AD560693168CC
:101E900001F07001884204D9316821F070010143DA
:101EA00031602078C0060AD5A069316801F4E0618C
:101EB000884204D9316821F4E0610143316020781F
:101EC000DFF8B4B180060BF1080B0CD5E169584678
:101ED000DBF8002002F07002914204D9026822F07F
:101EE00070020A430260207880070AD5E0682968FA
:101EF00001F00F01884204D9296821F00F01014344
:101F000029602078C0073ED05B49A268286818394C
:101F100020F47060104328606068022818D00328FD
:101F200019D00968012819D0490700294ADADFF8D1
:101F300048A1AAF1080A00E044E0DAF8002022F003
:101F400007020243CAF80020FFF7DAF9814612E0DF
:101F500009688903E9E709688901E6E7C905E4E753
:101F6000FFF7CEF9A0EB090141F28830814202D996
:101F70000320BDE8F09F6168DAF8000000F0380047
:101F8000B0EBC10FECD1207880070AD5E068296852
:101F900001F00F01884204D2296821F00F010143AA
:101FA0002960D8F80010404601F00F01B9420BD962
:101FB000016821F00F0139430160006800F00F0053
:101FC000B84201D00120D4E7207840070AD5206923
:101FD000296801F07001884204D2296821F070015B
:101FE00001432960207800070AD56069316801F053
:101FF0007001884204D2316821F0700101433160E0
:102000002078C0060AD5A069316801F4E0618842F1
:1020100004D2316821F4E061014331602078800608
:102020000CD5E1695846DBF8002002F070029142BD
:1020300004D2026822F070020A43026000F088F8BD
:102040000E492A682B68C2F3032203F00F038A5C4F
:10205000C95C02F01F0201F01F01D040084A20FABB
:1020600001F111600749086007480068BDE8F05FAA
:10207000FFF782B90020005218440258283800089F
:102080001C000020180000201000002070B5144C27
:102090003F220260124A24680832131D114D04F0D9
:1020A0000704446016681C1D06F470668660166896
:1020B00006F00F06C660126802F0700202611A682C
:1020C00002F0700242611A6802F4E06282612268E2
:1020D00002F07002C261286800F00F00086070BD55
:1020E000104402580020005230B500F031F80B4A7D
:1020F0000B490C4B15681468C5F3032204F00F0458
:102100008A5C095D02F01F0201F01F01D040064AFF
:1021100020FA01F119601060084630BD18440258D9
:10212000283800081C0000201800002000B5FFF728
:10213000DBFF05490968054AC1F30211515C01F052
:102140001F01C84000BD00001C4402582838000888
:10215000454970B545480968434B103B11F03802BA
:1021600008D00111082A03D0102A0BD0182A0BD04E
:10217000084670BD19688906FBD51968C1F3C1010D
:10218000C84070BD3A4870BD3749374D18310C1DF5
:1021900024350A68096826682D6802F0030406F0F1
:1021A0000102C1F30511C5F3CC0515FB02F200EEE7
:1021B000102AB8EE400AE9B32F4ADFED2E0AB7EE37
:1021C000001A6CB1DFED2D1A012C01D0022C43D086
:1021D00002EE101A1068F8EE422A81EEA22A1EE0E2
:1021E0001C68A40611D51B6801EE901A1168C3F390
:1021F000C103F8EE612AD84001EE900AC1F308004D
:10220000F8EE611A81EEA22A0BE001EE901ADFEDE2
:102210001C2A00BFF8EE611A106882EEA12AC0F3F2
:10222000080001EE900AF8EE611A40EE201A31EE35
:10223000810A00E015E022EE000A1068C0F3462093
:10224000401C00EE900AF8EE600A80EE201ABCEE08
:10225000C10A10EE100A70BD01EE901ADFED092AD6
:10226000D8E7002070BD0000104402580090D00351
:1022700000366E0100000039304402580024744AD0
:102280000024744C001BB74B2DE9F05F04007DD097
:10229000FF4F2078FE4D1837DFF8F483103DC0075C
:1022A00048D0D8F80000396800F03800102815D060
:1022B000182803D101F0030002280FD06068B0F5A0
:1022C000803F12D010B1B0F5A02F18D0286820F4AC
:1022D00080302860286820F4802009E02868800386
:1022E00028D560680028D2D024E0286840F48030E7
:1022F0002860606888B1FFF703F8064609E028689F
:1023000040F480202860F0E7FEF7FAFF801B642885
:102310007ED828688003F7D50CE0FEF7F1FF06466B
:1023200005E000BFFEF7ECFF801B6428F0D82868AA
:102330008003F7D42078800756D5D8F80000DFF85E
:102340005093396810F03800A9F10C090ED0182804
:1023500001D188070AD0E068A8B3296821F01901E3
:1023600001432960FEF7CCFF064628E028684007B5
:1023700002D5E06800288AD0E168286820F01900BA
:1023800008432860FEF7BCFF064606E0D2E000BF27
:10239000FEF7B6FF801B0228BAD828684007F7D599
:1023A000217CD9F8002022F0FE4242EA0161C9F8FE
:1023B000001019E0FEF7A4FF801B0228A8D82868A7
:1023C0004007F7D5ECE7FFE7286820F00100286018
:1023D000FEF796FF064604E0FEF792FF801B0228F8
:1023E00096D828684007F7D42078C00646D5D8F894
:1023F0000000DFF89C92396800F03800A9F1040968
:10240000082812D0182805D101F00300012800E0A7
:10241000CEE00AD0E0690028286820D040F0800093
:102420002860FEF76DFF064615E02868C00502D556
:10243000E06980287ED194F82010D9F8002022F09D
:102440007C5242EA0161C9F8001017E0FEF758FF1C
:10245000801B0228A0D82868C005F7D5EBE720F03C
:1024600080002860FEF74CFF064604E0FEF748FFB8
:10247000801B022890D82868C005F7D42078000770
:1024800029D583486169643000298146016811D0EB
:1024900041F001010160FEF733FF064605E000BF91
:1024A000FEF72EFF801B022888D8D9F8000080078D
:1024B000F6D510E021F001010160FEF721FF06468C
:1024C00005E000BFFEF71CFF801B022870D8D9F87A
:1024D00000008007F6D42078800623D5A069002864
:1024E000286810D040F480502860FEF709FF0646A7
:1024F00005E000BFFEF704FF801B022858D82868BB
:102500008004F7D50EE020F480502860FEF7F8FE36
:10251000064604E0FEF7F4FE801B022848D828682F
:102520008004F7D42078400751D5DFF86891D9F8B6
:10253000001000E015E141F48071C9F80010FEF7C9
:10254000DFFE064605E000BFFEF7DAFE801B6428CA
:102550002ED8D9F80000C005F6D54D4EA0686036DB
:1025600001280AD008B1052813D0306820F00100F6
:102570003060306820F0040002E0306840F0010074
:102580003060A06841F2883A98B1FEF7B9FE814602
:102590000AE0306840F004003060EEE7FEF7B0FE7D
:1025A000A0EB0901514503D830688007F6D50EE04D
:1025B00072E0FEF7A5FE814606E000BFFEF7A0FE32
:1025C000A0EB0901514567D830688007F6D4606AEE
:1025D00000287CD0DFF8B8A0D8F800100AF1200A53
:1025E0004FF6F87B0AF10408C1F3C2010329AAF1EE
:1025F00004096DD00228286820F08070286003D07C
:10260000FEF77EFE044681E0FEF77AFE064604E011
:10261000FEF776FE801B022875D828688001F7D463
:10262000E26A40F2F331386854F8283F884340EAC0
:10263000021018433860217B4FF4FE0C22894FF0C2
:10264000FE47208A4902267D521E401EA1F50071D8
:1026500089B2C2F308021143761E0CEA004001431E
:10266000484607EA06621143CAF80010D9F800107C
:1026700021F00101C9F80010D8F80030266A23EAD9
:102680000B0343EAC601C8F80010D9F8001004E0B3
:10269000104402580048025835E0A26921F00C01AC
:1026A0001143C9F800100168E26921F002011143E9
:1026B0000160016841F480310160016841F400313A
:1026C0000160016841F480210160016801E06CE073
:1026D00020E041F001010160286840F0807028602E
:1026E000FEF70EFE044604E0FEF70AFE001B022879
:1026F00009D828688001F7D557E000BFFEF700FE33
:10270000001B022802D90320BDE8F09F2868800141
:10271000F4D44AE039680128DAF8000021D0A26A2E
:1027200001F0030393421CD1E26AC1F305118A420E
:1027300017D1216BC0F30802491E8A4211D1616B87
:10274000C0F34622491E91420BD1A16BC0F3064251
:10275000491E914205D1E16BC0F30660491E8142DA
:1027600001D00120D0E7A16C4646D8F80000C0F3A4
:10277000CC00814219D0D9F800004D4620F001006C
:10278000C9F80000FEF7BCFD4FEA0007FEF7B8FDF0
:10279000B842FBD0A26C306820EA0B0040EAC200CD
:1027A0003060286840F0010028600020ACE77047E6
:1027B00070477047F0B590F83C20012A41D0224E76
:1027C000012480F83C40022280F83D2002681F4D21
:1027D0005368B242D2F808C001D0AA4203D14F6870
:1027E00023F470033B430F6823F070031F435760CB
:1027F0000268B24219D0B2F1804F16D0144B9A42FF
:1028000013D0144B9A4210D0134B9A420DD0AA42C7
:102810000BD0124B9A4208D0114B9A4205D0114B63
:102820009A4202D0104B9A4204D189682CF080035E
:1028300019439160002180F83D4080F83C10084623
:10284000F0BD0220F0BD0000000001400004014086
:102850000004004000080040000C00400018004048
:102860000040014000E0004000E4004010B50400DA
:1028700003D094F83D0010B107E0012010BD002006
:1028800084F83C00204600F022F8022084F83D0045
:102890002068211D00F024FD012084F8480084F800
:1028A0003E0084F83F0084F8400084F8410084F83A
:1028B000420084F8430084F8440084F8450084F81A
:1028C000460084F8470084F83D00002010BD7047A2
:1028D00090F83D10012901D0012070471A4A0221C9
:1028E00080F83D100168CB6843F00103CB600068BD
:1028F00090421AD0B0F1804F17D01449884214D0BA
:102900001349884211D0134988420ED01249884297
:102910000BD01249884208D01149884205D011498C
:10292000884202D01049884207D181680F4A11407D
:10293000062906D0B1F5803F03D0016841F00101BE
:1029400001600020704700000000014000040040CA
:1029500000080040000C0040000401400018004046
:102960000040014000E0004000E40040070001009A
:1029700070472DE9F041044600680027C6680569E4
:10298000A90713D5B10711D5FA1E026101212177DC
:10299000206880698007204602D0FFF7E9FF04E045
:1029A00000F0B4F8204600F089F92777680716D5BB
:1029B000700714D5226802206FF00401116120779E
:1029C0002068806910F4407F204602D0FFF7D0FFD6
:1029D00004E000F09BF8204600F070F92777280704
:1029E00015D5300713D5226804206FF00801116156
:1029F00020772068C0698007204602D0FFF7B8FF23
:102A000004E000F083F8204600F058F92777E80644
:102A100016D5F00614D5226808206FF01001116158
:102A200020772068C06910F4407F204602D0FFF76D
:102A30009FFF04E000F06AF8204600F03FF9277796
:102A4000E80708D0F00706D021686FF001000861A0
:102A5000204600F034F9280601D4A80408D5300631
:102A600006D521686FF4025008612046FFF7A0FEEA
:102A7000E80508D5300606D521686FF48070086136
:102A80002046FFF794FE680608D5700606D5216833
:102A90006FF040000861204600F018F9A8060AD53A
:102AA000B00608D521686FF0200008612046BDE817
:102AB000F041FFF77EBEBDE8F081000010B586B0A2
:102AC000044614216846FDF7A7FC0D49206888429A
:102AD00013D10C48016841F0020101600068002137
:102AE00000F00200059002200090CDE90101CDE93F
:102AF000031005486946FEF7F5FA06B010BD000060
:102B000000040040E044025800040258704770B5C9
:102B1000044690F83C0000260D4601280BD0012009
:102B200084F83C000C2A4AD007DC82B1042A20D069
:102B3000082A06D131E0022070BD102A53D0142A91
:102B400063D00126002084F83C00304670BD206828
:102B500000F036FC2068816941F00801816120683D
:102B6000816921F00401816120682A69816911432A
:102B700011E0206800F076FC2068816941F4006172
:102B800081612068816921F48061816120682969FF
:102B9000826942EA01218161D4E7206800F0AEFC3D
:102BA0002068C16941F00801C1612068C16921F054
:102BB0000401C16120682A69C169114311E02068DC
:102BC00000F0E8FC2068C16941F40061C16120683F
:102BD000C16921F48061C16120682969C26942EA42
:102BE0000121C161AEE7206800F010FD2068416D51
:102BF00041F0080141652068416D21F00401416503
:102C000020682A69416D114311E0206800F038FD09
:102C10002068416D41F4006141652068416D21F4F7
:102C20008061416520682969426D42EA0121416560
:102C300088E710B5040003D094F83D0010B107E018
:102C4000012010BD002084F83C00204600F022F84E
:102C5000022084F83D002068211D00F041FB012086
:102C600084F8480084F83E0084F83F0084F840006F
:102C700084F8410084F8420084F8430084F844005A
:102C800084F8450084F8460084F8470084F83D0045
:102C9000002010BD08B500680649884208D10648E2
:102CA000016841F002010160006800F0020000903C
:102CB00008BD000000040040E84402587047006866
:102CC000B0F1804F01D1FEF721BB70477047000083
:102CD000184800212DE9F041154F01268160052497
:102CE00007600423C16013250174082241748174B4
:102CF000C0E90536C0E90754C562C0E90C418463E8
:102D0000C0E90936C0E91121C0E90F43C0E9132128
:102D1000C0E91531C0E91712C0E91912FDF7FCFF2F
:102D2000002803D0BDE8F041FDF7DBBBBDE8F08132
:102D300000A00040000000241A48002170B5184E81
:102D400000F1140C8160052206600124C1600E258B
:102D5000017440F256364174042381748CE83400C7
:102D60000262243080E83400C0E9032603620824AC
:102D70004261C0E90621C0E909340622C0E90B130B
:102D80004163C0E90E13C0E910122438FDF7C4FFF7
:102D9000002803D0BDE87040FDF7A3BB70BD000064
:102DA00000A40040A00000241B4800212DE9F041B0
:102DB000184E00F114078160052206600124C160ED
:102DC0000E25017440F2AD6641740423817487E8D6
:102DD000340002622430022780E83400C0E9032670
:102DE0004261C0E906270322C0E90831C0E90A317F
:102DF000C0E90C31C0E90E12C0E910132438FDF708
:102E00008BFF002803D0BDE8F041FDF76ABBBDE8A9
:102E1000F081000000D4004040010024114808B5B2
:102E2000016841F080010160016801F080010091BA
:102E3000016841F002010160016801F002010091A6
:102E4000016841F008010160016801F0080100918A
:102E5000016841F001010160006800F0010000908C
:102E600008BD0000E044025830B58BB0002468462D
:102E70001C21079408940994FDF7CEFA164842F2F3
:102E80000F721723134D8021C0E902420461816152
:102E9000C0E90053FFF7CDFE08B1FDF722FB0E4855
:102EA00007A907940994FFF785FC08B1FDF719FB02
:102EB00060206946CDE9000407480C22029404947E
:102EC000FFF725FE08B1FDF70CFB0348FFF7F6FD01
:102ED0000BB030BD0004004020000020FEE770472A
:102EE00070B5AEB0B8216846FDF796FA00231824F5
:102EF00019464FF4004202208DE81C00C82506AB9D
:102F0000CDE903502026059083E843000207684678
:102F10001B920991FEF7EEFA002801D072B6FEE787
:102F20002EB070BD2DE9F047454D044689464FF05F
:102F3000000A2868C04380070AD0414E283E306806
:102F400020F080603060FEF7DBF90746B04608E00D
:102F50000120BDE8F08700BFFEF7D2F9C01B0228B0
:102F600067D8D8F800000001F6D4206829684FF42B
:102F7000FE0721F47C313E0241EA00302860207ACD
:102F8000A389B4F804C040022D4D2D495B1E227C5C
:102F9000ACF1010C1035091DA0F5007080B2521E75
:102FA000CCF3080C07EA034340EA0C00184306EA96
:102FB0000262104328600868626920F0C000104374
:102FC00008600A68A06922F0200202430A60281DF6
:102FD0000A6822F010020A6002684FF6F873E4698A
:102FE0009A4342EAC40202600868B9F1000F40F057
:102FF00010020A6011D00868B9F1010F11D040F435
:1030000000100860D8F80000444640F08060C8F81E
:103010000000FEF775F905460DE0086840F4002051
:10302000EFE740F48010ECE7FEF76AF9401B022856
:1030300001D903208DE720680001F5D5504688E7C7
:10304000284402582DE9F047454D044689464FF083
:10305000000A2868C04380070AD0414E283E3068E5
:1030600020F080503060FEF74BF90746B04608E08C
:103070000120BDE8F08700BFFEF742F9C01B02281F
:1030800067D8D8F800008000F6D4208829684FF46B
:10309000FE0721F07C713E0241EA00502860207A50
:1030A000A389B4F804C040022D4D2D495B1E227C3B
:1030B000ACF1010C1835091DA0F5007080B2521E4C
:1030C000CCF3080C07EA034340EA0C00184306EA75
:1030D0000262104328600868626920F4406010436F
:1030E00008600A68A06922F4007202430A60281D81
:1030F0000A6822F480720A6002684FF6F873E46985
:103100009A4342EAC40202600868B9F1000F40F431
:1031100080720A6011D00868B9F1010F11D040F037
:1031200080700860D8F80000444640F08050C8F82D
:103130000000FEF7E5F805460DE0086840F4800061
:10314000EFE740F40000ECE7FEF7DAF8401B022856
:1031500001D903208DE720688000F5D5504688E727
:10316000284402587047704730B59DB04C216846DE
:10317000FDF752F9202113A8FDF74EF90220FEF7C2
:103180008FF91D48016821F4404101600168002465
:1031900001F440411B9101688904FCD502200A908A
:1031A00028230990C20301210C25CDE90012CDE9A5
:1031B0000B03CDE90D10CDE910540F906846129421
:1031C000FFF762F808B172B6FEE740201A900823B4
:1031D0000501CDE9163013ABCDE918053F210322D7
:1031E00083E8160013A81146FEF722FE002801D03E
:1031F00072B6FEE71DB030BD184802582D48F0B534
:103200002D4A016841F470010160106800F00F0060
:10321000072804D2106820F00F00C01D1060274955
:103220000020264C10340B68254D43F001030B6041
:1032300020600B682B400B60136803F00F03072B13
:1032400004D9136823F00F03DB1D13601B4C1D4AC8
:1032500018341D4B261D371D2060184C1B4D28347B
:103260003060261D3860371D23603B1D35601C1DF6
:103270003A60251D2E1D1860331D226028603260C3
:1032800018600B680D4A0D4C23F48023D4320B6078
:10329000603420601068C0040BD4136843F2D2007D
:1032A0000B4943F4805313600860106820F4805089
:1032B0001060F0BD88ED00E000200052004402588C
:1032C0007FEDF6EA80020101000202020000FF0128
:1032D000004000520148FFF74CBB0000E001002411
:1032E0002DE9F0472C4B4FF0804A2C4D0268984254
:1032F0002B4E2C4F2C4C09D0504507D0A84205D05E
:10330000B04203D0B84201D0A04205D1D1F804C0E8
:1033100022F070024CEA0202DFF890C0DFF89080E1
:103320009842DFF8909015D0504513D0A84211D0A4
:10333000B0420FD0B8420DD0A0420BD0604509D0AA
:10334000404507D0484505D01B4DA84202D01B4D33
:10335000A84203D1CD6822F440722A438E684D6999
:1033600022F08002C6620E682A439842866207D025
:10337000A04205D0604503D0404501D0484501D169
:10338000096901630368012143F00403036041619B
:103390000260BDE8F087000000000140000400402A
:1033A00000080040000C00400004014000400140C3
:1033B000004401400048014000E0004000E40040BB
:1033C0002DE9F04FDFF88480214EDFF88890DFF898
:1033D00088B0026A036AB042DFF880A022F0020CD3
:1033E0001F4F23F001020262426885698B680C68F6
:1033F00005EA080525F0030543EA0C0344EA050441
:1034000007D0484505D0584503D0504501D0B842B3
:1034100005D1CD6823F008031D4325F00403B04215
:1034200007D0484505D0584503D0504501D0B84293
:1034300005D122F44076D1E9055235432A43426052
:103440008461496841630362BDE8F08F8FFFFEFF2E
:1034500000000140000401400040014000440140E0
:1034600000480140F0B5DFF87CE01F4C1F4D026AB8
:10347000036AA04222F0200623F010030362426890
:103480008369D1F808C00F6803EA0E0323F4407E75
:1034900046EA0C134EEA072601D0A84206D1CF68AF
:1034A00023F0800343EA071323F04003A0420AD02D
:1034B000A84208D00E4CA04205D00E4CA04202D02B
:1034C0000D4CA04207D1D1E9054522F4406242EA01
:1034D000840242EA85024260866149688163036230
:1034E000F0BD0000FF8FFFFE00000140000401401E
:1034F000004001400044014000480140F0B5DFF8C1
:103500007CE01F4D1F4E026A036AA84222F4007736
:1035100023F4807303624368C269D1F808C002EAE9
:103520000E020C6822F0030E47EA0C2244EA0E0455
:1035300001D0B04206D1CF6822F4006242EA0722ED
:1035400022F48062A8420AD0B04208D00E4DA842B0
:1035500005D00E4DA84202D00D4DA84207D1D1E9A9
:10356000055623F4405343EA051343EA0613436028
:10357000C4614968C1630262F0BD00008FFFFEFFB5
:1035800000000140000401400040014000440140AF
:1035900000480140F0B5046A026A22F480520262D7
:1035A0004268C36924F40054DFF848C08E680D688F
:1035B00003EA0C03104F23F4407344EA0634B84284
:1035C00043EA05230BD00D4DA84208D00C4DA8426C
:1035D00005D00C4DA84202D00B4DA84204D14D6934
:1035E00022F4804242EA85124260C3614968016464
:1035F0000462F0BDFF8FFFFE0000014000040140A7
:10360000004001400044014000480140F0B5164F21
:10361000164B026A046A984222F4003524F480337F
:1036200003624268436D0E890C6803EA070344EAAB
:10363000030445EA06430BD00D4DA84208D00D4DBA
:10364000A84205D00C4DA84202D00C4DA84204D18E
:103650004D6922F4803242EA05224260446549689D
:1036600081650362F0BD00008FFFFEFF0000014096
:103670000004014000400140004401400048014076
:10368000F0B5164F164B026A046A984224F4801370
:10369000036222F400144268436D0E890D6803EA48
:1036A000070344EA065443EA05230BD00D4DA84214
:1036B00008D00D4DA84205D00C4DA84202D00C4DAB
:1036C000A84204D14D6922F4802242EA8522426058
:1036D00043654968C1650462F0BD0000FF8FFFFECD
:1036E000000001400004014000400140004401404E
:1036F00000480140FEE7090700284FEA116104DB9A
:1037000000F1E02080F80014704700F00F0000F195
:10371000E02080F8141D704710B58AB00024082BF3
:103720000294CDE9001401D8190417E00C2B0AD03B
:10373000102B0AD0142B0AD0182B0AD0302B0AD009
:10374000402B0AD00BE0092108E00A2106E00B21FA
:1037500004E00C2102E00E2100E00F2103916946F4
:1037600004940594069407940894FDF7B5F80AB0FC
:10377000002010BDFDF7D2FDFFF7F6FCFFF7B0FB10
:10378000FFF74CFBFFF7A4FAFFF7D6FAFFF76CFB45
:10379000FFF70AFBFCF7B6FEFCF7EAFE4FF4A46461
:1037A0004FF47A75044A054808232146FFF7B4FF11
:1037B0002846FDF73BF8F5E7000000200000002454
:1037C0004FF04070E1EE100A704700000001020364
:1037D00004050607080C10141820304000000000F3
:1037E00000000000000000000000000000000000D9
:1037F00001000000020000000300000004000000BF
:1038000000000000050000000000000000000000B3
:1038100000000000060000000000000000000000A2
:103820000000000007000000000000000102030487
:103830000102030406070809683800080000002098
:10384000200000000803000888380008200000203D
:1038500050040000240300088838000800000024F9
:103860009004000024030008000102030405060779
:103870000000000001000000100000000000000037
:083880000090D0030090D0037A
:04000005080002CD20
:00000001FF
